:020000040000FA
:10000000600120206D0100007101000073010000FB
:1000100000000000000000000000000000000000E0
:10002000000000000000000000000000750100005A
:1000300000000000000000007701000079010000CE
:100040007B0100007B0100007B0100007B010000C0
:100050007B0100007B0100007B0100007B010000B0
:10006000000000007B0100007B0100000000000098
:10007000000000007B0100007B0100007B0100000C
:100080007B0100007B0100007B0100007B01000080
:100090007B0100007B010000000000000000000068
:1000A0007B0100007B010000000000000000000058
:1000B0007B010000000000007B0100007B010000CC
:1000C00000F002F800F042F812A030C808382418F6
:1000D0002D18AC4201D100F039F80FCCA246AB4646
:1000E0000CA730CF2D1B083F3F197C427F1E544484
:1000F0002D090426F441641EAC4201D300F026F819
:100100000126334200D0FB1A3343984754465D46DC
:10011000DFE70000F401000004020000000000001E
:100120007047000000000000002300240025002686
:10013000103A01D378C1FBD8520700D330C100D5A3
:100140000B6070471FB51FBD10B510BD00F027F83C
:100150001146FFF7F7FF00F0A9F800F03FF803B4ED
:10016000FFF7F2FF03BC00F045F800000648004727
:10017000FEE7FEE7FEE7FEE7FEE7FEE70348044989
:10018000024A044B70470000C100000060002020BC
:10019000600120206000202070477047704775463E
:1001A00000F024F8AE46050069465346C008C0007A
:1001B000854618B020B5FFF7E1FF60BCB6460026C3
:1001C0000027C0C5C0C5C0C5C0C5C0C5C0C5C0C565
:1001D000C0C5403D490849008D46704710B50446EA
:1001E000C046C0462046FFF7BAFF10BD0048704722
:1001F0000000202001491820ABBEFEE726000200C7
:100200007047811E091F00BFFCD270470448054992
:10021000016005494166054804210160016370479A
:100220003C8042408100010081000D00A0320A4064
:100230000D48002101600320C1430C48021F1368D0
:100240000B401360416801229143416011024268F2
:100250008A434260016830229143016001680F22A5
:10026000914301607047C04608030B4004010B40F6
:1002700080B500F005F8FFF7C9FFFFF7D9FF80BD93
:1002800080B5064806494160064A5160064901604A
:1002900011601020FFF7B5FF80BDC04600080A407E
:1002A000030000B100280A4001000026FFF7E0FF2C
:1002B000012080041149124A01E0042313600B68F5
:1002C000034202D10423136101E0042313600B688D
:1002D000034202D10423136101E0042313600B687D
:1002E000034202D10423136101E0042313600B686D
:1002F0000342E2D104231361E1E7C04680130A40C0
:1003000090320A4000000000180300000000202086
:0803100060010000280100005B
:04000005000000C136
:00000001FF
