:020000040000FA
:1000000030192020A1020000A5020000A702000074
:1000100000000000000000000000000000000000E0
:10002000000000000000000000000000A902000025
:100030000000000000000000AB020000AD02000064
:10004000AF020000E5340000513E0000693F0000AF
:10005000AF020000AF020000AF020000AF020000DC
:1000600000000000AF020000AF020000000000002E
:1000700000000000BD3E0000193F0000693E000086
:10008000113E0000313E0000F13D0000013E000045
:10009000413E0000213E0000000000000000000082
:1000A000AF020000AF0200000000000000000000EE
:1000B000AF02000000000000AF020000AF0200002D
:1000C00000F002F800F0C1F812A030C80838241877
:1000D0002D18AC4201D100F0B8F80FCCA246AB46C7
:1000E0000CA730CF2D1B083F3F197C427F1E544484
:1000F0002D090426F441641EAC4201D300F0A5F89A
:100100000126334200D0FB1A3343984754465D46DC
:10011000DFE700004482000064820000000000006D
:100120007047000000000000002300240025002686
:10013000103A01D378C1FBD8520700D330C100D5A3
:100140000B60704710B56E2902D101F049F910BD5E
:10015000702902D101F097FA10BD662902D107F08B
:1001600005FA10BD652902D107F000FA10BD672914
:1001700002D107F0FBF910BD612902D107F0FEF9A9
:1001800010BD03681B0A01D380231943692902D1DA
:1001900001F0F0F810BD642902D101F0EBF810BDB8
:1001A000752902D101F0E6F810BD6F2902D101F0E6
:1001B00015FA10BD782902D101F052FA10BDE929D3
:1001C00002D101F0B1F910BDE42902D101F0ACF97E
:1001D00010BDF52902D101F0A7F910BDEF2902D118
:1001E00001F008FA10BDF82902D101F047FA10BD5C
:1001F0000368DB0901D380231943632902D101F08D
:100200002AFF10BD732902D101F02DFF10BDE32993
:1002100002D101F037FF10BDF32902D101F03AFFFE
:1002200010BD002010BD1FB502F020F80400002012
:10023000002106F0F1FF401C60600020002106F064
:10024000D5FFE0601FBD10B510BD01F0E7FF1146FE
:10025000FFF7E9FF05F0BCFE02F07CFB03B4FFF7FB
:10026000F2FF03BC03F01CFF70B505460C461646B2
:1002700002E00FCC0FC5103E102EFAD2082E02D38A
:1002800003CC03C5083E042E07D301CC01C5361F9D
:1002900003E021782970641C6D1C761EF9D270BDB4
:1002A00006480047FEE7FEE7FEE7FEE7FEE7FEE75B
:1002B00003480449044A054B70470000C100000090
:1002C000300520203019202030092020300920203E
:1002D0000FB4054910B503AA029801F0B3F810BC99
:1002E00008BC04B018470000540320200FB41CB50C
:1002F000084B06AA7B4469460090059801F089F8EE
:1003000004460020694601F097F820461CBC08BC52
:1003100004B018474111000030B5441C03E00178D7
:10032000401C00290DD08107F9D10B4BDD0104C819
:10033000D11A91432940FAD0001B0A0603D0C01EEF
:1003400030BD001B30BD0A0401D0801E30BD090243
:10035000FCD0401E30BD000001010101F8B5042AA7
:100360002CD3830712D00B78491C0370401C521EFB
:1003700083070BD00B78491C0370401C521E830767
:1003800004D00B78491C0370401C521E8B079B0F36
:1003900005D0C91ADF002023DE1B08C90AE0FFF7D9
:1003A00063FFF8BD1D4608C9FD401C46B4402C4300
:1003B00010C0121F042AF5D2F308C91A521EF0D435
:1003C0000B78491C0370401C521EEAD40B78491C60
:1003D0000370401C012AE4D409780170F8BDD2B240
:1003E00010B513029A1813049A1800F00EF810BDF5
:1003F00001E004C0091F0429FBD28B0701D502804C
:10040000801CC90700D00270704700290BD0C307B9
:1004100002D00270401C491E022904D3830702D572
:100420000280801C891EE3E70022EEE70022DFE75E
:10043000002203098B422CD3030A8B4211D30023E1
:100440009C464EE003460B433CD4002243088B42BB
:1004500031D303098B421CD3030A8B4201D3944648
:100460003FE0C3098B4201D3CB01C01A524183093B
:100470008B4201D38B01C01A524143098B4201D3F5
:100480004B01C01A524103098B4201D30B01C01A20
:100490005241C3088B4201D3CB00C01A524183089A
:1004A0008B4201D38B00C01A524143088B4201D3C7
:1004B0004B00C01A5241411A00D201465241104627
:1004C00070475DE0CA0F00D04942031000D340429C
:1004D00053409C46002203098B422DD3030A8B42D2
:1004E00012D38901FC2212BA030A8B420CD3890170
:1004F00092118B4208D3890192118B4204D3890156
:100500003AD0921100E08909C3098B4201D3CB0193
:10051000C01A524183098B4201D38B01C01A524148
:1005200043098B4201D34B01C01A524103098B424C
:1005300001D30B01C01A5241C3088B4201D3CB0037
:10054000C01A524183088B4201D38B00C01A52411A
:10055000D9D243088B4201D34B00C01A5241411AF1
:1005600000D201465241104663465B1001D340421F
:10057000002B00D54942704763465B1000D34042D0
:1005800001B50549002802DC491C084000E0084686
:10059000C046C04602BD00BFFFFFFF7F70477047E7
:1005A00070470000F0B50C46871A9C410D46861A2C
:1005B0009D4103D2C01BA141D21963410D0D1F0DF6
:1005C000C94EEC1BAE435CD07F057F0D0026002F8B
:1005D00051D02D05AC46A943DD020123ED0A1B05D0
:1005E0001D4320231B1B24D41746E74038187141B4
:1005F0002F46E740CC199D402818314661410C0D2B
:1006000027D161449A4013D50023401C5941520020
:100610000ED14008400001224B005205D34207D3BF
:1006200005204007C14201D5B04900E0B04930463D
:10063000F0BD6B00002A00D001229A181F23203C35
:100640001B1B01D5002302E0E540281871410C0D69
:10065000D7D0012424050919C407CD07400849084B
:10066000E40F28436144002CD5D00024401C614194
:100670009A40D0D1CDE76A05520DD9D1C90FC9072B
:10068000D5E79C4D4E00002801D0012400E0002455
:1006900034195F00002A01D0012600E00026BE19AF
:1006A000954FAC420CD8AE420AD8B44206D00125D0
:1006B0006D05EC42BCD010461946F0BD9942FCD005
:1006C00000203946F0BDF0B51FB40C460F46811A24
:1006D0009F412546861A9D4106D20125ED076F40B0
:1006E000401ABC4152187B41210D1E0D8D1BAC469A
:1006F0007D4D8D437ED075056D0D7CD00D05AE46CC
:10070000AC431B031B0B794D52429D41202366468F
:100710009B1B14D31746F7403818002600907441ED
:1007200060462F460741E41900989D40281866410D
:1007300016D4714671189A4025D5012320E09318EC
:100740002A466A415200002B00D0521C1E23203E34
:100750009B1B002B61DD3541EE1728186641E8D55B
:10076000001876415B1C9A4000D3401C4B05F318DF
:100770001524E34010D3002B52D071467118D30FCB
:10078000C01802D3491C05B0F0BD0123DB079A4213
:10079000F9D140084000F6E701225205B21801D114
:1007A000002853D00123CC0ADB029943891E002A7A
:1007B00008D1020C03D0020C0004103902E00246FA
:1007C000002020390023550B05D112020823550BB8
:1007D00001D152010D23550C01D112011B1DD50C65
:1007E00001D192009B1C150D01D152005B1C2025EC
:1007F000EE1A01E02CE022E00546F5401543984052
:10080000CA1AE10769181305C918002ABBDA0320C0
:1008100040070818C10FC9070FE071466118B2E719
:10082000F10740080843711071444A000CD00123BD
:100830005B059A42A7D2C90FC9070020A3E7490563
:10084000490D26D1002001E00028F4D100219AE7CB
:10085000284D6600002801D0012100E00021711818
:100860005F00002A01D0012600E00026BE19224FB9
:10087000A94210D8AE420ED8B14208D001256D056C
:10088000E94206D01946A802414010467BE79C4247
:1008900001D0214677E70020394674E710B50C46B1
:1008A0005C4005D50124E4076340FFF70CFF10BD51
:1008B000FFF778FE10BD30B40C465C4004D501242F
:1008C000E407634030BC6DE630BCFCE670B5012443
:1008D000E40761400D465D4002D4FFF763FE70BD42
:1008E0006340FFF7F0FE70BDFF0700000000F0FF5F
:1008F0000000F07F0000E0FF0000F87FF0B5F94D48
:100900000C091E092C402E402F468BB0A7437DD0EA
:10091000B543FCD0002E7AD0002CFCD00D465D40B3
:10092000ED0F2543AC1BFF25AD0464190894C502E7
:10093000440DC9022143500DDC0204430120C007CD
:1009400001430443D2020191200C110C00958C4606
:10095000010423468B430A9161460904E24D8A4310
:100960000991010A7D4449198039097805464D43AA
:1009700001266D18F605751B6943C90C640B891CAB
:100980004C436418B5012C1B250C2E04B4434C4376
:100990004D43210C691889090591009DE90701D093
:1009A0000121C90704912C4601996708CD072F43FF
:1009B0004C08059DE10B4D432D0C294666467543B9
:1009C00002950D4645432E46029D7D1BB441009580
:1009D0000D465D4301942C0C2F040D465543AE4645
:1009E0002D0C3D43029503947546049C2D04641B15
:1009F000049406D2029C039D641C00267541039555
:100A0000029401AC70CC009F7D1B01E03EE162E1ED
:100A1000B44109040095079101940599A408614324
:100A2000090C0C464443650BE7040C4666467443C8
:100A3000A646640B3C43039502947446049DE4046B
:100A40002C1B049406D2029C039D641C0026754155
:100A50000395029401AC70CC009F7D1BB4410194BE
:100A60000C465C430095650FE7000C465443A646D0
:100A7000640F3C43039502947446049DE4002C1BD0
:100A8000049406D2029C039D641C002675410395C4
:100A9000029401AC70CC009F7D1BB441AE09AF063F
:100AA000049DC900AD092F43049DA406AD0604951D
:100AB000079D344369180791059DE10B4D432D0CAB
:100AC00029466646754302950D4645432E46029DCE
:100AD0007D1BB44100950D465D4301942C0C2F0401
:100AE0000D465543AE462D0C3D4302950394754685
:100AF000049C2D04641B049406D2029C039D641C78
:100B0000002675410395029401AC70CC009F7D1BBB
:100B1000B44101948C050694079C890A61180095DC
:100B20000791019C0599A4086143090C0D464543B2
:100B3000680BEF040D46644665436C0B3C43049F11
:100B4000ED047D1BAC4602D20025641C6841009E6A
:100B5000019D371B85410846584301950C46460FB9
:100B6000C5005443600F28436546E4002C1B02D2A5
:100B70000025401C6E41019D3F1AB5412846BD0924
:100B8000800628438446A009BF064E020699A406A3
:100B900076180743079D002068410A99079019437A
:100BA0000020099B00906046FF1913434041E20F6B
:100BB00064003A43A4460446D71A8C41A04203D9A4
:100BC0000120009020463A46C70F941840416246E3
:100BD000D20F2243644664000494009CBE46640025
:100BE000D71AA446044602978C417746002F01D1BC
:100BF000A04204D96046401C8446029A2046C40F95
:100C0000A64694184041049A0546D20F22436446F2
:100C10006400D31A8D417146002901D1A84202D93E
:100C200028461A46641C10430122002800D01643AF
:100C300061020020079B891904465C410223002CB5
:100C400002DB491813466441089DCE0A2D145D1934
:100C50004B056705E10A2C050D1908993E43C907A4
:100C60006940002B08D0934006D30022761C5141E6
:100C7000002B01D1760876001C4A002D43DB15427B
:100C800041D0AA433FD030460BB0F0BD06180D4608
:100C90004D41174C7642AC411AD395181C465C4125
:100CA000134A6D42A24113D3012252054C00D44293
:100CB0000AD15C00D4420BD04B4002D592021143C2
:100CC000E2E749004908DFE75940C90FC90718E0C2
:100CD00000200849D8E7054801420DD10342F7D06A
:100CE000F2E700000000FF07246C00000000F07F26
:100CF0000000E0FF0000F87F114859400143C01296
:100D000041400020C0E70123089A9B069A4205DC77
:100D1000032252078918C90FC907B5E705225207F0
:100D20008918074A1143D2125140ADE770B51546F4
:100D30001C4602460B4628462146FFF7DFFD70BDE4
:100D4000FFFFFF7F30B50346CA02400D1043164D2A
:100D5000164C0A1502D02043002A06DBAA1A002AE4
:100D600012DDD040FF2A0BDC30BD5205520D01D1FF
:100D700040004008AA1A07D4D0404042FF2A01DDB3
:100D8000002030BD0028FCDD4A00002B01D00120EE
:100D900000E00020101801225205D042F0D8C817F8
:100DA000C043604030BD00001E0400000000008011
:100DB0001F22030C02D10F22000402D0030E03D025
:100DC00004E00020014670470002083A030F01D1F9
:100DD0000001121F830F01D18000921E002801DB49
:100DE0004000521E120551184205C012411810460B
:100DF0007047C10FC90700D040420122920711433A
:100E0000D6E701218907D3E7F0B58B4C0F092546BA
:100E100089B0BD437BD01D092646AE43FAD00E46AD
:100E20005E402740F60F3E43254071D02401214209
:100E3000FBD0FF24AD19A4042D1B039501252D051E
:100E4000DB02DB0AC9022B43C90A29431E0109013F
:100E5000040F130F050121431701880B82039143EF
:100E60002D098C46A90B1E438A039543B30B9A03A5
:100E700096433F09BA0B9403A74302962E467E433E
:100E80000497B6464E19D7190C4601965443059758
:100E90007E43371B7646BF1B3601B646BE0B36195E
:100EA00000967646BC043719009C01D3641C00945C
:100EB0006400002F01D001263443029E049F754335
:100EC00066467E430496760034196E003419009409
:100ED000029C019E1C196643751BAE46069465462E
:100EE0004519059C05956C43594375460891691A47
:100EF0000191049E01465143A41B0491611A009C78
:100F00000791E10605D061090122114302E072E078
:100F10006EE06109089D00272C0A2D066918049DC2
:100F20007C412A0A2D066918019D6241AC0DAD0273
:100F30006D185441079A910D920255196141029A18
:100F4000644658435443069B059A5A43121A131B8E
:100F50009A0E9B015B187A41010B0005C3185141A1
:100F6000220A200644195A419A4200D2491C012003
:100F70004002814203D315230226F64302E01423E4
:100F80000326F6432020C51AA9401746AF40DA4091
:100F90000A4320460399D8400914731819055118BB
:100FA000039A3843D2075140AC4009D00122944003
:100FB00006D30022401C5141002C01D140084000C2
:100FC0001E4A934212D3012203989206904207DBF5
:100FD0000520400709181A480143C012414004E0A7
:100FE000032040070818C10FC907002009B0F0BD51
:100FF0000020F107FAE705180C464C4111486D42F4
:10100000A04115D394181A465A410E4864429041A3
:101010000ED301204A004005824209D35A00824281
:1010200006D35940C90F084AC90700201143DDE71C
:1010300000200649DAE700000000FF07FE07000075
:10104000FFFFFF7F0000E0FF0000F07F0000F87F5F
:101050000121C9050123411842001B06D3185B0E6C
:101060000AD0C1100722D206891840075242D14245
:1010700001D5520089187047090208D50146002A97
:1010800003D0C10FC90700207047104670474202C5
:1010900002D0002002497047072109050143F4E707
:1010A0000000F87FF0B5FF252D04C609C209FF270F
:1010B00004462E400137CB093E4348402A402B408E
:1010C0000746002A6BD0002B69D0AA4267D0AB42FA
:1010D00065D0002800DA32460125ED0529432C436E
:1010E00009022002090AD21A4B0C7F24E31A434C4E
:1010F000000A7C44E35C7D242404121914145B0070
:10110000A218884201D3521C00E0400049420C461C
:101110005C4324115C43DB016415E318040A5C435F
:10112000C502200D0C4644436419250A5D43230380
:10113000EC0C0D46654300030019EB184C42A3422A
:1011400001D35B18401CD4052018002B07D05B008E
:10115000C91804D3401C002901D1400840003F2198
:1011600089048A4209D3002A08DC1106090F04D039
:10117000032149074018C00FC007F0BD01224100FC
:10118000120689187F2252069142F6D2052149079C
:10119000C84201D59010F0BDFF20C005F0BD002F62
:1011A00000DA32461648AA4207D2AB4205D21902EB
:1011B000090E17D0F80FC007F0BDFF2563002D06FC
:1011C000AB42F9D84900A942F6D8AB4201D1A942B5
:1011D000F2D0A94201D1002101E061004908D00507
:1011E0000843F0BD1102090EFBD0FF200243D005D9
:1011F000F0BD0A460146104654E70000166500009F
:101200000000C07F10B501469E240002CA15A30746
:10121000002A02D01843002A04DBA21A002A0CDD9F
:10122000D04010BD1206120E01D140004008A21A93
:1012300003D4D04040420028F3DDFF2248001206CC
:10124000904201D9002010BDC817C043584010BDBE
:101250001F22030C02D10F2200041CD0030E01D167
:101260000002083A030F01D10001121F830F01D1C0
:101270008000921E002801DB4000521ED20551184A
:10128000021251181922904004D3491C002801D1A0
:101290004908490008467047C10FC90700D04042BD
:1012A000012292071143D3E701218907D0E770B5E6
:1012B000044685690068C10601D5302600E0202675
:1012C000C00707D070BD62683046A1689047206AA9
:1012D000401C20626D1EF6D570BD70B50446856950
:1012E0000078C00707D170BD6268A16820209047D0
:1012F000206A401C20626D1EF6D570BD09684A0543
:1013000001D540B27047C905FCD500B270470968E5
:101310004A0501D5C0B27047C905FCD580B27047F7
:1013200070B50C460546012A05D02878800600D500
:10133000EA69002302E0012305E05B1C934202D22C
:10134000E05C0028F9D1A869E618C01AA861286AEB
:10135000C01828622846FFF7AAFF04E06A682078D0
:10136000A968641C9047B442F8D32846FFF7B5FF3C
:1013700070BD0000F7B5002575291068009914A606
:1013800011D0FFF7BBFF002802DA404211A608E0A7
:10139000009909688A0701D50FA602E0490704D51C
:1013A0000EA6012501E0FFF7B2FF009F00242437BD
:1013B00004E000F098FE30313955641C0028F8D163
:1013C0002B4632462146009800F06BFAFEBD000025
:1013D000000000002D0000002B0000002000000095
:1013E00011680268006A530501D5087009E0D30549
:1013F00001D5088005E0130602D5C21705C100E03B
:10140000086001207047000001694A1C02610878E9
:10141000704700B58FB002910021059105490193F5
:101420007944039111460490684600F039F90FB0F1
:1014300000BD0000E5FFFFFF0A681070521C0A6043
:1014400070470000084B70B50D467B44FFF7E1FF85
:101450000446284600F022FE002802D00020C043A7
:1014600070BD204670BD000003390000F7B504468A
:10147000154686B02B487844002703C83E460090A6
:10148000019111E007986A467100415A02A800F0E4
:1014900009FE411C07D02178890603D5E269391875
:1014A00091420ED83F18761C2078800602D5E0695C
:1014B000B84206DDAE42E5DB07987100405A0028CD
:1014C000E0D1A069C01BA0612046FFF7F0FE1548DF
:1014D00078445A3803C800900020019116E041007A
:1014E0006A460798415A02A800F0DCFD0590401CAE
:1014F0000AD0002505E0626802A8A168405D904717
:101500006D1C05988542F6D30498401CB0420490A7
:10151000E5DB206AC01920622046FFF7DEFE09B035
:10152000F0BD0000D2610000F7B5D21D0025D20841
:1015300015A6D200F52905CA11D0002A05DA002126
:101540004042914111A60A4608E0009909688B07BC
:1015500001D50FA602E0490701D50EA601251146C7
:10156000009F0024243704E000F05EF930323A5541
:10157000641C02460A43F7D12B46324621460098A6
:1015800000F08FF9FEBD0000000000002D000000FB
:101590002B0000002000000070B504460021243418
:1015A00008E05507D2086D0F303565545D072A43B2
:1015B000DB08491C15461D43F3D10468002310A223
:1015C000250708D520252C400C4304D0C4690123ED
:1015D0000CA2641EC46100F064F970BD10B504462D
:1015E00021461068FFF793FE002302462046FFF7CE
:1015F000D3FF10BDD21DD108C9000CC9CCE7000033
:101600000000000030000000F8B50F460188090511
:1016100002D5224C7C4402E0204C7C440E3405462A
:101620000021243508E016071209360FA65D6E5416
:101630001E0732431B09491C16461E43F3D122469E
:1016400004780023240705D5702F06D0002901D087
:101650000223113200F025F9F8BD01231032F9E719
:1016600070B504460D4621461068FFF750FE002372
:10167000024629462046FFF7C7FF70BDD21DD3089A
:10168000DB000CCBC0E730B403682024126823438E
:1016900003600823C36130BC0023B5E73C60000051
:1016A000F3B50446002081B020622046E1688847F7
:1016B000002872D0252802D06268A168ABE0594F9B
:1016C00000267F442046E16888472028054608DB3D
:1016D000312D06D2781920380078002801D0064331
:1016E000F0E7B00701D5042086430020E0610746FB
:1016F000A0612A2D0AD0284605F070FD002827D0C9
:10170000B8000019303D0090856119E00298BA00D8
:10171000121902C8916102902046E1688847012FA2
:10172000054617D1E06900281FDA202086431CE017
:1017300000980A218069484300994019303888612F
:101740002046E1688847054605F048FD0028EFD1AE
:10175000012F0AD02E2D08D12046E1688847054682
:10176000202006437F1C022FC3DBA069002803DA78
:101770004042A06101200643F00701D010208643BB
:101780006C2D0BD0682D09D04C2D3CD06A2D38D053
:10179000742D38D07A2D36D016E040E0E1682F461F
:1017A00020468847B842054609D16C2F29D0012030
:1017B0008002E168064320468847054604E06C2F16
:1017C0001DD0FF2001300643002D28D02846413887
:1017D000192803D80120C002064320352046266080
:1017E0002946029A1646FEF7ADFC002810D00128C3
:1017F0000BD0F61DF008C0000830029055E74020DD
:10180000E1E78020D5E70020D3E7361D02964CE7BC
:1018100062682846A1689047206A401C44E7206A15
:10182000FEBD0000B65F00000B4670B5024689079A
:101830008008084319469D08141AA941250908077C
:10184000054308092C194841250A01060D43010AE0
:101850002C194141200C0D0428430D0C00194D4159
:10186000002140194D41C00869070843E908840F69
:101870008D002543840024184D4124196D41121B0D
:10188000AB4107E00925ED432C11521963410024B7
:10189000401C61411C460A250026551BB441F1D26B
:1018A00070BDFFB504460D4681B02430009021681C
:1018B000880604D51022E0699143216000E00120F0
:1018C000A84201DD471B00E000270498A1697A19AE
:1018D0001018081AA0612078C00602D42046FFF72D
:1018E000E6FC002608E003986268A168805D9047E6
:1018F000206A401C761C206204988642F3DB207824
:10190000C0060AD52046FFF7D2FC06E06268A1684F
:1019100030209047206A401C206238467F1E0028F5
:10192000F4DC07E000986268A168405D9047206A97
:10193000401C206228466D1E0028F3DC2046FFF77D
:10194000CCFC2078000602D5022005B0F0BD0120B5
:10195000FBE70000FFB50C461E468FB003CA089097
:1019600009914F007D0D00D16D1E00210846002019
:10197000C0460321099A89050840002A03DA82003B
:10198000801840080840800D01280A9002DD0020E0
:10199000C0430A90089807430DD0F048F049281832
:1019A00048430714189800281DD07542291E1DDDD4
:1019B0000A9842421BE01898012802D000203021EA
:1019C00004E00020F24305E02154401CB042FBDB60
:1019D00030460022189B002121540F998B600A6029
:1019E000486013B0F0BDBD1B6D1CDFE70A9A0029EB
:1019F00000DA69420BA800F081FC0BAB07CB03AB0C
:101A000007C30899099800F0E5FC6B4607C3014637
:101A1000D4480918002D00910BDDD24903980A9A89
:101A200049424018002303A90390684600F042FF92
:101A300008E003990A9A0023081803A9039068464E
:101A400000F0E2FE6B4607C30004000C03D0002048
:101A5000C043410800E01046189A002A03D0002233
:101A6000009215461EE0751E05D4FFF7DDFE3032EC
:101A700062556D1EF9D501220843079602D0002257
:101A80007F1C04E02078302801D100227F1E002A2C
:101A9000069787D01EE0112D07DAFFF7C5FE30321A
:101AA00062556D1C02460A43F5D1084303D00098E5
:101AB000002819D00EE00021681E05E0235C625C5E
:101AC00063542254401E491C8142F7DBA81B401E70
:101AD00007950690079A18990020A0540F98079B25
:101AE000069A81600CC07CE711260020189059E707
:101AF000D21DF0B50D460446D10893B0C90003C904
:101B00000C900D9105F026FB02460D98C00F01D0F8
:101B10002D2007E02068810701D52B2002E0400737
:101B2000C00F4001032A0F9001D0072A05DB0346AE
:101B30002946204600F09EFB0EE12078800601D564
:101B4000E76900E006272846652D04D0662814D0F2
:101B5000672D69D12DE00020112F009001DB1123AA
:101B600000E07B1C0CAA03A910A8FFF7F3FE119953
:101B7000002610987D1C0E9142E001203B460CAAE5
:101B8000C0070B900120009003A910A8FFF7E2FE08
:101B9000119D12981099002600280E9501D1781CED
:101BA0000D18781B02D446427D1C761EE81B00905F
:101BB0003AE0012F00DA01270020112F009001DD0B
:101BC000112300E03B460CAA03A910A8FFF7C2FEB0
:101BD00011993D46109800260E91217809070BD4E3
:101BE0000E99A94200DA0D4603A9012D04DD4A1918
:101BF000203AD27F302A06D0B84201DA011D04DA39
:101C0000012100910FE06D1EEFE7002802DC86192C
:101C10002D1A03E0411CA94200DD0D46801B401C2B
:101C200000900120C0070B902078000705D4009891
:101C3000A84202DB0020C043009069460020C87221
:101C40000B98012102AF0337C907884225D0022033
:101C500010902B2011900B9800280BDA40420B902B
:101C60002D20119006E00B9800F03DFA30317F1ED8
:101C70000B9039701099481E00291090F3DC0B98D6
:101C80000028F0D111987F1E38702088000501D5FA
:101C9000452000E065207F1E387001A8C01BC01DD4
:101CA0000B900F98002800D0012041190098C01710
:101CB00009180B980818A169081A401EA06120781D
:101CC000C00602D42046FFF7F2FA0F98002805D08C
:101CD0006268A1689047206A401C20622078C00694
:101CE00025D52046FFF7E3FA21E0002E07DB0E980A
:101CF000B04204DD03A86268805DA16802E062680A
:101D0000A16830209047206A761C401C2062009811
:101D1000401E002800900AD100F0A8FAC06862684E
:101D20000168405CA1689047206A401C20622846F8
:101D30006D1E0028D9DC07E062683878A1687F1C36
:101D40009047206A401C20620B99481E00290B9086
:101D5000F2DC2046FFF7C1FA032042E601FCFFFF58
:101D6000104D0000E1DFFFFFD21DF0B504460D4627
:101D7000D0088DB0C000466807683146384605F087
:101D8000E9F90246F00F01D02D2307E02068810712
:101D900001D52B2302E04007C00F43016846002B0A
:101DA000037001D0012000E00020032A0A9001D036
:101DB000072A04DB2946204600F05CFA2DE1207852
:101DC000800601D40D2500E0E5697000400D0D2D61
:101DD00001904BDA300D00210B9008460020C046E0
:101DE000032189050840002E05DA82008018C20F01
:101DF0001018401008408015012801DD0020C04364
:101E0000A9000023182906D39C460A460123183A44
:101E10001B07D34003E001221205CA4094460C314F
:101E2000202902D33A46203900E032468A40002871
:101E300002DD002A06D119E0002817D10121C907C7
:101E40008A4213D3194663467F185E41002806D1A3
:101E50000120C007824202D1084687439E430B9867
:101E6000310D814202D00198401C0190208800056C
:101E700002D57149794402E06F49794419396B46BA
:101E80000A9830221A540A980A7C401C1A54401CA2
:101E90000A900198002801DC302000E031201872FF
:101EA000019A0120002A02D0644BD21804E072008B
:101EB0003A4302D0614A521C0192002D02DC227882
:101EC000120703D56A462E20507202200022864651
:101ED00094460CE032033601120F6D1E8B5C02AA91
:101EE00013546246521C401C9446052A01DA002D08
:101EF000F0DC002202AE08E03B0F3F01CB5C521C3D
:101F00006D1E3354401C082A01DA002DF4DC2368CE
:101F10009A0601D511E0401E704504DD3218203AC2
:101F2000D27F302AF7D0002807DD3218203AD27F3E
:101F30002E2A02D11A0700D4401E002D03DD3E22B6
:101F40003254401C6D1E497C31540199401C0029BB
:101F500006DA2D21471C315401984042019003E0DC
:101F60002B21471C315401987D21C900884206DB92
:101F7000FEF768FA3030F0557F1C019101E06428CB
:101F800008DB01986421FEF75DFA3030F0557F1CC4
:101F9000019101E00A2806DB01980A21FEF752FAB6
:101FA0003030F0557F1C01980A21FEF74BFA303192
:101FB000F1550A98A1697F1C7A191018081AA061B6
:101FC0002078C00602D42046FFF771F9216A6E46D8
:101FD0000A980818206204E062683078A168761CCC
:101FE00090470A98401E0A90401CF5D12078C00600
:101FF00002D52046FFF75BF902AE09E03078761C87
:102000003E280DD06268A1689047206A401C20627B
:102010007F1EF3D22046FFF760F90DB00320F0BD1C
:10202000206A4019206203E06268A168302090476E
:102030006D1EEDD3F8E700002858000001FCFFFFFB
:1020400010B54369002B02D0C046C04601E0FFF73F
:1020500067F9012010BD1278014624310A70002270
:102060004A700122ECE711680022D243E8E710B57C
:102070004369002B02D0C046C04601E0FFF7F6F9E5
:10208000012010BD12880146243182840022C284BE
:102090000122ECE711680022D243E8E7C068802102
:1020A00008407047F8B516460C46054600F0D6F8CD
:1020B0000368FF200230C05C012807D0FF2C0FD836
:1020C000185D00280CD001202C70F8BDFF3332467B
:1020D000214608331868C71828460023B847F8BDBA
:1020E0000020C043F8BD01468008081A02091018F4
:1020F000020A1018020C1018C008820012185200B0
:10210000891A01E0401C0A390A29FBD270470000F5
:10211000F8B5264C4E00069DA6420AD8A64201D12B
:10212000002806D15E00A64203D8A6420AD1002AA2
:1021300008D00D242404254233D02946002000F085
:1021400011FCF8BD0C461C4311D4994207D0C81AA3
:1021500002D3EFF30080F8BDEFF30080F8BD801AE2
:1021600002D3EFF30080F8BDEFF30080F8BD09243F
:102170002407E5008B4207D0581A02D3EFF3008002
:1021800006E0EFF3008007E0101A03D3EFF30080BE
:10219000A04303E0EFF30080A043284380F30088CE
:1021A000F8BD009500F0F6FBF8BD00000000E0FF70
:1021B00010B5FF231B0644009C421DD84C009C42D6
:1021C0001AD80346124A0B4307D4401A02D3EFF33E
:1021D000008010BDEFF3008010BD081A03D3EFF3A9
:1021E0000080904305E0EFF3008001219043C90790
:1021F000084380F3008810BD0D231B041A4204D04D
:102200001146002000F0AEFB10BD00F0CDFB10BD6C
:102210000000009000487047E80220207546FFF754
:10222000F9FFAE46050069465346C008C000854622
:1022300018B020B5FEF73CF860BCB6460026002773
:10224000C0C5C0C5C0C5C0C5C0C5C0C5C0C5C0C566
:10225000403D490849008D467047000010B500F028
:1022600005F8001D10BD00BFB14F000000487047C9
:1022700008032020F8B51F46044601230068DB024E
:10228000032601461840072A05DB002801D017A5C0
:1022900006E017A504E0002801D016A500E016A569
:1022A000102081432160A069C01E002FA06101D0D1
:1022B000401EA0612046FEF7FAFF002F09D03846E5
:1022C0006268A1689047206A401C2062C01C20629E
:1022D00006E0206AFAE762682878A1686D1C9047DA
:1022E000761EF8D22046FEF7F8FFF8BD4E414E00AC
:1022F0006E616E00494E4600696E6600F7B516467F
:102300008AB0334878446C4603467C33C06F5A68C1
:102310009B680DC42E487844763003AC0DC80DC4BC
:102320003720C001081837211B30FEF78BF805460F
:102330000C46803D1B3C02D56442012000E0002099
:102340000027099010E0E0070CD00C2020497843CA
:10235000794432464C3941186846012300F054FA5A
:102360006B4607C364107F1C002CECD1184F7F44D0
:102370002E3F16E0E80712D02001C0190EC80691C2
:10238000089307920068F04201D1981908903246EC
:10239000012306A903A800F037FA03AB07C36D10A9
:1023A000641C002DE6D10998002806D03246694603
:1023B000012303A800F07EFA05E0012332466946B6
:1023C00003A800F021FA0A9B07C30DB0F0BD00007E
:1023D000AC530000034640000A4610B5400D0BD038
:1023E0000121C9070F24A40200191C03640821431A
:1023F000540D2143D20207E000210120F2E7D40F5F
:10240000490021435200401E0029F8DADB0FDB07A8
:10241000184310BDFFB50D46144685B04868516895
:1024200004F080FE00910190A868A16804F07AFE93
:1024300002910390A868616804F074FE029A121871
:102440008242029201D2012000E00020019A0B1882
:10245000D2180028019202D08A4202D903E08A42AF
:1024600001D2012000E0002000990818009068685F
:10247000A16804F057FE029A12188242029201D219
:10248000012000E00020019A0B18D21800280192C8
:1024900002D08A4202D903E08A4201D2012000E040
:1024A0000020009908180090286821684000490021
:1024B000400849084018FA49471814E001994000BB
:1024C000C90F08430090019802994000C90F0843C2
:1024D0000190029803994000C90F084302900398A5
:1024E00040007F1E039000980028E7DA0898002833
:1024F00001D0EC4E00E00026B74201DA012000E0F6
:102500000020002804902AD0F71BF806C00E15D032
:10251000029B2021091A039A8B401A430392029AC4
:10252000019BC2408B401A430292019A009BC24019
:102530008B4000991A430192C14000917B110DD04C
:102540006F460320C11A03D500218200B95003E071
:102550008A008100BA587A50401EF3D53746039856
:102560000299002800D00120014308980291002818
:1025700008460CD0002800D001200199019A490595
:1025800008430121D20AC902D202019200E00121CE
:102590000E9B0122D207012B02D0002B03D013E0A7
:1025A000002807D120E0904204D890420CD1019B32
:1025B0000B4209D0019B5918019105D10099491C82
:1025C000009101D17F1C009200280DD010210846F7
:1025D0000020C0460498002806D00F98002803D099
:1025E000082108460020C04628682168019B009AFF
:1025F0004840C10F0598C90739430EC009B0F0BD66
:10260000FFB587B0099A089808995368926840689E
:10261000896896460022039317469446089A1268E2
:102620005300099A5B081268520052089A1A9E4B8E
:10263000D4180A9A002A01D0352200E040220692DE
:102640000022012315460492DB07059324E0002DA8
:1026500005D175460346039E4D1BB34109D375460C
:102660006646039B491B049D9841059B7519AC4622
:102670005F4163463B4308D0059B049EDD07760817
:102680002E435B080496059301E0521E641EC50F9D
:10269000ED0749184041521C069B9A42D7DB002D9A
:1026A00004D17546039A6B1A824101D203200CE0D3
:1026B000039A0B466B404240134303D0014303D0BF
:1026C000012002E0022000E000206146019100218B
:1026D000009702910A99002905D061464002014302
:1026E000704B019102E08007002302909C4201DAC6
:1026F000012000E0002007003AD01A1BD006C00ECF
:1027000015D0029D2021019C091AC5408C4025430B
:10271000029C8C4000D001242543019C0295009D21
:10272000C4408D4000992C430194C1400091541144
:102730001DD06D460221002202290CD10320001B6E
:1027400007E0002804DB8600AE59002E00D00122ED
:10275000401C0328F5DB081B02D588002A5004E042
:102760008000285810438A00A850491EE3D51C4613
:102770000A98002802980CD0002800D00120019966
:10278000019A490508430121D20AC902D2020192E5
:1027900000E00121109B0122D207012B02D0002B67
:1027A00003D013E0002807D11FE0904204D89042E4
:1027B0000CD1019B0B4209D0019B5918019105D105
:1027C0000099491C009101D1641C009200280CD092
:1027D000102108460020C046002F06D0119800287E
:1027E00003D0082108460020C04608980999019A9C
:1027F000009B006809684840C10F0798C90721433A
:1028000082600AC00BB0F0BD00B585B001930092A4
:102810000A460146002302A8FFF7FCFD02A807C8EC
:1028200005B000BDFFB50A461F4685B00799019364
:1028300001230091014602A8FFF7ECFD02990398DD
:10284000049ECA0F4900D20700920F224908920243
:102850008C1A0021002800DB0C46450013486D0847
:10286000844214D3079A002A04DA441E0026104D2D
:10287000F64302E004460D460E46102108460020AD
:10288000C046002F03D0042108460020C046200582
:10289000E90A0843009908436905F20A1143ADE6C5
:1028A00002C0FFFF013C0000FF3F0000FF070000E7
:1028B000FFFFFF7F00B585B0019300920A460146F5
:1028C000002302A8FFF79CFE02A807C8A8E7FFB5EF
:1028D0000A461F4685B007990193012300910146DE
:1028E00002A8FFF78DFE02990398049ECA0F4900C3
:1028F000D20700920F22490892028C1A0021002868
:1029000000DB0C46450011486D08844214D3079A39
:10291000002A04DA441E00260D4DF64302E0044668
:102920000D460E46102108460020C046002F03D059
:10293000042108460020C0462005E90A0843009902
:1029400008436905F20A114358E60000FF0700003A
:10295000FFFFFF7F10B50446C046C0462046FDF786
:102960007DFC10BDC80212D54803400F002804D0DA
:10297000C803C043012188407047EFF30080000185
:10298000000903210907084380F3008870470020ED
:102990007047000010B500200249029A00F050F87C
:1029A00010BD00000000F87F10B5024800F048F8A4
:1029B00010BD00000000C07F024670B50A439207B8
:1029C0002AD11E4DEE0104C808C9541B944334405B
:1029D00017D0D0B2D9B2401A2106014310D190B21B
:1029E00099B2401A210401430AD110021902000AC7
:1029F000090A401A2102014302D1100E190E401A91
:102A000070BD9A42DFD010BA19BA884201D90120AC
:102A100070BD0020C04370BD02780B78401C491C7B
:102A2000002A09D09A4207D102780B78401C491C31
:102A3000002A01D09A42EFD0D01A70BD01010101E5
:102A400010B50C461107090F092904D00A290AD02C
:102A500008290CD104E011460820FFF783FF06E0A7
:102A6000510606D501E0510601D50120C0072146D7
:102A700010BDD10607D501010909CC084907000E90
:102A80000006044309E0410F20024907000A014300
:102A9000200E00061D22D14101430846E7E770B52C
:102AA0008C180578401C6B075B0F01D10378401C24
:102AB0002A1106D10278401C03E00678401C0E70F3
:102AC000491C5B1EF9D12B0705D40023521E0DD4DF
:102AD0000B70491CFAE70378401CCB1A921C03E0E8
:102AE0001D780D70491C5B1C521EF9D5A142D8D32C
:102AF000002070BD85B0049003A8018002A9FF20CA
:102B0000087001A90870FFE703AA1088411E118010
:102B1000002814D0FFE701A90878049A531C0493F5
:102B20001278504000900298009B094AD25C5040B5
:102B3000087000990748405C02A90870E4E702A801
:102B40000078000201A90978401805B07047C04616
:102B5000000020200001202081B000900099012079
:102B6000C2027F48885001B07047C04681B00090D3
:102B70000099924A9248885001B0704783B0029001
:102B80000191009202980199084300990843EA498B
:102B9000086003B07047C046E74800680721084056
:102BA0007047C04682B001900199881E001F00BF87
:102BB000FCD2009002B0704784B003900291019261
:102BC000039800680090009801998843009000984D
:102BD0000299019A114008430399086004B07047B4
:102BE00084B00390029101920398006800900098CD
:102BF00001998843009000980299019A1140084376
:102C00000399086004B0704784B003900291019268
:102C100003980068009000980199884300900098FC
:102C20000299019A114008430399086004B0704763
:102C300084B003900291019203980068009000987C
:102C400001998843009000980299019A1140084325
:102C50000399086004B0704784B003900291019218
:102C600003980068009000980199884300900098AC
:102C70000299019A114008430399086004B0704713
:102C800084B003900291019203980068009000982C
:102C900001998843009000980299019A11400843D5
:102CA0000399086004B0704781B00090009901203A
:102CB000C2022B48885001B07047C04681B00090D6
:102CC00000990120C2022648885001B07047C046D2
:102CD00010B584B0069C0390029101920093029873
:102CE000019908430099084306990843034908439A
:102CF00003998900074A885004B010BD8100040080
:102D000081B0009000988100024A0020885001B0F4
:102D10007047C0460480424081B000900099274A25
:102D20002748885001B0704781B000900099234A2D
:102D30002348885001B0704781B0009000991A4A2A
:102D4000885801231843885001B0704781B0009023
:102D500000990120C2020248885001B07047C04665
:102D60000100002680B582B00190009101981121E8
:102D700009024018009A1189538819439279114326
:102D8000084AFFF755FF019807494018009A9188B3
:102D9000D3791943127811435D229200FFF748FF5F
:102DA00002B080BD7F3300000411000081B00090AC
:102DB0000099024A0248885001B070470408000098
:102DC000030000B180B582B00190009101980449E0
:102DD00040180099034AFFF7EFFE02B080BDC046DD
:102DE00008110000FF03000082B0019000910098DC
:102DF00000780199044A885000984078019901228E
:102E00001203885002B070470410000080B584B0EF
:102E100000920A4601460098039102A90A7001AA8D
:102E200010700398044BC0180978127811433F22A0
:102E3000FFF7C2FE04B080BD0C11000080B584B065
:102E40000390029101920399029801430198014372
:102E50003F200204CE48FFF713FF04B080BDC046F8
:102E600080B586B0059000F087F8FFE700F0B8F86D
:102E7000012189030840884201D0FFE7F6E7059861
:102E8000417E2948039001220192FFF7F9FE05983F
:102E90002021415C254802900322FFF7F1FEFFF755
:102EA0007BFE01460198049100210422FFF766FE93
:102EB00002980599496A09681D4A11600599496A8D
:102EC00049681C4A116004991B4A11600599C96937
:102ED0004906490C7F221202FFF7D2FE0398059A99
:102EE00011680907090B53681B039BB2C918936843
:102EF0001B071B0DC918D36819431369194353697C
:102F00001943127E11430D4AFFF7BAFE00F05CF838
:102F1000FFE700F065F8012149020840884201D02E
:102F2000FFE7F6E706B080BD20010B4024010B400F
:102F300028010B402C010B400013404072FF0F0092
:102F40007049086801221207904308607047C04624
:102F50005F49086801229043086070475C4908682F
:102F60000122904308607047594908680122120203
:102F7000904308607047C046554908680122120214
:102F8000904308607047C0465E49086801221207F6
:102F9000104308607047C046A14908680122120327
:102FA000104308607047C046024908681022104369
:102FB000086070473C010B40454908680122120235
:102FC000104308607047C046414908680122120258
:102FD000104308607047C046034800687047C04609
:102FE000014800687047C04604020B4080B5FFF7F7
:102FF000F3FF012149060840400E80BD01480068EA
:103000007047C04650010B4081B0014668460170D0
:1030100000780249086001B07047C04608030B40C1
:1030200080B582B0019001991F2002065848FFF731
:10303000EBFD02B080BDC04680B582B0014601A85C
:10304000018001880F2002027548FFF7DDFD02B004
:1030500080BDC04680B582B0014601A801700078ED
:1030600001030F2002034A48FFF7CEFD02B080BDE6
:1030700080B586B005AB01931880049103A8029037
:103080000270FFF76BFF0198008800F023F80498A6
:1030900000F02EF802980E4A1168012319431160BE
:1030A0000078C00700280DD0FFE7FFF76DFFFFE7AE
:1030B000FFF796FF012109020840884201D0FFE78F
:1030C000F6E702E0FFF73CFFFFE706B080BDC04631
:1030D00008010B4080B582B0014601A8018001883B
:1030E000032002030748FFF7CBFD02B080BDC046B6
:1030F00080B582B0019001990248FF22FFF7C0FD20
:1031000002B080BD10010B4081B0014668460170DD
:1031100000780249086001B07047C0460C010B40BE
:1031200080B582B0019001990878C007C00D8978F8
:103130004118FF2204320B48FFF7A2FD0A490B4851
:10314000086001984078C007002806D0FFE70549CD
:103150000868102210430860FFE70349044808602C
:1031600002B080BD14010B4014030B40010000911C
:103170000200009180B582B0014601A8018001885B
:10318000012042020248FFF73FFD02B080BDC04669
:1031900038010B4080B582B0014601A8017001786A
:1031A00002480322FFF730FD02B080BD00010B4052
:1031B00080B582B0014601A801700178184830221C
:1031C000FFF722FD02B080BD014902480860704748
:1031D0002C030B400100000E80B582B0014601A80F
:1031E00001700078FFF790FFFFE7FFF7F9FE01217C
:1031F00049050840884201D0FFE7F6E7084908681A
:103200000122120410430860FFE7FFF7E9FE1021D6
:103210000840102801D0FFE7F7E702B080BDC046A4
:1032200004010B40094908680522104308607047F3
:1032300081B000900549042008600098401E0449B0
:10324000086004490020086001B0704710E000E009
:1032500014E000E018E000E081B000900099012047
:10326000C2029548885001B07047C04681B00090B6
:1032700000999A4A4F48885001B0704782B0019037
:10328000009100980199024A885002B07047C046E8
:103290004810000081B00090009911200202885867
:1032A00001239843885001B07047000082B001901C
:1032B0000091009B01990F4A88589843885002B0AA
:1032C0007047C04681B000900099112002028858D2
:1032D00001231843885001B07047000082B001906C
:1032E0000091009B0199034A88581843885002B006
:1032F0007047C0462810000081B00090009901205E
:10330000C2026D48885001B07047C04681B000903D
:103310000098812149014058C0B201B070470000B7
:1033200080B582B0019000910198FFF7B3FF01983A
:10333000112109024018009A118893781943928844
:103340001143084AFFF788FC01982D494018009A5C
:103350009179D3791943127A11437E22FFF77CFCCD
:1033600002B080BD1867020081B000900098474904
:1033700040580121084001B07047C04681B000901C
:1033800000984249405804210840800801B0704725
:1033900081B00090009802494058C0B201B0704717
:1033A0002411000081B0009000994C4A01488850D7
:1033B00001B07047030000B180B584B00390029162
:1033C000019203980B49401802990B4AFFF708FC39
:1033D00003980A49401801993F22FFF701FC03991D
:1033E000074A8818895801221140FFF7F9FB04B0F9
:1033F00080BDC04610110000FFFF00001411000046
:103400000411000082B001900091009800780199A9
:10341000044A88500098407801990122120388508C
:1034200002B070470810000080B582B00190009192
:10343000019811210902401800990322D203FFF7D5
:10344000CFFB02B080BD82B0019068460170007869
:10345000019989225201885002B0704782B00190D0
:103460000091009908784A781043498808430199E7
:10347000112212028850009948688968090408439B
:103480000199024A885002B07047C04608110000F6
:1034900081B0009000990120C2020748885001B015
:1034A0007047C04681B0009000990120C2020248D6
:1034B000885001B07047C0460100002681B00090DE
:1034C0000099064A0648885001B0704781B00090C4
:1034D0000099024A0248885001B070470408000071
:1034E000010000B180B584B003A90020087002A9D2
:1034F00008703B48006881214901405801900198BB
:10350000002830D0FFE70198411E03A80170007821
:103510000F280EDCFFE7324800683249405803A903
:1035200009780907C90EC8400321084002A908709C
:103530000EE02B4800689D214901405803A90978F5
:103540000907C90EC8400321084002A90870FFE717
:1035500003A8007883002448C25802A800782349B1
:10356000C95890473AE01E484068812149014058B7
:1035700001900198002830D0FFE70198411E03A870
:10358000017000780F280EDCFFE7154840681549E8
:10359000405803A909780907C90EC840032108400B
:1035A00002A908700EE00E4840689D21490140586C
:1035B00003A909780907C90EC8400321084002A9D8
:1035C0000870FFE703A8007883000748C25802A8E4
:1035D00000780649C9589047FFE7FFE704B080BD6F
:1035E00080022020901300000002202018042020D8
:1035F000B0B58AB009A90291002008700B78581C58
:10360000087004A80190AA22C2540B785A1C0A70B0
:103610000622C2540B785A1C0A700122C2540B783D
:103620005C1C0C70C2540B785C1C0C70C254097882
:10363000FFF760FA01990346029803AA1380039BDF
:103640000478651C05700B55527803785C1C047077
:10365000CA540278032003F0E7FC0AB0B0BD0000B2
:1036600080B58AB009A908706048007806900328E0
:1036700000D9B5E00698810001A040588746C046B1
:1036800091360000B7360000E13600000B3700002D
:1036900009A800780A280DD1FFE7554B00201870C3
:1036A00009981A78511C1970524988544F490120C1
:1036B0000870FFE798E009A8007803280BD1FFE71E
:1036C00009984B4B1A78511C19704A49885447493C
:1036D0000220087003E0454900200870FFE783E0FE
:1036E00009A8007804280BD1FFE70998404B1A7805
:1036F000511C19703F4988543C490320087003E06D
:103700003A4900200870FFE76EE0099938480378CD
:103710005A1C0270374AD154007809285FDBFFE752
:10372000344805900721FFF7E5F9059A014608A8F6
:103730000180D179127A12028A1807A90A800088BA
:103740000988884242D1FFE72A4AD07800021179DD
:103750004118A64801805179090292798918A64A30
:103760000192118000210091405EFDF795FDA04976
:10377000029103F03BFE0099024601989D4B1A60AE
:10378000405EFDF789FD029903F030FE01469B483B
:10379000016000689A49096803F080FE0146994873
:1037A000016000687249049109680391124903F0AD
:1037B0001DFE039903F0AAFD049908608A490120BF
:1037C00008706D490868401C086004E06B4908688F
:1037D000401C0860FFE7054900200870FFE703E090
:1037E000024900200870FFE70AB080BD5203202084
:1037F00051032020480320200AD7233C80B5A0B0E5
:103800001FA9088000201D901CA90880FFE7032045
:1038100019A903F019FB012801D1FFE7F7E7724965
:1038200000200870C8211A911890FFE76E480178AF
:103830000020002907900DD1FFE718993B4A01208D
:10384000002305939142069001D3059806900698AF
:103850000790FFE70798C007002806D0FFE700F0B1
:10386000D3F81898401C1890E0E75F4800780028CB
:1038700006D1FFE73F49002008706149086053E026
:103880005949002008701D901CA90880FFE71CA85A
:1038900000881A99884217D2FFE700F0B5F800F0C7
:1038A0006FF801461BA80170007800280BD0FFE7D5
:1038B000524801681D9803F029FD1D901C98401C7A
:1038C0001CA90880FFE7E2E71CA8008801280DDB9F
:1038D000FFE71D9804901CA80088FDF7E5FC014651
:1038E0000498FDF7DFFB4649086003E044490020E7
:1038F0000860FFE71F490120039008701C49002061
:1039000008603F480068FDF7A3FB02460B461CA871
:1039100000880090064908A80290FCF7E7FC02998D
:10392000039803F0CFFBFFE720B080BD20A1070084
:103930004D80000080B5642003F084F9FFF758FE45
:10394000322003F07FF92B49002008602D490860E0
:103950002A49086006490860294908600549087035
:1039600039490860044908600449086080BDC046C0
:10397000D8042020C0042020D4042020D0042020FB
:1039800080B584B018480078002824D0FFE7164896
:103990000021019101701548405EFDF77DFC14493E
:1039A000029103F023FD0199124A10601248405E13
:1039B000FDF772FC029903F019FD01460F48016002
:1039C00000680F49096803F069FD0E49086003A902
:1039D0000120087003E003A900200870FFE703A896
:1039E000007804B080BDC046B4042020B00420207C
:1039F000CDCCCC3DB8042020B2042020C804202027
:103A0000BC042020C404202080B582B0FFE703203E
:103A100001A903F019FA012805D1FFE701A80078F0
:103A200000F004F8F3E702B080BD000080B582B07A
:103A3000014601A80170044A1168491C1160007810
:103A4000FFF70EFE02B080BDCC04202010B583B07D
:103A5000029001916846028040780299019C227888
:103A6000531C2370885400980299019C2278531C9F
:103A70002370885403B010BDB0B58AB009A9029173
:103A800000220A700C78601C087004A801900A23B8
:103A900003550C78631C0B70062303550B785C1CD4
:103AA0000C70C2540C78631C0B70082303550B7800
:103AB0005C1C0C70C2540B785A1C0A700122C25450
:103AC0000978FFF717F801990346029803AA1380B3
:103AD000039B0478651C05700B55527803785C1CB9
:103AE0000470CA540278022003F09EFA0AB0B0BDF6
:103AF000B0B592B001920446019811AA148010AC9E
:103B0000029421800FA9039108800EA804900380DD
:103B10000DA9069100230B7011982C4C2080109851
:103B200060800F98A0800E98E0800D78681C087067
:103B300008A805900A2444550D786C1C0C701024BC
:103B400044550C78651C0D7003550C78651C0D7080
:103B500003550C78651C0D7003550C78631C0B70B5
:103B6000042303550C78631C0B700823035512883B
:103B7000FFF76CFF029A069905981288FFF766FF17
:103B8000039A069905981288FFF760FF049A069930
:103B900005981288FFF75AFF069905980978FEF7ED
:103BA000A9FF05990346069807AA1380079B047886
:103BB000651C05700B55527803785C1C0470CA5460
:103BC0000278022003F030FA12B0B0BDE2042020E7
:103BD00080B50023184619461A46FFF789FF80BDB5
:103BE00080B582B0FFF748FF3220019003F02AF839
:103BF000FFF7EEFF019803F025F802B080BD80B515
:103C000082B00920FFF77CF80A20FFF779F8072037
:103C1000FFF776F80820FFF773F8002100910120E4
:103C20000204C3042720FFF753F802B080BD000050
:103C300080B586B005A9002001900870FFF7F0F963
:103C40000198012211059204FFF7F8F8FFF7BCFA7A
:103C5000FFE7FFF7CBF9002801D1FFE7F9E7FFF70E
:103C6000CDF903900120010542040020FFF7E6F89A
:103C7000FFF7AAFAFFE7FFF7B9F9002801D1FFE73C
:103C8000F9E7FFF7BBF9049003997D20C000484392
:103C90000499FCF7CDFB02900298FDF7B2F80022E0
:103CA0000D4B03F078FA00280FD1FFE70298FDF7DB
:103CB000A8F80022D243094B03F062FA002804D18D
:103CC000FFE705A901200870FFE705A8007801219A
:103CD000084006B080BDC04600289F40FF579F4067
:103CE00080B582B000200090FFF78EF9012001908E
:103CF0004002FFF7A1F90098FFF74CFAFFF728F907
:103D0000FFF732F9019A032000030A21FFF7B0F907
:103D10001648FFF7A5F8FFE7FFF78AFF00280FD145
:103D2000FFE7FFF721F9FFF747F9FFE7FFF754F93E
:103D3000012149020840884201D0FFE7F6E7EBE79E
:103D40001020FFF735FA0920FFF784F90848FFF73C
:103D5000E7F9FFF721F9FFF727F901204002FFF704
:103D600009FA0020FFF738FA02B080BD647F000036
:103D7000607F000080B55020FFF75AFAFFF752FA33
:103D800080BD000080B502491848FFF767FB80BD81
:103D90008C7F000080B500F009F8FFF730FFFFF7D7
:103DA0009FFFFFF7EFFFFFF7E5FF80BD80B584B011
:103DB0000C480190FEF7B8FF0B480290FEF7B4FFE5
:103DC0000A480390FFF782FB0198FEF777FF0298FD
:103DD000FEF774FF0398FFF765FB1020FEF7E2FE85
:103DE00004B080BD00000A4000200A4000000340EB
:103DF00080B51B4802681B4801680020904780BDC1
:103E000080B517484268174841680020904780BD38
:103E100080B513488268134881680020904780BDB0
:103E200080B50F4882690F4881690020904780BDA6
:103E300080B50B48C2680B48C1680020904780BD20
:103E400080B507480269074801690020904780BD96
:103E500080B503484269034841690020904780BD0E
:103E6000EC0420209802202080B582B01148FFF792
:103E70004DFA014601910B280BD0FFE701980C2861
:103E800010D1FFE74A4802684A480168022090477B
:103E900009E047480268474801680120904700F060
:103EA000E5FA00E0FFE7044801680248FFF7E6F999
:103EB00002B080BD008010403090104080B582B0CC
:103EC0001248FFF723FA014601910B280BD0FFE7B8
:103ED00001980C2811D1FFE7354842683548416800
:103EE000022090470AE03248426832484168012087
:103EF000904707480068804700E0FFE705480168F1
:103F00000248FFF7BBF902B080BDC0460000104078
:103F1000E00220203010104080B582B01048FFF73A
:103F2000F5F9014601910B280BD0FFE701980C2809
:103F30000ED1FFE71E4882681E4881680220904724
:103F400007E01B4882681B4881680120904700E019
:103F5000FFE7044801680248FFF790F902B080BD0E
:103F6000002010403030104080B582B0FA48FFF792
:103F7000CDF9014601910B280BD0FFE701980C28E1
:103F80000ED1FFE70A48C2680A48C168022090477C
:103F900007E00748C2680748C1680120904700E071
:103FA000FFE705480168EC48FFF768F902B080BDFB
:103FB000BC022020180520203010504081B001465E
:103FC000684601700021405600280DD4FFE768467E
:103FD00001781F2001400120884004490860BFF398
:103FE0004F8FBFF36F8FFFE701B0704780E100E0B4
:103FF00081B001466846017000214056002809D46E
:10400000FFE7684601781F200140012088400249EF
:104010000860FFE701B0704700E100E070B582B0D2
:10402000024601A80270009100214056002816D4D3
:10403000FFE7002401A908570322D3431840174A79
:10404000805809578C07E50EFF24AC40A043009C24
:10405000A401E4B2AC402043194088501AE001A901
:1040600008780F24204008380322D34318400A4A16
:104070008058002549578D07EE0EFF25B540A8430F
:10408000009DAD01EDB2B5402843214008391940EB
:104090008850FFE702B070BD1CED00E000E400E0D6
:1040A00081B0009001B0704710B58AB009AC2070A3
:1040B00008A8017007A90A7006A90B7000781028DB
:1040C0000AD1FFE708A8017806A80078014001207E
:1040D0001029029014D0FFE708A8017800200029D9
:1040E00001900AD1FFE708A8007806A909780840DE
:1040F0001038411E88410190FFE701980290FFE7C8
:104100000298012108403A49E72200F02FF909A856
:104110000178490905AA117000781F21084004A9F7
:10412000087007A800780390039832490843039069
:1041300006A80078401E009013284BD800988100F4
:1041400001A040588746C046994100009F410000A9
:10415000A1410000AD410000D5410000D541000063
:10416000D5410000D5410000D5410000D5410000F7
:10417000D5410000D5410000D5410000D5410000E7
:10418000D5410000D5410000B9410000BB4100000D
:10419000C7410000C9410000002003901AE019E067
:1041A0000398012109040843039013E003980121B7
:1041B0004904084303900DE00CE0039801214906EF
:1041C0000843039006E005E00398012149060843EF
:1041D0000390FFE7039805A90978490104AA12781A
:1041E0008A180549895C8900044A88500AB010BDC4
:1041F0005882000080000400987F00000480424044
:1042000080B582B0019000F00BF8FFF7C3FD01F01C
:10421000D3F802F015FD00F015FF02B080BD0000DC
:1042200080B592B040480090FEF776FD3F4801907F
:10423000FEF772FD0098FEF737FD0198FEF734FD9A
:104240003B480290FFF712F83A480390FFF70EF848
:104250000298FFF701F80398FEF7FEFF3648049036
:10426000FFF704F835480590FFF700F8344806904A
:10427000FEF7FCFF33480790FEF7F8FF324808903E
:10428000FEF7F4FF0498FEF7E7FF0598FEF7E4FF5A
:104290000698FEF7E1FF0798FEF7DEFF0898FEF7A5
:1042A000DBFF2A480990FFF77DF829480A90FFF7BD
:1042B00079F828480B90FFF775F827480C90FFF71E
:1042C00071F80998FFF718F80A98FFF715F80B9896
:1042D000FFF712F80C98FFF70FF820480D90FEF743
:1042E00065FD1F480E90FEF761FD0D98FEF72EFD4F
:1042F0000E98FEF72BFD012080070F90FEF736FC8D
:1043000018481090FEF732FC0F98FEF725FC109825
:10431000FEF722FC14481190FFF7D0F81198FFF730
:10432000B7F812B080BDC04600000A4000200A4025
:104330000000864000208640004008400080864003
:1043400000A0864000000940000087400080104027
:104350000000104000201040000050400080464007
:1043600000A04640002000400000034080B584B01B
:1043700003AB187002910192FFE703A800780028B0
:1043800005D1FFE710480078002801D1FFE718E0C9
:104390000E480078002802D0FFE7FFE7FEE70B4950
:1043A0000878401C087000F0F7FF00F051FAFFE7B2
:1043B0000299019A0648002300F06AF800F00AF812
:1043C000F6E704B080BDC046E4022020A803202008
:1043D000DB81000082B00020019000900190FFE797
:1043E0000198FF2813D8FFE700200090FFE700980E
:1043F000000C002806D1FFE700BFFFE70098401C33
:104400000090F4E7FFE70198401C0190E8E702B054
:104410007047000080B588B003A8019000F0FEF955
:1044200001980E49059100F0D5F9E12041020020E4
:1044300002900B4A0B4B02F077FC029913480A4A90
:10444000402300F069FA0298042102F029FD0F20B0
:10445000012100F0B2FF08B080BDC0465348000003
:104460000A2000000B200000C003202080B582B08D
:1044700005490191002002F0E7FC0199034801225F
:1044800000F092FA02B080BD000420200104202038
:1044900070B5FFB0A5B0A390A291A192A0939EA9E0
:1044A000002008809DA908809CA9099108809BA9EB
:1044B00008809AA90880A298FBF72EFF0999088026
:1044C000D4480088002804D0FFE7D248006980471C
:1044D000FFE7D1480078002800D16DE1CD48008881
:1044E000002800D145E1CB480890C3689AAA1188FA
:1044F000481C1080A39A00209847A2989F90A298E9
:10450000FBF70AFF08999CAA108048888979FBF775
:104510008FFF9BA90880FFE79F98411C9F91002176
:104520004056002801D0FFE7F6E79DA9002008804B
:10453000FFE79DA801880020012907900DDCFFE717
:10454000002105919CA8415E01200029069001DA16
:104550000598069006980790FFE70798C00700287F
:104560001AD0FFE79F98401E9F909F9800214056C9
:104570002F2806D0FFE79F98002140565C2805D1E0
:10458000FFE79D98401C9DA90880FFE7FFE79C98E6
:10459000401E9CA90880CCE700219CA8405E002812
:1045A00009D4FFE79F98401C9F909F9A86495AA87C
:1045B000FBF79CFE11E09DA80088002806D1FFE7CC
:1045C0009F9A82495AA8FBF791FE05E09F9A7E497F
:1045D0005AA8FBF78BFEFFE7FFE79EA900200880A3
:1045E000FFE79EA8008804905AA8FBF795FE0022DA
:1045F0009BA9895EFBF71CFF01460498491C884271
:1046000045D2FFE79DA900200880FFE79DA800880C
:1046100000229BA9895E884224DAFFE75AA8FBF7AB
:104620007BFE9DA909889EAA138800249BAA125F7D
:104630005A438918884201D2FFE713E09DA90888F0
:104640009EAA138800249BAA125F5A4382185AA874
:10465000805C0A884AA98854FFE79D98401C9DA960
:104660000880D3E79DA801884AAA002050546949D0
:10467000CB68CC799A994D1C9AAE3580614389B24A
:104680009847FFE79E98401C9EA90880A9E7A19A39
:104690004F495AA80390FBF729FE039A5D48C36867
:1046A000C1799A98441C9AAD2C80484381B200206D
:1046B0009847A09800285BD0FFE79EA900200880BB
:1046C000FFE79EA800880290A098FBF725FE002235
:1046D0009BA9895EFBF7ACFE01460298491C884203
:1046E00045D2FFE79DA900200880FFE79DA800882C
:1046F00000229BA9895E884224DAFFE7A098FBF795
:104700000BFE9DA909889EAA138800249BAA125F0C
:104710005A438918884201D2FFE713E0A0989DA967
:104720000A889EAB1C8800259BAB5B5F6343D21855
:10473000805C0A884AA98854FFE79D98401C9DA97F
:104740000880D3E79DA801884AAA00205054314927
:10475000CB68CC799A994D1C9AAE3580614389B269
:104760009847FFE79E98401C9EA90880A9E7FFE7AD
:1047700021E0012001020AA8FBF756FE25488168C6
:10478000A3988847A098002809D0FFE7A29AA19B88
:10479000A09800900B490AA8FBF7A8FD06E0A29A92
:1047A000A19B07490AA8FBF7A1FDFFE7194881680B
:1047B0000AA88847FFE7FFE77FB025B070BDC04675
:1047C00098810000AD810000E8810000F1810000C7
:1047D000C681000081B00090009800880D490880D3
:1047E0000098408848800098808888800098807968
:1047F00088710098C079C8710098806888600098B6
:10480000C068C86000980069086103490120087009
:1048100001B07047AC0320202C05202081B000900F
:10482000009900200880009A08495180009A9180E0
:10483000009AFF219171009AD171009988600099C6
:10484000C8600099086101B07047C046FFFF0000D2
:10485000704780B582B001900199002002F032FCCF
:1048600002B080BD82B00190009102B0704710B5D7
:1048700085B004900391039A049902918B79C879C9
:104880000002C318087A0404487A00060019C01808
:104890008018020E4A72020C0A728871000AC871EE
:1048A000FFE7049901918A7CC87C00028218087D88
:1048B0000304487D0006C01880188B79CA7912025B
:1048C000D2180B7A1B04497A0906C918891888423C
:1048D0001FD8FFE7049900918A7CC87C00028218E7
:1048E000087D0304487D0006C01882188B79C879BA
:1048F0000002C318087A0404487A00060019C01898
:10490000801A020E4A72020C0A728871000AC8717B
:10491000C7E705B010BD000010B586B0059004A82B
:104920000170039202930598411E88411C491D4A5B
:10493000FFF71CFD01A900200870FFE70398059907
:10494000020E4A71020C0A718870000AC87005993B
:104950000020009008700499059A517005994872DA
:104960000872C8718871059948730873C872887293
:1049700002980599020E4A74020C0A748873000AA0
:10498000C87302980599020E4A75020C0A7588745C
:10499000000AC874FFE701A8007806B010BDC04641
:1049A000FE8100002202000010B592B0119010911B
:1049B0000F921198411E8841E449B022FFF7D6FCBE
:1049C0000EA9002008700D90FFE71098002804D170
:1049D000FFE70EA903200870B3E1119800780521C4
:1049E000084204D0FFE70EA904200870A9E111993C
:1049F00008780422104308700F9811998B7BCA7BAA
:104A00001202D2180B7C1B04497C0906C9188918AC
:104A1000884200D98BE111990C918A7CC87C0002F4
:104A20008218087D0304487D0006C01880188B7921
:104A3000CA791202D2180B7A1B04497A0906C918DE
:104A40008918401A0D900F980D99884200D8E5E01A
:104A5000119840780B90002809D0FFE70B980128A7
:104A600049D0FFE70B98022800D18DE0D5E01199DD
:104A700009918A78C8780002821808790304487975
:104A80000006C01880188B79CA791202D2180B7AE6
:104A90001B04497A0906C9188918401810990D9AFB
:104AA000FBF75CFC11980D99FFF7E1FE11990A9153
:104AB0008A78C878000282180879030448790006C9
:104AC000C01880188B79CA791202D2180B7A1B048D
:104AD000497A0906C9188918401810990D9BC918F8
:104AE0000F9AD21AFBF73AFC11980F990D9A891A6E
:104AF000FFF7BDFE91E0119907918A78C87800020E
:104B000082180879030448790006C01880188B7948
:104B1000CA791202D2180B7A1B04497A0906C918FD
:104B200089184900401810990D9A5200FBF716FC9D
:104B300011980D99FFF79BFE119908918A78C87812
:104B4000000282180879030448790006C01880180A
:104B50008B79CA791202D2180B7A1B04497A09069A
:104B6000C91889184900401810990D9B5A008918D6
:104B70000F9AD21A5200FBF7F1FB11980F990D9A78
:104B8000891AFFF774FE48E0119905918A78C87870
:104B9000000282180879030448790006C0188018BA
:104BA0008B79CA791202D2180B7A1B04497A09064A
:104BB000C91889188900401810990D9A9200FBF7BE
:104BC000CDFB11980D99FFF752FE119906918A7845
:104BD000C878000282180879030448790006C018D2
:104BE00080188B79CA791202D2180B7A1B04497A81
:104BF0000906C91889188900401810990D9B9A0058
:104C000089180F9AD21A9200FBF72EFB11980F9970
:104C10000D9A891AFFF72BFEFFE772E01198407892
:104C20000490002808D0FFE70498012824D0FFE76B
:104C30000498022842D063E0119903918A78C878D9
:104C4000000282180879030448790006C018801809
:104C50008B79CA791202D2180B7A1B04497A090699
:104C6000C9188918401810990F9AFBF777FB11980B
:104C70000F99FFF7FCFD43E0119902918A78C878FB
:104C8000000282180879030448790006C0188018C9
:104C90008B79CA791202D2180B7A1B04497A090659
:104CA000C91889184900401810990F9A5200FBF74B
:104CB00055FB11980F99FFF7DAFD21E01199019149
:104CC0008A78C878000282180879030448790006B7
:104CD000C01880188B79CA791202D2180B7A1B047B
:104CE000497A0906C91889188900401810990F9A3D
:104CF0009200FBF733FB11980F99FFF7B8FDFFE720
:104D0000FFE70F9A119900918B7BC87B0002C318B3
:104D1000087C0404487C00060019C018801A020EA2
:104D20004A74020C0A748873000AC87303E00EA95F
:104D300005200870FFE711990878FB2210400870E1
:104D4000FFE70EA8007812B010BDC046FE8100003B
:104D500080B582B00190009106480078002806D006
:104D6000FFE701A80178002002F08EF9FFE7019823
:104D700002B080BD2C05202080B58AB00990089132
:104D80000998411E88412F499F22FFF7EFFA03A996
:104D9000002008700290FFE70998002801D1FFE782
:104DA0004DE00898002809D5FFE70999481C0990AB
:104DB0002D20087008984042089008E008980028C4
:104DC00004D1FFE709993020087038E0FFE7FFE7DA
:104DD000089800281DD0FFE708980A21FBF732FB4E
:104DE00002910298002803D4FFE70298019003E0A3
:104DF000029840420190FFE7019803AB1A78511CDA
:104E0000197004A9885408980A21FBF71BFB089025
:104E1000DEE7FFE703A8007800280FD0FFE703A92B
:104E2000087804AA8018401E00783030099A531C74
:104E3000099310700398401E0870EBE7FFE70AB073
:104E400080BDC0462982000083B002A9087008789E
:104E5000420901A802700A781F210A4069460A70B7
:104E6000007882009D4880582722D2018058097816
:104E7000C8400121084003B07047C04610B58AB051
:104E800009AC207008A8017007A90A7006A90B7068
:104E9000007810280AD1FFE708A8017806A8007852
:104EA000014001201029029014D0FFE708A80178E2
:104EB0000020002901900AD1FFE708A8007806A980
:104EC000097808401038411E88410190FFE7019899
:104ED0000290FFE70298012108405249B522FFF7EE
:104EE00045FA09A80178490905AA117000781F211F
:104EF000084004A908700020039003984A49084319
:104F0000039006A80078401E009013284FD8009800
:104F1000810001A040588746694F00006F4F000094
:104F2000794F0000834F0000AF4F0000AF4F0000EB
:104F3000AF4F0000AF4F0000AF4F0000AF4F000079
:104F4000AF4F0000AF4F0000AF4F0000AF4F000069
:104F5000AF4F0000AF4F00008D4F0000974F000093
:104F6000A14F0000A34F0000002003901FE0039812
:104F70000121084303901AE003982E490843039047
:104F800015E003982A490843039010E00398012193
:104F9000084303900BE0039824490843039006E07C
:104FA00005E003980121490608430390FFE70398B1
:104FB00005A90978490104AA12788A181E49895C52
:104FC00089001E4A885008A80078102812D1FFE7EF
:104FD00004A801780120884005A909788A003F4982
:104FE0008958174A885009A8007807A9097800F05D
:104FF00043F8FFE706A80078032806D1FFE709A8D1
:105000000078002100F038F8FFE706A800780428AF
:1050100006D1FFE709A80078012100F02DF8FFE78D
:105020000AB010BD58820000800004000100000298
:105030000100020001000100987F0000048042404E
:10504000D012000080B584B010210191002202929C
:10505000112303931046FFF711FF0199029A039B56
:105060000120FFF70BFF0199029A039B0E20FFF727
:1050700005FF04B080BD000084B00A4603A9087093
:1050800002A802700A78520901AB1A7009781F222F
:1050900011406A461170007800280ED0FFE768467C
:1050A00000780123834001A8007881000B48415813
:1050B0000B4A8858184388500EE068460078012350
:1050C000834001A80078810004484158952042019E
:1050D000885818438850FFE704B0704780022020AA
:1050E0009012000080B582B09B490120087001A990
:1050F00000200870FFE701A80078072811DCFFE70F
:1051000001A801786248405C3C2804D1FFE792493D
:1051100000200870FFE7FFE70198401C01A9087014
:10512000E9E78D480078002804D1FFE71048FBF735
:10513000CFF81BE001A900200870FFE701A8007864
:1051400007280FDCFFE701A801785148405C0021E7
:1051500001220423FFF792FEFFE70198401C01A9FA
:105160000870EBE70348FBF7B3F8FFE702B080BD38
:105170000A800000F37F000081B00146684601808C
:105180000021405E242804DBFFE7694623200880D5
:105190000AE000216846405E002804D5FFE7694622
:1051A00000200880FFE7FFE700216846405E01B06D
:1051B0007047000080B586B004A90020088003A9CC
:1051C000088065480078002807D1FFE72E490120B4
:1051D000087062490020088054E005A9002008708A
:1051E000FFE705A8007807282CDCFFE705A8029058
:1051F00001782748405CFFF727FE029902460B78AA
:105200002448C2540B78C05C421E5042424122489E
:10521000C2540978405C00280ED0FFE705A800784A
:1052200041001E48415A0498401804A90880039878
:10523000401C03A90880FFE7FFE70598401C05A96B
:105240000870CEE7002103A8405E012812DBFFE7CB
:105250000022019204A8805E03A9895EFBF7F2F8A0
:10526000024601983D490A800988084A118006498A
:10527000087007E005480088384908800249012085
:105280000870FFE706B080BD880220209A04202025
:10529000D47F00009E042020A7042020DC7F000093
:1052A00080B58CB0FFF786FF2B480078002803D12B
:1052B000FFE7FEF78DFC4CE028480188284A138858
:1052C000C91A0AAB00931980018811800021069148
:1052D000405EFBF78EFD0246009801920A46069951
:1052E0000292405EFBF785FD0246019803920A4652
:1052F000029904921B4A1C4BFBF786FD039A049B00
:10530000FBF7CCFAFBF71EFD06990BAA10800B9A4F
:10531000143209A8059002800B9B1422D21A08AB04
:1053200007931A80405EFFF727FF059B0699024608
:1053300007981A80405EFFF71FFF069A01460798FC
:105340000180805E099949420BB21146FEF7D0FBFD
:10535000FFE70CB080BDC046A604202098042020A2
:105360009C042020CDCCCCCCCCCCFC3F80B582B0F2
:10537000014601A8017000214056FEF71FFE02B051
:1053800080BD80B582B0014601A801700021405661
:10539000FEF72EFE02B080BD06480068002802D14C
:1053A000FFE772B6FFE703480168491C0160006827
:1053B0007047C046DC042020704780B582B00A46A2
:1053C000014601A8017069460A70002280560978DA
:1053D000FEF724FE02B080BDD0B502AF88B06E46A5
:1053E000F11D0931B160644800886A46CA60420014
:1053F000D31D072293436A46D21AF260954688600D
:10540000F11D0D3100200880F11D093108803C4854
:105410000078002812D1FFE73A4800781F220146A1
:10542000114001238B40C1081C20014036484158DF
:1054300095204201885818438850FFE74E4800885D
:10544000411E4E480088401E8AB283B2002171601E
:10545000084600F06BFA7068F11D0D310880FFE717
:10546000F01D0D30008844490988884210DAFFE7B2
:10547000F16826480088F21D0D32128852008852C9
:10548000FFE7B0684068401CF11D0D310880E7E778
:10549000F11D093100200880FFE7F01D0930008868
:1054A0003649098888420DDAFFE7F06832490988F1
:1054B00000F040FDFFE7B0680068401CF11D0931B5
:1054C0000880EAE7F4480078002811D1FFE7F548A2
:1054D00000781F220146114001238B40C1081C2087
:1054E0000140F5484158F54A885818438850FFE76D
:1054F000B068C0688546FE1F013EB546D0BDC046B7
:10550000E104202095022020800220208A02202011
:1055100080B588B003A80190FFF780F901990120B8
:1055200008801548008848801448008888801448FE
:1055300000780290002808D0FFE7029801280AD0DE
:10554000FFE7029802280CD00CE003A9062088711E
:105550000820C87106E003A9082088711020C871CE
:1055600000E0FFE7074806900748079003A8FFF709
:1055700031F908B080BDC046900220209202202060
:105580008C0220202D5E0000D9530000B0B59CB0E5
:1055900001461BA801700078002830D1FFE7BE4803
:1055A000002117910170BD4A169207201070BC4A65
:1055B0000D201070BB4A189208201070BA48029053
:1055C0000190BA480090BA4ABA4B084601F0C4F9B3
:1055D000179A0F201021199111231A93FFF74EFCEF
:1055E0001698179A19991A9B0078FFF747FC189894
:1055F00019991A9B00780122FFF740FC00E0FFE7B1
:10560000C948007800F06EF9B4480088B4490988A8
:1056100000F056F9A148129000781F250146294054
:10562000012313938B40C1081C2014900140A24811
:1056300015904158952042018858184388500520FC
:1056400001F000FB1299139B149A159809780C46E7
:105650002C40A340C90811404158984A8858184323
:105660008850782001F0EEFA8B480078002812D19B
:10567000FFE78C4800781F220146114001238B4030
:10568000C1081C2001408C4841589520420188588F
:1056900018438850FFE7112000F070FC782001F0DB
:1056A000D1FA362000F06AFC9F4800781190032858
:1056B0001CD81198810001A040588746CD560000A3
:1056C000D5560000DD560000E5560000002000F031
:1056D00043FC0BE0C02000F03FFC07E0702000F02E
:1056E0003BFC03E0A02000F037FCFFE73A2000F08D
:1056F00045FC0520049000F02FFCB22000F03EFC99
:105700000C20039000F028FC039800F025FC0020FA
:1057100000F022FC3320099000F01EFC099800F0F4
:105720001BFCB72000F02AFC352000F015FCBB2044
:1057300000F024FC2920109000F00EFCC22000F0A4
:105740001DFC012000F008FCC32000F017FC19200C
:1057500000F002FCC42000F011FC202000F0FCFB53
:10576000C52000F00BFC1A2000F0F6FBC62000F06C
:1057700005FC1F2000F0F0FBD020059000F0FEFBA0
:10578000A42000F0E9FBA12000F0E6FBE02000F0FF
:10579000F5FB059800F0E0FB0820069000F0DCFB2C
:1057A0000E20079000F0D8FB0920089000F0D4FBF1
:1057B000089800F0D1FB049800F0CEFB31200E9049
:1057C00000F0CAFB099800F0C7FB48200A9000F0DF
:1057D000C3FB17200B9000F0BFFB14200C9000F0CF
:1057E000BBFB15200D9000F0B7FB0E9800F0B4FB4A
:1057F00034200F9000F0B0FBE12000F0BFFB0598D3
:1058000000F0AAFB069800F0A7FB079800F0A4FBA5
:10581000089800F0A1FB089800F09EFB0D9800F09E
:105820009BFB0E9800F098FB099800F095FB0A98F6
:1058300000F092FB0B9800F08FFB0C9800F08CFBB3
:105840000D9800F089FB0E9800F086FB0F9800F091
:1058500083FB212000F092FB109800F08FFB0E4894
:105860000078002811D1FFE70E4800781F2201467A
:10587000114001238B40C1081C2001400E484158B3
:105880000E4A885818438850FFE7FFF7A5FDFFF739
:105890003FFE1CB0B0BDC046E1042020960220208F
:1058A0009402202095022020FFFF0F000930000005
:1058B00080C3C9010C30000080022020901200003B
:1058C00082B001AA108068460180019803490880CF
:1058D00000980349088002B07047C0468E0220201D
:1058E0008A02202082B001A9087001990E48017037
:1058F00000780090022805D3FFE70098801E022858
:1059000008D30FE0F549F0200880F6490520800112
:10591000088007E0F149052080010880F149F02066
:105920000880FFE702B07047E004202010B592B075
:10593000044611A80690048010AC079421800FA99A
:1059400008910A800EA909910B800188E3480A900A
:10595000028801200B9000230C9391420D9001DBF3
:105960000C980D900D98DE4903912722D200FEF786
:10597000FDFC07990B980988DA4A04921288914233
:10598000059001DB0C98059003990598FF22019280
:105990003A32FEF7EBFC08990A9A0B9809881288AC
:1059A0009142029001DB0C980290039902989D228B
:1059B0005200FEF7DBFC0999049A0B9809881288BB
:1059C0009142009001DB0C9800900399019A009895
:1059D0003C32FEF7CBFC2A2000F0D0FA0698008873
:1059E00000F096FA0898008800F092FA2B2000F058
:1059F000C5FA0798008800F08BFA0998008800F033
:105A000087FA2C2000F0BAFA12B010BDB0B5E8B099
:105A1000034667A8038066AB0493198065A90A70E2
:105A20000188FC48028801200590002306939142DA
:105A3000079001DB069807900798F7490291932297
:105A40009200FEF793FC049905980988F44A12889D
:105A50009142039001DB0698039002990398A24AB1
:105A6000FEF784FC069864A9087063A908709F4833
:105A70000078002812D1FFE79D4800781F220146D8
:105A8000114001238B40C1081C2001409948415816
:105A900095204201885818438850FFE796480078BF
:105AA0000190002809D0FFE70198012863D0FFE7A3
:105AB0000198022800D1F8E0F8E067A8008866A9FC
:105AC0000988421DCB1D92B29BB2FFF72FFF64A93C
:105AD00000200870FFE764A80078052846DCFFE78F
