:020000040000FA
:10000000080220206D010000710100007301000052
:1000100000000000000000000000000000000000E0
:10002000000000000000000000000000750100005A
:10003000000000000000000077010000D50600006D
:100040007B0100007B0100007B0100007B010000C0
:100050007B0100007B0100007B0100007B010000B0
:10006000000000007B0100007B0100000000000098
:10007000000000007B0100007B0100007B0100000C
:100080007B0100007B0100007B0100007B01000080
:100090007B0100007B010000000000000000000068
:1000A0007B0100007B010000000000000000000058
:1000B0007B010000000000007B0100007B010000CC
:1000C00000F002F800F042F812A030C808382418F6
:1000D0002D18AC4201D100F039F80FCCA246AB4646
:1000E0000CA730CF2D1B083F3F197C427F1E544484
:1000F0002D090426F441641EAC4201D300F026F819
:100100000126334200D0FB1A3343984754465D46DC
:10011000DFE7000074060000840600000000000015
:100120007047000000000000002300240025002686
:10013000103A01D378C1FBD8520700D330C100D5A3
:100140000B6070471FB51FBD10B510BD00F027F83C
:100150001146FFF7F7FF00F0C5FA00F03FF803B4CF
:10016000FFF7F2FF03BC00F045F800000648004727
:10017000FEE7FEE7FEE7FEE7FEE7FEE70348044989
:10018000024A044B70470000C10000000801202013
:1001900008022020080120207047704770477546EC
:1001A00000F024F8AE46050069465346C008C0007A
:1001B000854618B020B5FFF7E1FF60BCB6460026C3
:1001C0000027C0C5C0C5C0C5C0C5C0C5C0C5C0C565
:1001D000C0C5403D490849008D46704710B50446EA
:1001E000C046C0462046FFF7BAFF10BD0048704722
:1001F0000000202001491820ABBEFEE726000200C7
:100200007047811E091F00BFFCD27047F0B5764AC7
:100210008218394BC31808794E79384D744C002E2A
:1002200023D0202804D00526F601002803D003E0BF
:10023000334E002800D18826576F2F403743576729
:10024000976F2F4037439767566B26405663966BE0
:10025000264096630026566596658F26F6435F68AE
:1002600037405F609F6837409F608E79096820281B
:1002700007D0002815D1491E5160D76E2F40882124
:1002800015E0491E5160D16E29401D4F3943D1669A
:10029000116F29403943116701214907194D17464C
:1002A00009E049085160D76E2F400521C9010F436D
:1002B000D766174670373C682C400C433C60D16AC7
:1002C0004B4C2140D162116B214011630021D1645C
:1002D00011658F21C943D46F0C40D4671C680C4052
:1002E0001C600643BD2030401168074B0B40C0180E
:1002F000801C1060F0BDC0468418000024493E00F8
:1003000001040000FFFFFFCF4000FFCFB0B5364A29
:1003100080184A6842600A78222A57D8930001A4BC
:10032000E3589F46C3030000CD030000C303000051
:10033000CD030000CD030000CD030000CD0300007D
:10034000CD030000CD030000CD030000CD0300006D
:10035000CD030000CD030000CD030000CD0300005D
:10036000CD030000B1030000CD030000B103000085
:10037000CD030000CD030000CD030000CD0300003D
:10038000CD030000CD030000CD030000CD0300002D
:10039000CD030000CD030000CD030000CD0300001D
:1003A000CD030000B1030000CD030000B103000045
:1003B00003231B0704689C4301235B07E3180360C6
:1003C00004E003231B0704689C4304600B69C360BB
:1003D000CB68064C1C40C36A054D1D402B19C362F7
:1003E000097A11430160B0BD04180000777702005C
:1003F0008888FDFF10B507239B04194092008018E0
:10040000024A84589C436118815010BD3018000086
:1004100010B5029CA400001911431943014A8150F0
:1004200010BDC0465018000092008018014A81504B
:100430007047C0461018000010B50122120383183F
:100440000C789C604B7883508978014A815010BDAC
:100450000C110000B0B51122120283580124A343ED
:1004600083508B780C881C438B882343094C1C4099
:100470008358094D1D402B1983508B79CC791C432F
:10048000097A21437E231940801842689A43511803
:100490004160B0BD18670000E798FDFF10B501226C
:1004A000120383180C789C604978815010BD0000BD
:1004B0000D49872008600D4804220260822088616F
:1004C0000120800402468232CA61094A4A6609490B
:1004D0000A68102313430B6007490A6A02430A6241
:1004E0000A6802430A6070473C804240D0320A40AA
:1004F00081000D00A0130A4028100A40B0B582B058
:10050000934C10492046FFF797FF0F492046FFF70D
:100510007DFE00250095204629462A462B46FFF7FA
:1005200077FF204629462A46FFF764FF7D20C10059
:1005300020462A46FFF778FF0448012181600160C8
:1005400002B0B0BD580700005C0700000091864073
:100550000C48002101600320C1430B480246083AC1
:1005600013680B401360016801229143016011027E
:1005700003688B4303601103001F02680A43026093
:100580007047C04608030B4008010B400848094962
:100590004160FF210906084A13688B43032189073C
:1005A0005918116000218160072101607047C04621
:1005B00010E000E0FF7C000020ED00E010B5084CEA
:1005C00008492046FFF738FF07492046FFF79EFEFF
:1005D000064801680122114301600548026010BD10
:1005E00000400840640700006807000028500840E9
:1005F0000851084010B5144C14492046FFF74EFF2F
:1006000013492046FFF726FF0321CA031148036858
:10061000934303600269104B13401A33036142692C
:100620000A433C218A4342614168012211404368E8
:100630009343591841609102084B1C680C431C609D
:1006400001681143016010BD008010407C0700006C
:100650007E070000009110400000FFFF289010402E
:1006600080B500F013F8FFF723FFFFF771FFFFF7E6
:1006700045FFFFF7A3FFFFF7BDFFFFF787FF9C20B4
:10068000014900220A5480BD64002020B0B50A4808
:100690000A4941600A4A51600A4B59600A4C61603C
:1006A0000A4D69600A490160116019602160296082
:1006B0001020FFF7A6FDB0BD00080A40030000B1FE
:1006C00000280A4000888640004808400088104002
:1006D000010000261F480168002902D00168491E58
:1006E00001607047FFF7BCFF00251A4F2E4600221D
:1006F00017482946FFF798FE01243C603868002817
:1007000008D03868002805D03868002802D038683A
:100710000028F3D1751C0D488642E7D10B4E01E04D
:10072000761EE3D900250A4831462A46FFF77CFEAB
:100730003C6038680028F3D038680028F0D038686A
:100740000028EDD038680028F3D1E9E7E70300007E
:10075000008086406000202008070000E8030000B9
:100760000000010008076300020000003F9C000039
:100770000100000000000000000000000400000074
:100780001800000000300000980700000000202042
:0807900008020000280100002E
:04000005000000C136
:00000001FF
