:020000040000FA
:10000000680120206D0100007101000073010000F3
:1000100000000000000000000000000000000000E0
:10002000000000000000000000000000750100005A
:10003000000000000000000077010000E103000064
:100040007B0100007B0100007B0100007B010000C0
:100050007B0100007B0100007B0100007B010000B0
:10006000000000007B0100007B0100000000000098
:10007000000000007B0100007B010000F103000094
:100080007B0100007B0100007B0100007B01000080
:100090007B0100007B010000000000000000000068
:1000A0007B0100007B010000000000000000000058
:1000B0007B010000000000007B0100007B010000CC
:1000C00000F002F800F042F812A030C808382418F6
:1000D0002D18AC4201D100F039F80FCCA246AB4646
:1000E0000CA730CF2D1B083F3F197C427F1E544484
:1000F0002D090426F441641EAC4201D300F026F819
:100100000126334200D0FB1A3343984754465D46DC
:10011000DFE700008C0300009C03000000000000EB
:100120007047000000000000002300240025002686
:10013000103A01D378C1FBD8520700D330C100D5A3
:100140000B6070471FB51FBD10B510BD00F027F83C
:100150001146FFF7F7FF00F069F900F03FF803B42C
:10016000FFF7F2FF03BC00F045F800000648004727
:10017000FEE7FEE7FEE7FEE7FEE7FEE70348044989
:10018000024A044B70470000C100000068002020B4
:10019000680120206800202070477047704775462E
:1001A00000F024F8AE46050069465346C008C0007A
:1001B000854618B020B5FFF7E1FF60BCB6460026C3
:1001C0000027C0C5C0C5C0C5C0C5C0C5C0C5C0C565
:1001D000C0C5403D490849008D46704710B50446EA
:1001E000C046C0462046FFF7BAFF10BD0048704722
:1001F0000000202001491820ABBEFEE726000200C7
:100200007047811E091F00BFFCD27047B0B5112294
:10021000120283580124A34383508B780C881C431B
:100220008B882343094C1C408358094D1D402B19D2
:1002300083508B79CC791C43097A21437E23194062
:10024000801842689A4351184160B0BD1867000099
:10025000E798FDFF10B50122120383180C789C600B
:100260004978815010BD00000E498220886101202C
:10027000800402468232CA610B4A0A600B4A4A660F
:100280000B490A68102313430B600A490A6A0243A8
:100290000A620A6802430A60074804210160016398
:1002A0007047C0463C8042408100010081000D0043
:1002B000A0130A4028100A40A0320A400C4800212E
:1002C00001600320C1430B480246083A13680B4003
:1002D00013600168012291430160110203688B439E
:1002E00003601103001F02680A4302607047C046A2
:1002F00008030B4008010B40084809494160FF21F1
:100300000906084A13688B430321890759181160AD
:1003100000218160072101607047C04610E000E0C5
:10032000FF7C000020ED00E010B5144C144920467D
:10033000FFF790FF13492046FFF768FF0321CA0328
:1003400011480368934303600269104B13401A334A
:10035000036142690A433C218A43426141680122A8
:10036000114043689343591841609102084B1C683F
:100370000C431C6001681143016010BD00801040F7
:100380009004000092040000009110400000FFFF64
:100390002890104080B500F009F8FFF765FFFFF7DF
:1003A0008DFFFFF7C1FFFFF7A7FF80BD80B50748AE
:1003B00007494160074A5160074B5960074901608E
:1003C000116019601020FFF71CFF80BD00080A4073
:1003D000030000B100280A400088104001000026F8
:1003E0002A480168002902D00168491E016070474F
:1003F0000B480068C0B20B2811D10A48C1690A4AEB
:10040000117011780268D20708D00268D20705D0AF
:100410000268D20702D00268D207F3D18161704727
:10042000209010400891104064002020FFF7B2FF98
:100430000120C00312490860124908607D20800035
:100440001149124A04230B6010601468002C08D074
:100450001468002C05D01468002C02D01468002CFD
:10046000F3D10B6110601368002BEBD01368002BE5
:10047000E8D01368002BE5D01368002BF3D1E1E737
:1004800080E200E000E100E090320A4060002020BD
:100490000400000018000000003000000000000010
:1004A000B0040000000020206801000028010000C6
:04000005000000C136
:00000001FF
