:2000000000802020FF0200000B0300000B0300000000000000000000000000000000000003
:200020000000000000000000000000000B03000000000000000000000B0300000B03000096
:200040000B0300000B0300000B0300000B0300000B0300000B0300000B0300000B03000030
:20006000000000000B0300000B03000000000000000000000B0300000B0300000B0300003A
:20008000A90200000B0300000B0300000B0300000B0300000B03000000000000000000006F
:2000A0000B0300000B03000000000000000000000B030000000000000B0300000B030000FA
:2000C000B0B5364A80184A6842600A78222A56D8930001A4E3589F46750100007F01000005
:2000E000750100007F0100007F0100007F0100007F0100007F0100007F0100007F0100000A
:200100007F0100007F0100007F0100007F0100007F0100007F010000650100007F010000F9
:20012000650100007F0100007F0100007F0100007F0100007F0100007F0100007F010000D9
:200140007F0100007F0100007F0100007F0100007F0100007F010000650100007F010000B9
:2001600065010000036803242407A343012464071B1903E0036803242407A34303600B6955
:20018000C360CB68C46A064D2540064C1C402B19C362097A11430160B0BDC0460418000045
:2001A0008888FDFF777702000C48002101600C48014608390A680323DB4313400B600168B4
:2001C0000122914301600168130299430160001F016812030A4302607047C04608030B40AD
:2001E00008010B4010B50849084C204600F040F807492046FFF764FF064801680122114376
:2002000001600548026010BD240300000040084010030000285008400851084080B507485A
:2002200007494160074A5160074B59600749016011601960102000F05DF880BD00080A4021
:20024000030000B100280A400048084001000026064880F3088800BF00BF00F052F8002098
:2002600000F030F8012000F04EF8C0460080202010B50122120383180C789C604B7883509B
:200280008978014A815010BD0C110000034804490160044804210160016370473C80424033
:2002A00081000100A0320A4004480068C0B2012802D10348042101607047C0462050084038
:2002C000B0320A4000F00CF8012000040249086002490860FEE7C04680E200E000E100E085
:2002E00080B5FFF79BFFFFF7D1FFFFF75DFFFFF779FF80BD811E091F00BFFCD27047A7E7DD
:1003000070470120704700BFFEE7FEE700000000D5
:18031000020000003F9C00000100000000000000000000000807630085
:00000001FF
