:2000000000802020BB5600005F2800005F2800000000000000000000000000000000000001
:200020000000000000000000000000005F28000000000000000000005F2800005F2800002B
:200040005F2800005F2800005F2800005F2800005F2800005F2800005F2800005F28000068
:20006000000000005F2800005F28000000000000000000005F2800005F280000E94B000030
:200080005F2800005F2800005F2800005F2800005F2800005F280000000000000000000036
:2000A0005F2800005F28000000000000000000005F280000000000005F2800005F2800009D
:2000C000F0B591B0079301920F910E90E048E14D81210991016002272F602F6401242C60E0
:2000E0002846103010902F612F600526304604F0A9FF2F610D96304604F0A4FF2C610E98E3
:20010000400040B2D24A099911602F600A972F642C610C900028109800DA28460A99016076
:20012000204604F08FFF2C600D9E304604F08AFF2C61304604F086FF0E9FB8060B90109883
:2001400000D528460A990160204604F07BFF2C60304604F077FF2C61304604F073FFF806B1
:200160000690109800D528460A990160204604F069FF2C60304604F065FF2C61304604F0E7
:2001800061FF38070590109800D528460A990160204604F057FF2C60304604F053FF2C61B7
:2001A000304604F04FFF78070490109800D528460A990160204604F045FF2C60304604F0F1
:2001C00041FF2C61304604F03DFFB8070390109800D528460A990160204604F033FF2C6053
:2001E000304604F02FFF2C61304604F02BFFF807029000D010950A9F10980760204604F02E
:2002000021FF2C60304604F01DFF2C61304604F019FF2F61204604F015FF2C60304604F0A9
:2002200011FF2C61304604F00DFF2C612F6088488949016008942C60884F3868800722D56F
:200240000A24651E052004F0FDFE3868800716D5280614D0A51E052004F0F4FE38688007C0
:200260000DD528060BD0E41E052004F0EBFE3868800703D520062546E3D100E025462806D2
:20028000744D00D1CFE02C46103401222A617048099901600A9B2B602B6401602B602B64C4
:2002A00010922A610F9840B20028204600DA28460A990160109E304604F0C4FE2E6005270A
:2002C000384604F0BFFE2E61384604F0BBFE0F984006204600D528460A990160109E304677
:2002E00004F0B0FE2E60384604F0ACFE2E61384604F0A8FE0F988006204600D528460A9992
:200300000160109E304604F09DFE2E60384604F099FE2E61384604F095FE0F98C0062046CB
:2003200000D528460A990160109E304604F08AFE2E60384604F086FE2E61384604F082FED1
:200340000F980007204600D528460A990160109E304604F077FE2E60384604F073FE2E61B5
:20036000384604F06FFE0F984007204600D528460A990160109E304604F064FE2E6038467D
:2003800004F060FE2E61384604F05CFE0F988007204600D528460A990160109E304604F0BD
:2003A00051FE2E60384604F04DFE2E61384604F049FE0F98C00700D02C460A9E2660109CD1
:2003C000204604F03FFE2C60384604F03BFE2C61384604F037FE2C612E601D481E490160D3
:2003E0002C601E4F3868800740D50A24651E052004F028FE3868800733D5280631D0A51EB7
:20040000052004F01FFE386880072AD5280628D0E41E052004F016FE3868800720D52006E9
:200420002546E3D11DE00A4C099820600A9828602864089F2F6128612F600526304604F08F
:2004400001FE0A98286030460A9E04F0FBFD92E20880424090120A408100040080130A409D
:2004600025462806774D109C00D1D5E0284610300E902C61744E0998306002242C602C64DF
:2004800030602C602C64109828602C612C600527384604F0D7FD2C61384604F0D3FD2146BF
:2004A0001098286109983060109C296029642C61E0430C9A82420E9800DC28460F9101600D
:2004C000204604F0BFFD2C60384604F0BBFD2C61384604F0B7FD0B9800280E9800D52846E9
:2004E0000F990160204604F0ADFD2C60384604F0A9FD2C61384604F0A5FD069800280E983E
:2005000000D528460F990160204604F09BFD2C60384604F097FD2C61384604F093FD0598DF
:2005200000280E9800D528460F990160204604F089FD2C60384604F085FD2C61384604F042
:2005400081FD049800280E9800D528460F990160204604F077FD2C60384604F073FD2C619E
:20056000384604F06FFD039800280E9800D528460F990160204604F065FD2C60384604F02E
:2005800061FD2C61384604F05DFD0298002800D00E950E980F990160204604F053FD2C608A
:2005A000384604F04FFD2C61384604F04BFD0F982860204604F046FD2C60384604F042FD2D
:2005C0002C61384604F03EFD2C610F982860FD4931602C60FD4F386880073ED50A24651E8B
:2005E000052004F02FFD3868800730D528062ED0A51E052004F026FD3868800727D528060E
:2006000025D0E41E052004F01DFD386880071DD520062546E3D11AE0EB49099808600A9879
:20062000286028642C6128612C600C460526304604F008FD0A98286030460A9E04F002FDDD
:20064000374698E190120A400880424025462806DF4D109CDF4900D1A0E12C610998306005
:200660000F9828602864002201980228059200D2CCE0401E0690024607980E900D9231601C
:200680002C610527384604F0DDFC2C60384604F0D9FCCE4804680646384604F0D3FC1098CC
:2006A0002861384604F0CEFC10982860384604F0C9FC3568384604F0C5FCC5481099016126
:2006C000384604F0BFFCC24810990160384604F0B9FC6000042630400F990D4028180C90E7
:2006E000BA4C20680B90384604F0ACFCB84810990161384604F0A6FCB54810990160384613
:2007000004F0A0FC2468384604F09CFCB04810990161384604F096FCAD481099016038462F
:2007200004F090FC0C9880000B994900314040180F9D2C4020180C90A44C20680B903846E2
:2007400004F080FCA24810990161384604F07AFC9F4810990160384604F074FC246838466F
:2007600004F070FC9A4810990161384604F06AFC974810990160384604F064FC0C98800075
:200780000B994900314040182E462C4025188F480468384604F056FC8D4810990161384621
:2007A00004F050FC8A4810990160384604F04AFC6800874D34402018844909688907C90FD7
:2007C0000C18384604F03EFC109828610E9E3470109C09987C4908600F98286028642C6106
:2007E0002861384604F02EFC0F9828612C60384604F028FC0D9A77492C610F982860761CCD
:200800000E96714E521E00D038E7069A069231602C610527384604F015FC2C60384604F013
:2008200011FC6A4E31681091384604F00BFC2C61384604F007FC2C60384604F003FC3568A4
:20084000384604F0FFFB62480461384604F0FAFB5F480460384604F0F5FB1098400004213C
:20086000109108400F990D4028180E9030680D90384604F0E7FB56480461384604F0E2FBE1
:2008800053480460384604F0DDFB3568384604F0D9FB4F480461384604F0D4FB4C480460F7
:2008A000384604F0CFFB0E9880000D994900109A114040180F9E354028180E90434D286874
:2008C0000D90384604F0BEFB41480461384604F0B9FB3F480460384604F0B4FB2D6838461D
:2008E00004F0B0FB3A480461384604F0ABFB38480460384604F0A6FB0E9880000D9949004E
:20090000109A1140401835402D1830480668384604F098FB2E480461384604F093FB2C4890
:200920000460384604F08EFB6800294D0F990E403018264909688907C90F0E18384604F05C
:2009400081FB2C610798069946541F48099901600F98286028642C6128610646384604F0BD
:2009600071FB2E602C60384604F06CFB2C61164C2E600A9E059F099820602E602E6408986E
:2009800028612E6128600524204604F05BFB2E60204604F057FB384611B0F0BD0998306087
:2009A0000F9F2F602F642C612F612C6034460526304604F047FB2F6030460A9E04F042FB8F
:2009C0000327D8E7810004000880424080130A4090120A4081000400F0B5FFB08EB0049328
:2009E00006920646929802900025E84305908C913468204604F0F4FD21188B9503918C42B3
:200A000000D3B5E00020879087A908738890059889902F46049D2078002800D1A9E0252841
:200A200005D0641C34600699A8477F1CF3E78B97601C306087AC2046314600F0A1F88CAACD
:200A40002046314600F0B9F831680A781346683B0120C341092B2BD87B441B795B009F4414
:200A600004130A272727162727194B78879A682B19D1430204E04B78879A6C2B10D1030278
:200A80001A438792891C12E0879AC30204E0879A430301E0879A030313438793491C06E055
:200AA000491C402301E0491C20231A4387920A784C1C346087A90A73732A1ED06E2A28D128
:200AC00087992E4A1140202947D040293BD04203914238D0420291423AD0C202914205D0AC
:200AE000020391422FD0000281422CD1F8178C9904C98C911760506033E087A80078400618
:200B000019D4009587A88CAA8BAB069900F015F927E007AD87A98CAA284600F065F90246F6
:200B200028460699029B9847411C059D00D0C5198B95039917E0009587A88CAA8BAB0699FD
:200B400000F097F80DE08C9802C88C900F6008E08C9802C88C900F7003E08C9802C88C9052
:200B60000F8003998B9D681C00D048E7059F00E02F4638467FB00EB0F0BDC046603F0000E9
:200B800010B50A681378302B0FD0232B07D02B2B09D02D2B05D0202B0ED1042306E0082376
:200BA00004E0012302E0022300E0102304681C430460521C0A60E5E710BDFEB516460D4611
:200BC0000446086802782A2A10D13068011D316000686060002805D540426060206801214F
:200BE000014321602868471C2F6017E00021303A092A08D84218531C2B60435C6F467B54A2
:200C00005278491CF3E76A460023535412784718002A03D0684604F099F9606038782E2871
:200C200026D1781C286079782A2908D13068011D31600068A0602868401C2860FEBD002086
:200C40003039092908D839188A1C2A604A786B461A548978401CF3E76A46002111541078C2
:200C6000002804D0684604F071F9A060FEBDA160FEBDF0B587B01E460C9F13681C1D1460E2
:200C80001D68002D3BD0049106908468002C04D4284604F087FC844203D3284604F082FC1B
:200CA000044606984068A042039000DC204601463068019140180296306005940398A042E6
:200CC0000EDD06980078C0070AD1059801990E1A0024B44204DA20200499B847641CF8E7DF
:200CE0000026049C069805998E420BDA2868010A19D12D1DC0B22146B847761CF2E700200B
:200D0000B84718E00599039A8A4214DD0078C00711D00198451A0024AC420CDA20200499F7
:200D2000B847641CF8E70020C0430299086003F0CBFA5821016007B0F0BDF0B585B00C460D
:200D400006460A9D1068011D116000680490002844D00393B768002F04D4049804F040FCD9
:200D6000874203D3049804F03BFC074602967268BA42114600DC3946039B18680091401899
:200D800018600192BA420FDD02980078C0070BD10098C01B039000260398864204DA2020FE
:200DA0002146A847761CF7E70026BE4205DA0498805D2146A847761CF7E70198B84210DDA9
:200DC00002980078C0070CD00098C61B0027B74207DA20202146A8477F1CF8E7002021464D
:200DE000A84705B0F0BDC046F0B589B005920E4604467F2080002718486803900025079527
:200E0000FF210491FE3120222046019204F0DAFB3046089702977D70367B3146633915294D
:200E200006903DD801228A40604B1A42069822D007A908AA059B00F0BDF806980025067B98
:200E4000012731466F390929059504D801228A4057490A423FD1582E3DD0016802230B404E
:200E6000079A002A27D008994A1E08922D220A705F425F412FE0002912D1059B1A68111D98
:200E800019601268D1B24D424D410499FC316118089102990A70026802218A430260CEE75D
:200EA000252E02D0582EC3D0CAE70020607025202070012078E0002B07D149070BD5089A30
:200EC000511E08910199117005E0089A511E08912B2111700027039903976518089B01789D
:200EE000C907264608D10299491CC91A42689142264601DC691A4E1C591C049843000027CC
:200F000030463A4604F0B2FA08900599002903D0411C0891077000E00146A94206D8481E46
:200F2000691A491C202204F04DFB2F7006980078C00606D4311B2022204604F043FB059D2E
:200F40002EE0A642059D2BD0311B302720463A4604F038FB069B079841424141039801402D
:200F6000012905D11878400702D43046214604E03078611C2070701C37701A7B412A0CD03F
:200F8000582A05D0612A08D0782A01D0702A07D11B781B0701D4612A02D142784A7047709F
:200FA000204604F01DFB401909B0F0BD4230240043020000F8B514460F460546806800286E
:200FC00004D4286810218843286001E00120A860287B1026582808D0782806D0702804D008
:200FE0006F2801D1082600E00A262846194600F055F8AA68002A09D102460A4306D128781E
:20100000000749D52B7B0020024612E02B7B642B03D1642300290BD504E0692B08D1002998
:2010200006D5692301223A60002240428A4100E00A4600941146324600F0B0F8A968884217
:2010400006DA401C21684A1E226030220A70F5E7287B582803D0782801D070280FD12978B9
:2010600009070CD5702800D1782021684A1E226008702068411E216030210170287B6F282F
:201080000AD12878000707D520684178302903D0411E216030210170F8BDC04610B5037BE5
:2010A000702B05D10868021D0A60006800226FE00068384A024001204403A24222D0402A19
:2010C00020D00402A24230D04402A24246D0C402A2422AD00403A24214D0202A12D1002234
:2010E0001C46643C142C06D8A0402B4C204204D1212420423ED1582B49D10868031D0B60F4
:20110000008845E000221C46643C142C06D8A040214C204204D1212420422BD1582B36D12F
:201120000868031D0B60006832E01A46643A142A06D89040184A104206D12122104203D15C
:201140000020582B024623D10868C21D072082431046083008601068526819E000221C46D0
:20116000643C142C0CD8A0400B4C20420AD12124204205D00868021D0A600068C21707E09A
:20118000582B04D10868031D0B60007800E01046114610BD603F000000081200FEB501922B
:2011A0000D460646582B01D0174800E015480090089802903046284305D1029A1068411EB4
:2011C000116030210170019C3046284313D030462946224600F01AF807460D46224604F030
:2011E00021F9301A0099085C029B19684A1E1A6008703E46E8E70298006804F0F1F9401E85
:20120000FEBDC0466D6500007E65000080B5102A06D0082A09D1C0084A078018C90880BD48
:2012200000090A078018090980BD002904D1114603F04CFE002180BD002304F097F980BDD9
:20124000F0B589B00393049200910290E648E74F81210591016002253D603D64012001904D
:2012600038603C4610343D613D600526304603F0E9FE3D6106963046019E03F0E3FE3E6198
:20128000D949059808603D6008953D64029D3E616806079400D53C4608992160304603F023
:2012A000D1FE3E60069C204603F0CCFE3E61204603F0C8FEA806079800D53846089901609C
:2012C000304603F0BFFE3E60204603F0BBFE3E61204603F0B7FEE806079800D5384608990A
:2012E0000160304603F0AEFE3E60204603F0AAFE3E61204603F0A6FE2807079800D538461C
:2013000008990160304603F09DFE3E60204603F099FE3E61204603F095FE6807079800D5CB
:20132000384608990160304603F08CFE3E60204603F088FE3E61204603F084FEA8070798F5
:2013400000D5384608990160304603F07BFE3E60204603F077FE3E61204603F073FEE80792
:2013600000D00797089D07980560304603F06AFE3E60204603F066FE3E61204603F062FED2
:201380003D61304603F05EFE3E60204603F05AFE3E61204603F056FE3E613D60924994485C
:2013A00008603E6093480068800725D50A24651E052003F047FE8F480068800718D5280674
:2013C00016D0A51E052003F03DFE8A48006880070ED528060CD0E41E052003F033FE85484B
:2013E0000068800703D520062546E0D100E0254628067D4900D1C3E03B46103301263E61A7
:2014000005980860089A3A603A6408603A603A643E61009D68B200280793184600DA38467F
:2014200008990160304603F00DFE3E600524204603F008FE3E61204603F004FE6806079809
:2014400000D5384608990160304603F0FBFD3E60204603F0F7FD3E61204603F0F3FDA80655
:20146000079800D5384608990160304603F0EAFD3E60204603F0E6FD3E61204603F0E2FD77
:20148000E806079800D5384608990160304603F0D9FD3E60204603F0D5FD3E61204603F06A
:2014A000D1FD2807079800D5384608990160304603F0C8FD3E60204603F0C4FD3E61204650
:2014C00003F0C0FD6807079800D5384608990160304603F0B7FD3E60204603F0B3FD3E6196
:2014E000204603F0AFFDA807079800D5384608990160304603F0A6FD3E60204603F0A2FDA2
:201500003E61204603F09EFDE80700D00797089D07980560304603F095FD3E60204603F040
:2015200091FD3E61204603F08DFD3E613D60CB49CC4808603E60CA480068800745D50A24E8
:20154000651E052003F07EFDC5480068800738D5280636D0A51E052003F074FDC04800687C
:2015600080072ED528062CD0E41E052003F06AFDBB480068800723D520062546E0D120E00A
:2015800005980860089D3D603D643E613D613E600524204603F056FD3D60204603F052FD6E
:2015A0000598AE4908603D603D643E613D613E60204603F047FD3D60204603F043FD4AE118
:2015C00025462806A54900D104E13E610598086002243C603C64049A002A00D1E9E0002343
:2015E0000794029619E0C0460880424090120A408100040080130A40254628069749079C45
:2016000000D108E13E61059808603C603C64069B5B1C049A934200D1CBE0039A0693D256CB
:2016200008603C603C643D4610353E610892002A284600DA38460460304603F003FD3E60AA
:201640000524204603F0FEFC3E61204603F0FAFC08984006284600D5384607990160304602
:2016600003F0F0FC3E60204603F0ECFC3E61204603F0E8FC08988006284600D53846079949
:201680000160304603F0DEFC3E60204603F0DAFC3E61204603F0D6FC0898C006284600D566
:2016A000384607990160304603F0CCFC3E60204603F0C8FC3E61204603F0C4FC0898000760
:2016C000284600D5384607990160304603F0BAFC3E60204603F0B6FC3E61204603F0B2FCDA
:2016E00008984007284600D5384607990160304603F0A8FC3E60204603F0A4FC3E61204698
:2017000003F0A0FC08988007284600D5384607990160304603F096FC3E60204603F092FCD1
:201720003E61204603F08EFC0898C00700D03D46079E2E60029D284603F084FC3D602046B7
:2017400003F080FC3D61204634462E4603F07AFC3D613C604149434808603D60404800687B
:20176000800700D44EE70A24651E052003F06AFC3B480068800700D43FE7280600D13CE71C
:20178000A51E052003F05EFC35480068800700D433E7280600D130E7E41E052003F052FC3C
:2017A0002F480068800700D426E720062546DBD123E708603C603C643E613C613E602546B2
:2017C0000524204603F03EFC3D60204603F03AFC002640E005980860089D3D603D643E6154
:2017E0003D613E600524204603F02CFC3D60204603F028FC0598194908603D603D643E61A5
:201800003D613E60204603F01DFC3D60204603F019FC2E461FE0059808603C603C643E61BC
:201820003C613E600525284603F00CFC3C60284603F008FC0598094908603C603C643E61A7
:201840003C613E60284603F0FDFB3C60284603F0F9FB0698C61CF0B209B0F0BD0880424071
:2018600080130A4081000400F0B589B00F4605460120C1073E468E43B14886420BD3D14892
:201880003018284300D190E002F01EFD21210160CD49002550E1AB48864212D8C64AC74B71
:2018A0002846394600F017FF0022A54B03F032F9002800D186E0C248864200D382E0394620
:2018C0003AE10291089700249D4920462A46334600F0FCFE9C4B224601F0CEFF05460F46CB
:2018E0009A4A9B4B01F0C8FF9A4A9B4B00F0F3FE03F095FE994A9A4B00F0EDFE03F08FFE12
:20190000984A994B00F0E7FE03F089FE974A984B00F0E1FE03F083FE964A974B00F0DBFE20
:2019200003F07DFE06900791944A954B03F0C0FE944A954B00F0CFFE03F071FE934A944B03
:2019400000F0C9FE03F06BFE924A934B00F0C3FE03F065FE22467A4B00F0BDFE03900491B3
:201960002846394601F040F805900C468B48864200D283E003F06AFE02460B46059D284696
:20198000214601F079FF2A4603F095FE02460B4600F0A1FE824A864B00F09DFE02460B4698
:2019A0008148844900F092FEC0E07D4A7D4B03F07FFE04460E467C4A7E4B03F079FE224673
:2019C000334657E0284639462A463B4601F054FF064608970F465D4A5D4B01F04DFF5D4AC2
:2019E0005D4B00F078FE03F02CFE5C4A5C4B00F072FE03F026FE5B4A5B4B00F06CFE03F060
:201A000020FE5A4A5A4B00F066FE03F01AFE594A594B00F060FE03F014FE04460791574AE3
:201A2000574B3046394601F027FF564A564B00F052FE03F006FE554A554B00F04CFE03F014
:201A400000FE544A544B00F046FE03F0FAFD00223B4B00F040FE02460B462046079901F0C7
:201A60002FFC02460B462846089C214601F004FF2A46234600F02FFE05465DE0002630461B
:201A8000214632460196234601F0F6FE02460B462846394600F01AFE00900F46059D2846FF
:201AA0002146324603F007FE02460B460098394601F006FC06460F4603F0C8FD0790069125
:201AC000284621462A4603F0F6FD059004913046394632463B4600F0FEFD02460B463048C7
:201AE000304900F0F3FD05460F4605980499079A069B01F0C1FE2A463B4600F0E7FD0546B1
:201B00000F4601982146024603F0D5FD02460B46254C264E2046314600F0D8FD2A463B4652
:201B200000F0D4FD2246334600F0D5FD05460898002801DC02984140284609B0F0BDC0465C
:201B40000000F03FFFFFDF3F0000E03F09F7FD0DE13D023F88B20175E0EF493F3B8F68B5C4
:201B60002882A4BF5544880E55C1C93F7D6FEB0312D6D4BF555555555555C53F82922EB1C1
:201B8000C5B8B33F59018D1B6C06E6BFC88A599CE52A00404B2D8A1C273A03C03333EF3F51
:201BA000075C143326A6913C182D4454FB21E93F26A691BCFB21F93F9C7500883CE4377EE6
:201BC0000000503E000010C00000F87FF0B587B005460F460122D0070E46864392488642FB
:201BE0000DD3B448864203D8002D3FD086423DD1284639462A463B4600F06DFDE2E08B4887
:201C00008642039112D8914A914B2846394600F062FD00248B4B224602F07CFFE143029105
:201C2000002869D0B00DF92866D2CDE08048864220D8854886423FD8284631462A4633467E
:201C400000F049FD00277C4B3A4600F044FD044628460D4601218B07314602973A4600F070
:201C60003AFD02460B462046294636E0002920DC924F1FE06F48864234D800246F4B2846CD
:201C800003F00BFD2A4605460F466D4B10463146224601F0F1FD6B4B224600F01CFD0246FE
:201CA0000B462846394601F00BFB05460F46022021E0814F824D87E0029200245E4B284657
:201CC00003F0EBFC2A4605460F465E4B104603F0E4FC02460B462846394601F0F1FA05469B
:201CE0000F4609E0002054492A46334601F0E8FA05460F46032002900695284639462A46E0
:201D00003B4601F0B9FD0590049102460B4601F0B3FD04460D464F4A4F4B01F0ADFD4F4A33
:201D20004F4B00F0D8FC03F087FC4E4A4E4B00F0D2FC03F081FC4D4A4D4B00F0CCFC03F096
:201D40007BFC4C4A4C4B00F0C6FC03F075FC4B4A4B4B00F0C0FC02460B460598049901F02E
:201D60008BFD04900591474A474B2046294601F083FD464A464B00F0AEFC03F05DFC454AB2
:201D8000454B00F0A8FC03F057FC444A444B00F0A2FC03F051FC434A434B00F09CFC03F058
:201DA0004BFC224A964213D8049A059B00F093FC02460B4603F05DFC02460B46204639468D
:201DC00000F084FC05460F462846394607B0F0BD029AD400354A1319125902925A68019233
:201DE000049A059B00F077FC02460B463048011906594D6803F03DFC32462B4600F066FC9C
:201E000022463B4600F062FC02460B460298019900F05CFC05460F4603980028D4D5012049
:201E2000C0074740D0E7C04600001044FFFFDB3FFFFFF23FFF7F03400000F0BF0000F8BFD5
:201E40000000F83F0000F03FFFFFE53F9C7500883CE4377E11DA22E33AAD903FEB0D762454
:201E60004B7BA93F513DD0A0660DB13F6E204CC5CD45B73FFF8300922449C23F0D5555551E
:201E80005555D53F2F6C6A2C44B4A2BF9AFDDE522DDEADBF6D9A74AFF2B0B3BF711623FED6
:201EA000C671BCBFC4EB98999999C9BF20640000406400000000F07FFB21F93FFB21F9BF17
:201EC000182D4454F0B58DB0044607AF022001903870CA207870E320B8700920F8706820D2
:201EE00004213A4602F0ECFCA32038704026254626405C21C9433F23002E0A4600D0DA436B
:201F000000930124002E0B4601D03723DB43029424020596002E0E4601D03D26F6437A7011
:201F2000BB70FE70264680362E400A4601D03B22D243002E0B4601D03323DB430696002E57
:201F400001D03921C94397263A717B71B971F871387278727D480F300A213A4602F0B0FC82
:201F60000320272128400490039101D0202000E0C843F600387075481E3002993A4602F0B4
:201F80009FFC2F46A80606D40AAAC720107272480B90724805E00AAA5D2010726C480B9096
:201FA0006C480A900921304602F08AFC069D002D21D03C4001D04D2000E04F20C043002CC2
:201FC00001D0742100E07F21C943002C01D0492200E04B22D343002C01D0642200E06F2250
:201FE000D44307AA107051709370D47057480A30042102F065FC8B200001F90704D107AA0E
:20200000D821117001214AE007AAF82111700126314602F055FC0720FA2100F095FF0AAA54
:20202000009810702920C5002846314602F048FC0AAA00241470E81D314602F041FC0AAAA4
:2020400014701420507028469630019E314602F037FC0AAA14706420507028469230314676
:2020600002F02EFC0AAA14708E205070F92090709020D07028461430042102F021FC0AAAFB
:2020800014700820507028461230314602F018FC0AAA1470567010352846069D314602F0EA
:2020A0000FFC059CB807039800D52620C04307AA10702B48012102F003FC780704D429487D
:2020C0000A9004210AAA09E00AAAC0201070C2205070C4209070C620D07004211B4802F06A
:2020E000EFFB00F0E5FDF80606D41F480A901748801D04210AAA0BE00AAA202010702820CF
:202100005070302090703820D0701048801D042102F0D6FB00F0CCFD0820384313490880FA
:2021200000F0C6FD002C00D00624002D00D0A41D1420074201D0102004430498002800D0AF
:20214000241D0B48047000200DB0F0BD980A0000B4980D35B8AAB38DB088C3C5B8AAAAAAA5
:202160003D0700008B8B8B8BA3A3A3A3940A2020920A2020F0B589B00025EC43282800D94E
:20218000E6E000280AD00194734C2327E15D012938D0A17C002918D0322217E06E4D2326EC
:2021A000A85D002800D1C4E0A87C411E02468A41510003AA11702221695C002900D1ACE0DA
:2021C000002800D1A5E07D20A4E03022009004A802702220205C002807D0002901D04D203C
:2021E00000E04F20C04304A90870216860680078097D012604AB3246FFF722F800280098FB
:2022000000D1E65502A920220A70012831D102A8002141702646A07A002811D005A8062141
:202220000170F07A06280BD03168706800788978012205ABFFF704F8002801D10598F07212
:20224000019C02AB58788001C01D5870316870680078897C0222FEF7F3FF002878D10820AC
:20226000B072357301203075284601F05DFE2C466EE00528264618D802A801214170B07A24
:202280000028019CDDD006A806210170F07A0628D7D03168706800788978012206ABFEF794
:2022A000CFFF0028CDD1069831E01428019C17D802A802214170B07A0028C2D007A80521DC
:2022C0000170F07A0528BCD03168706800788978012207ABFEF7B4FF0028B2D1079816E0C3
:2022E00002A803214170B07A0028AAD008A804210170F07A0428A4D0316870680078897859
:20230000012208ABFEF79CFF00289AD10898F07297E77F20C04303A90870296868680078A5
:20232000097D012203ABFEF78BFF002801D10020A8550720000202AB188029686868007869
:20234000897C0222FEF77CFF002801D100242C75204609B0F0BDC046380A2020F0B597B0E5
:2023600015460E46044610A8019011A8009014A812A90CAA16AB00F0D5F8002802D001200C
:2023800017B0F0BD11A80088C00502D4022017B0F0BD0C9802F038FE61210895CD0529462B
:2023A00001F008FF0A900D9802F02EFE294601F001FF074605900E9802F026FE294601F06A
:2023C000F9FE09900F9802F01FFE294601F0F2FE05460B9003208107384601F0EBFE0494E6
:2023E000044606900A98014601F00DFC0390099F394601F0DFFE079606462046294601F0E3
:20240000D9FE314601F0FFFB02F080FDFFF72CFA424A434B01F030FA02F09AF8049908603A
:20242000384639463D4601F0EEFB06460398059F394601F0BFFE044630460B9901F0BAFE7D
:20244000214601F0E0FB02F061FD044604912846314601F0AFFE06460698394601F0AAFE95
:20246000314601F0CBFB7F21C90501F0CCFB02F04DFD02460B462046049900F0F1F9274AE5
:20248000274B01F0F9F902F063F8079908600A9D28460B9901F08EFE04463E463846099F68
:2024A000394601F087FE214601F0ADFB014601F0AAFB02F02BFD044607913046314601F070
:2024C00079FE06462846294601F074FE314601F09AFB06463846394601F06CFE014630469B
:2024E00001F08CFB06460B98014601F063FE0146304601F083FB02F009FD02460B462046B9
:20250000079900F0ADF9054A054B01F0B5F902F01FF808990860002017B0F0BD6666666609
:2025200066A64C40F0B58FB0049315460C460590149F159A0026F04306903E805F48007818
:2025400007A901F047FD002802D006980FB0F0BD019403970124200202905948038814202A
:202560000342059F48D02A4600930798000607AE717809040D18B0780002F178401840199E
:202580001746106008980006717909040818B1790902F27989180918796009990906727AD9
:2025A00012045118B27A1202F37AD2185218BA600A9A1206737B1B049A18B37B1B02F67B4A
:2025C0009B199B18FB602B140014091412145B43404349435243181840188018F121090620
:2025E00040186106884263D803990888029A104308801026009B059F580602D43246039CB4
:2026000018E007A88119805D00024A788018019C208088780002CA788018608008790002C4
:2026200049794018A08006223243039C2088082101432180029D80352B42049E17D007A875
:202640008118805C00021D464B78C018388088780002CB78C0182B46788008790002497982
:202660004018B880921D2088702101432180980718D007A88518EC786878C1070AD01149EA
:202680000A68002A06D007202040411CA006400F90476878000705D50B480168002901D0A1
:2026A000A0098847304602F0F2FE00200FB0F0BD00F0FEFA00200399088046E7920A202089
:2026C000940A2020880A20208C0A2020FCB40124E407634002E0FCB40124E40708B41D0393
:2026E000ED08D60D354356025F007F0D06D12C00344300D0AEE001B0FCBC7047A40825433B
:2027000007242402FF34A74205D10020190D090501B0FCBC7047002B03D50024A61BAC412D
:2027200025000B03DB08C20D134342024800400D07D11C00144300D08CE00EBC1000F0BC78
:20274000704701246407234307242402FF34A04205D10020090D090501B0FCBC7047002903
:2027600003D50024A21A9C412300C11B08D51C002B0025001400320026000024611A380039
:20278000362925D502B4393949420C00203C03D22F008F40374301E03700A740002F01D079
:2027A00040210E4302BC20290BD500290ED04C42203420B4A5402C0020BC0D41CE4036192B
:2027C00004E000292E000D4120390E4192196B411C0014433ED00024002B04D50124002182
:2027E0008A1A99410B00401E52005B41FBD50121890215000D400CD0521800277B4101D328
:20280000401C0BE00721C90115000D4001D189008A43072109028A4352005B41801C19DD75
:2028200007210902FF31884209D30EBC0020C90F0902FF31C900C91D0905F0BC7047190B4E
:2028400000050143E40721431805120B104301B0FCBC70470021002001B0FCBC7047FEE7ED
:20286000F0B585B01E46054602920390504B514F04963E40501E1446844134439C4207D894
:202880000F40681E2C4684413C434948844208D90398029A049BFFF71EFF0C46214605B01E
:2028A000F0BD4548049B181810431AD00C46C90FD80F4000019141183D4316D032431CD0CF
:2028C0003B48864217D187421DD1424C3C48C0467944097949008F4401023B60DEE7414CAB
:2028E000DCE70398FFF772F9D7E702290398D5D3032918D015E0874218D10120C007044006
:202900002E48241810E000242046C0467944097949008F4401020608C0E700200121CC075D
:20292000BCE72A4C00E02A4C2548B7E7B81B00153C2803DD214C2248019918E0002B09D57F
:2029400000253B22D243904204DA28462C460EE0234C23E003980D462146029A00F0B0FC63
:202960000122D2079143FFF731F90C462946002994D0022905D0012912D10121C9074C408E
:202980008CE7104A104B2146FFF7A5FE02460B460B480E49FFF79AFE7FE70F4C0F487DE7C2
:2029A000084A094B2146FFF796FE054A084B72E70000F07FFFFFFF7F000010C0FB21F93F76
:2029C000182D4454075C143326A6A1BCFB210940FB2109C0FB21E93F7CD902C0D221337FFD
:2029E0007CD90240FB21E9BFF0B585B00D4604465448014081420CD12046294622462B46DA
:202A000000F03AFF22462B46FFF765FE04460D4693E04D4B002D75DD012004900105280D44
:202A200006D10020002D05D11538E50A6405F9E72E460DE000220D4202D16D00521CFAE7B6
:202A4000801A401C2026B71A2646FE402E4394403E4A8218481E304008430092D10703D0FA
:202A6000E10F400040186400E10F4000461800250498410501956400002911D04A19B71A9D
:202A8000304600DB3846B24200DC5518B24202DC019A521801924000E20F86184908EAE7CF
:202AA0005F1C00221346002F23D0D019AE4216DD039300230028049A00D41A46C119029112
:202AC0000029049900DA1946761B844200D2761E039B0A40AD18241ADB19029A03E002D109
:202AE0008442E5D23546E00F71000E1864007F08D9E7344313D0581C019A12D001201840E9
:202B0000C31810E028461840204316D0002D83D501F0DAFB212101600E4D00240DE0019AE6
:202B200001E0521C002350105908D20754180099490809050818064945182046294605B0CF
:202B4000F0BDC0460000F07FFFFFFF7F01FCFFFF0000E03F0000F87FF0B585B00026F4430F
:202B600002AB802018704D4F396878680078897C0122FEF765FB002818D1642002F006FAE7
:202B800002AB1E70396878680078897C01252A46FEF756FB002809D1396878680078897D1F
:202BA000062202ABFDF78CFA002802D0204605B0F0BD02A84179C907490FC278D207920FC4
:202BC000511840782840091846D0012902D002295AD13146F974384608303349F981FF2133
:202BE0003974B974BC603D7329047E61BE61FE613962067746778677C67704AB1820187027
:202C000039687868007889792A46FEF719FB0028CCD104A80078C0083872022001F010FBC7
:202C20000028C3D12A2001F0CDFC0028BED1322000F094FE0028B9D1002001F075F90028F0
:202C4000B4D10025284600F03DFC0028AED1284600F066FF2C46A9E7396878680078C9788D
:202C6000012202AB0192FDF72BFA00289ED102A801780F20084004280AD000283146A9D188
:202C8000084802F0E1FB91E7084801F0DBFF8DE7034802F0D9FB01999CE7C046380A202059
:202CA0000B650000D1630000FFFF00008864000070B582B00026F443504DA87A00281ED0FD
:202CC00001AB1E70296868680078C97B0122FEF7B7FA002813D1296868680078497901220A
:202CE00001ABFEF7ADFA002809D12968686800780979012201ABFEF7A3FA002802D020466E
:202D000002B070BD2420285C002813D001AB0C20187029686868007809790122FEF790FAA4
:202D20000028ECD1322002F031F9A87AC0073BD01F203AE001AB04201870296868680078C2
:202D400009790122FEF77CFA0028D8D1AA7CA97A4020C907014600D06021002A00D0014640
:202D600001AB197029686868007809790122FEF767FA0028C3D1322002F008F9687C411E06
:202D8000884101AB1870296868680078C97B0122FEF756FA0028B2D129686868007849796B
:202DA000103501222B4622E03F20C04301AB187029686868007809790122FEF741FA0028CC
:202DC0009DD1687C411E8841400001AB1870296868680078C97B0122FEF732FA00288ED11D
:202DE00001AB1E7029686868007849790122FEF727FA002883D1344681E7C046380A2020DF
:202E0000F0B58FB0074600200990C0430791002900D186E04B4D2524295D002900D080E00D
:202E20000292009401930390002F6AD00497099886B2BB1B102B00DB1023A87A002872D0BB
:202E400009990C0A0EA804704170C8B299B206910F18686841898F4265D800782968097E24
:202E6000022208930EABFEF7EBF9089B354D002859D107988619296868680078497DDAB221
:202E800005923346FEF7DCF900284CD1A87A002849D0E0B20EA908700998487068684189FC
:202EA0008F4240D800782968097E02220EABFEF7C7F9244A002836D1116850680078497DFB
:202EC0000AAB059AFDF7FCF800282CD106990029049F0ED00120401A0AA932780B789A4211
:202EE00005D1491C761C441C00282046F5D19A4224D1099808994018099080B2B842114DC3
:202F000095D30299080A0EAB18705970296868680078897E2C460222FEF792F900280398D9
:202F200004D00FB0F0BD03980FB0F0BD0120009960540198E08400200FB0F0BD0398401E5A
:202F40000FB0F0BD380A2020F0B585B005460022D4431920800181426FD8072028406CD096
:202F60000192084602F0E6F93F4901F0F5F9064603AF384602F094F93878801E0121C841C4
:202F800007285AD8394F8D21C905C04678440079400087440E0352075252520B364F232053
:202FA000410606E0334F8B20C10502E0304F452001060294304601F0FDF8044630463946F3
:202FC00001F0F8F802F098F80746204602F094F8010A04AA11705070380A961C9070D77028
:202FE000E80706D1A80716D46807029C28D4019C23E0492087003846B030022104AA01F0B9
:203000005FFC002818D102213846324601F058FC002811D1E6E7492084002046B4300221B5
:2030200004AA01F04DFC002806D1201D0221324601F046FC0028D7D0029C204605B0F0BD69
:20304000492085002846B830022104AA01F038FC0028F2D1083502212846324601F030FCE8
:203060000028EAD1C3E7C04600004843000040460000C044000040450000C045F0B589B040
:2030800045488121016045480221016001640A2001F07CFF68266B270124802303933046A0
:2030A00039462246FEF7CCF8642001F06FFF00253046394622462B46FEF7C2F81B21182374
:2030C00030462246FEF7BCF81C21304622462B46FEF7B6F804AB132002901870192130468E
:2030E0002246FEF7ADF805AB0420019018701A2130462246FEF7A4F83821304622462B468F
:20310000FEF79EF86A21304622462B46FEF798F82321304622462B46FEF792F837213046E5
:203120002246039BFEF78CF806AF3D807521304622463B46FCF7C4FF0146194801F082FDDB
:203140003878682822D118486825294601F07AFD6B21284622462346FEF772F86C2100239E
:2031600028462246FEF76CF807AB02981870192128462246FEF764F808AB019818701A21DC
:2031800028462246FEF75CF8254602E0054801F059FD284609B0F0BD0880424090120A4065
:2031A000B7650000436500005B650000FEB5002905D03D4C0027072C03D83E4603E000278E
:2031C0006FE02646083E8E426BD30197431E08221842074600D01746072800D81746C81DA0
:2031E000029007253148006880473148017800290BD10121092C01D2002203E02D4A0023A9
:20320000936016602C4B1A6001700298A8430290781E7942284C2568002D34D02C4608349B
:2032200006190E40B44210D02A4610323346083B9A4201D9F619F9E72A6801239A43A218EB
:20324000029BF3189A42E6D306E02A6801239A43029B9A42DFDB2646284602F055F9A64283
:2032600016D0301B083829680122D3431940091A286018402F1811430839B9600837284615
:2032800002F080F805E00D4800688047019F08E02F463846029901F0E3FB084800688047F7
:2032A00008373846FEBDC04600080000800A20209C0A202000002020CC0C2020840A2020B2
:2032C000FCB40C005C40E40FE40710B41D032D0B56006D415F007F0D73D001246405254374
:2032E00007242402FF34A74261D00B031B0B42005B414800400D64D0012464052343072436
:203300002402FF34A04252D0C01B002100273624AB4200D1B24204D37F414941921BAB4167
:2033200001E07F414941641E06D0002B01D1002A02D052005B41EBE7202C07D2162C0AD30D
:203340003900A7402026361BF1400BE0203C3900A140002706E0A1402026361B3D00F5402D
:203360002943A74001246405214202D17F004941401E00247F1C61410124A405214202D06B
:20338000401CA14301E06408A14303242402FF34001916DD2419A04209D8CC074908000507
:2033A00001437808204310BC2143FCBC704702BC0020C90F0902FF21C900C91D0905FCBCF1
:2033C00070470021002001B0FCBC7047F0B585B00F4606460024E5433848006880473846E1
:2033E00001F00CFB002863D0B8680397F968325D641C002AFBD10095039D6A690723029393
:203400001A40671E042A01970CD10024002F47D0286831193A4601F0DDFF002842D404193E
:203420003F1AF3E70B1A3C46002C39D09C42274600D31F466969029A11400229049311D197
:20344000002B07D00021725C0A2A06D0491C8F42F9D107E000252F4605E0721802D04F1C44
:20346000012500E0002531463A4601F06DF803998868C0198860F619E41B002D0D46049B5A
:2034800001D1DB1BD0D1284601F062FC002809D1A868E9680B1A696920220A436A61C3E7A8
:2034A000019D05E068690121890201436961009D034800688047284605B0F0BD800A20204C
:2034C000840A2020F0B581B005463B4EB07CA84201D100246DE00027FC43316870680078CC
:2034E000097901226B46FCF7EBFD002D1AD000285FD16B461878DF210140197031687068B0
:20350000007809790122FDF79BFE002851D1032001F03CFD31460831887E002833D07D20EC
:20352000C04331E0002844D1B07A6B461978DF220A40C007800E1018187031687068007895
:2035400009790122FDF77CFE002832D1032001F01DFD31460831887E421E03469341DA01F1
:20356000002801D07F20C0436B461A70C97E002903D0302108436946087031687068007886
:20358000097D01220FE002206A461070C97E002903D0302108436946087031687068007852
:2035A000097D01226B46FDF74BFE002801D1B5743C46204601B0F0BD380A2020F0B585B0AF
:2035C000054600200190C0430290032128460840304B1C5C04AA1470EC06A40F1F5D577073
:2035E0002F06BF0FDB5D93702B4B185C03AE3070185D7070D85D264FB070384601F060F96B
:20360000002833D12E46019D381D032103AA01F057F900282AD104A8762181701F490180C5
:2036200003A81F49018066218170700705D504A83721017003A827210170B0062C4605D552
:2036400004A85721417003A847214170F00505D504A87721817003A86721817038461A30E1
:20366000032104AA01F02CF9002802D0029805B0F0BD0B37032103AA384601F021F90028A8
:20368000029802D107480680204605B0F0BDC04626040000C76500001D64000036560000B7
:2036A00026460000900A2020F8B5002867D00446334800688047083C324E0022314615460C
:2036C000306801270246BA43B6180836A1420A46F4D32D4B2B4A072B01D99A18083A96421A
:2036E00000D90026A14247D1C00745D0002D0AD029683940284600D00020002E06D1002957
:203700002AD100260BE0002E26D000203178C907314600D0002100280BD00E460546284668
:2037200001F0F2FE002E08D101F044FF801808300FE0002500292F460ED0304601F0E4FEC4
:20374000002F0DD001F036FF33680B408018C018103028602C460CE020680121884307E05F
:2037600020680121C943084032680A40801808302060204601F006FE044800688047F8BD8C
:20378000800A20200000202000080000840A2020F0B583B0FFF7E0F9000602D0002003B0F7
:2037A000F0BD7824204600F0BBF9000602D0012003B0F0BD2E4D2420285C002807D0642097
:2037C00000F0CCF8000624D0032003B0F0BDAE7A0220002EE3D00746287C019026402E7403
:2037E000687C00280CD102AB01221A70296868680078C97BFDF724FD002801D102986874E4
:20380000FFF756FA002815D001982874384603B0F0BD01F06BFE000602D0042003B0F0BD8C
:20382000144800F023FBFFF7C9FE000606D0052003B0F0BD782E3846B1D1C0E7FF207430F0
:20384000FEF740FB000602D0062003B0F0BD642001F0A0F8000602D0072003B0F0BD01204D
:2038600000F038FA000699D0092003B0F0BDC046380A2020640A2020FCB50C005C40E40FAC
:20388000E40710B4DD02540D2543D6025F007F0D60D00124E407254307242402FF34A742F9
:2038A00050D0CB02440D2343C2024800400D51D00124E407234307242402FF34A04241D0FD
:2038C000C01901B41800290001F0F8FB0F0001B41800310001F0F2FB03000C0010003100FA
:2038E00001F0ECFB06001000290001F0E7FB05007618002202BC01BC55415141A419554133
:2039000051418024A4005B195141FF18514100D564003F19514102D47F00494100E0401CE0
:2039200003242402FF34001B14DD2419A04209D80305F80A4C0520434900090B194310BCB8
:203940002143FCBD0020FF21C900C91D090510BC2143FCBD0021002001B0FCBDF0B583B0E1
:2039600005460026F4433549887A002862D02420085C00285ED1087D00280BD0681E80B286
:20398000272804D8E8B2FEF7F5FB344652E00020FEF7F0FB00967D20C600B54200D3354693
:2039A000042D00D804253046294601F08FFA401E01AB1870214D29686868007849780127B4
:2039C0003A46FDF73DFC002834D101A80478611C304601F07BFAE881A87A002829D0012CB6
:2039E00001D802A815E0042C02D802A8022710E00A2C02D802A803270BE0182C02D802A8EB
:203A0000042706E0312C02D802A8052701E002A806270770E87AB8420BD029686868007849
:203A20008978012202ABFDF70BFC002801D10298E872009C204603B0F0BDC046380A2020E2
:203A4000F0B585B01E4614460391054600200490C7432F48006880472868401C4BD00294EE
:203A6000042C324601D0002A45D001972B1D68686F6900280ED0390705D5401E0093FFF7FF
:203A800013FE009B3246082087430498186058609860D8600120029C012C00D804460721DE
:203AA0008F4327436F61FF2A164600D906020398002804D0012A02D0401C18600CE0761CAE
:203AC00030461C4601F0A0FD2060002819D0401C686008210F436F618119491EA860E9602E
:203AE00028610C48006880470948006880470A480A490160049F074800688047384605B0E0
:203B0000F0BD0120800207436F61019FF3E7C046800A2020840A2020700A20209D5100007B
:203B200070B582B004464006400F02D06846012105E06846002C01D0002100E0402101704A
:203B40002D4D296868680078897C01226B46FDF777FB00281CD16B461878BF2101402973C0
:203B6000210904208843A10600D4801C102121404A424A418018210700D438301870296857
:203B800068680078C97C0122FDF75AFB002804D00021C843A97202B070BDF720044222D0BB
:203BA0002326A85D00281ED0A87C411E02468A41510001AA11702221695C002907D000285E
:203BC00001D07D2000E07F20C04301A90870296868680078097D012201ABFDF731FB00285D
:203BE00001D10020A855AC7200242C75322001F0CDF9204602B070BD380A2020FCB401274B
:203C0000FF07794002E0FCB40127FF070C024D002D0E03D1002C52D1FCBC70473C43FF2D52
:203C200050D0A408002900D56442020243001B0E04D1002A43D10800FCBC70473A43FF2B73
:203C400041D09208002800D552425E1B04D5170022003C0076422B00192E06D527003741BD
:203C6000D2191C27F71B7F42BC40002A27D002D55242012700E00027013B5200FCD5150018
:203C8000802635400FD01500202635402C43803208D21500402635402C4304D101263602CC
:203CA000B24300E05B1C5200023308DDFF2B0BD2500ADB051843FF073843FCBC70470020A0
:203CC000FCBC70470800C70FFF07FF20C0053843FCBC7047F0B585B0314E2427F15D0024AD
:203CE000814259D0002835D02520305C0025002851D0002902D1B07A00280CD002AB1D7008
:203D0000316870680078C97B0122FDF799FA002801D1029870742846FFF7D4FBF08CFFF7AF
:203D20001DFE01AB1D7070680078232101252A46FDF786FAF55503AB02201870316870687E
:203D40000078C97B2A46FDF77BFA002820D1039870741DE0002902D1B07A00280DD004AB5F
:203D600000201870316870680078C97B0122FDF767FA002801D104987074307C01AB18709C
:203D80007068007823210122FDF75AFA0020F055FEF78EFF00E0EC43204605B0F0BDC04660
:203DA000380A202084B001F0D9FAFFF767F90020039002900190274801F046FBFFF7E8FCE2
:203DC00000281ED0244C204601F03EFBC82001F0DDF8FFF7DDFC002813D0204601F034FBBF
:203DE000C82001F0D3F8FFF7D3FC002809D0204601F02AFBC82001F0C9F8FFF7C9FC002860
:203E0000E1D1164801F020FB164C154E05E0304601F01AFBC82001F0B9F803A802A901AAD5
:203E2000FEF79CFA0028F2D1039801F065F90746029801F061F90546019801F05DF9009035
:203E4000204609493A462B4601F072F9204601F041FADFE7C0650000AC650000CF6400009C
:203E60008F650000600C2020AE64000010B500228156002913460CDD03214456002C114626
:203E800017DD06240457002C1BDD19431143084610BD00291FD40123C1560029ECDC002949
:203EA0002DD40223C1560029E6DC002935D00623E2E7002C11D40421415600290FDD0821AF
:203EC000DFE701221202002CDFD407240457002C0DDD4022D9E70423CEE72021D1E700294A
:203EE0000FD40521415600290FDD1021C9E7002C09D40824005700280BDD8022C5E705231A
:203F0000BAE72821BDE74032BFE7002907D03021B7E7002805D0802004E00723ACE7382175
:203F2000AFE7C0201218B0E7F0B585B00446284E2420305C002802D0002005B0F0BD002044
:203F4000C743B17A00293FD0FE221440357C21403174A14200D0C043002C14D1317D00292B
:203F600011D1044604AB00201870316870680078C97B0122FDF764F9002801D104987074A3
:203F8000204605B0F0BD717C002913D103AB01221A70316802917168097801910299C97B0D
:203FA00002900198FDF74CF901460298002901D103997174002CE4D00446FEF779FE014663
:203FC00020460029DDD03574384605B0F0BDC046380A2020F0B585B005460024E743254EAE
:203FE0002420305C002842D0B07A00283FD002910392316870680078897A022204ABFCF77C
:204000005FF8002833D104A80178090240780A18AA4203D200210398017028E0706841887C
:20402000490801928A420DD900783168497C012204ABFCF745F8002819D104A80078C00616
:2040400012D4706800783168C97AEAB2029BFCF737F800280BD10198294600F037FF411E62
:2040600003980170274602E0FEF722FE7F1E384605B0F0BD380A2020F0B58B4200D18242CA
:2040800004D90B0002000021002040E0002B00D1002A0CD10B00020000210020002B00D188
:2040A000002A01D0C943C04300F07BFE2FE01C0015000B0002000CB4002126002F00FF19F2
:2040C000764102D2491C4029F9D100201E001700FF19764102D2401C4028F9D10E1A2100EE
:2040E0002800320001F0E4F90C0005000CBC00200021A34200D1AA4201D3521BA341404136
:2041000049416D08E7073D436408761EF1D5059F002F01D03A607B60F0BD002A49D0844699
:204120008B071CD1830722D1102A08D370B4103A78C978C0103AFBD270BC103238D0042ACC
:204140002CD3082A05D30C2A01D308C908C008C908C008C908C092072AD0920F22E00B78C8
:204160000370491C401C521E22D08B07F7D1C30714D18307D8D0121F12D308C903801B0CDD
:204180004380001D121FF8D20AE008C903701B0A43701B0A83701B0AC370001D121FF4D2BA
:2041A000121D05D00B780370491C401C521EF9D160467047FCB40127FF0706004E4001D466
:2041C000002600E03E00020243001B0E30D03A43FF2B30D00C024D002D0E29D03C43FF2D4A
:2041E00029D05B194240504042404C4061404C4000B500F063FF20BCAE464240504042409A
:204200004C4061404C4025001400002C01D46400013B803401D3013364087E3B08DDFF2B1B
:2042200009D2BC43200ADB0518433043FCBC70470020FCBC7047FF20C0053043FCBC704708
:20424000F0B581B001460025E8431E4EB27A002A2ED08A1E0121CA41072A29D87A441279E1
:2042600052009744030C2507252525106A46002111700CE0694610220A70022107E06A4604
:204280000823137003E0694618220A700321727A8A4213D006CE1478C97901226B460746A8
:2042A0002046083EFCF7CCFF01463846002901D001B0F0BD68460078C0087072284601B088
:2042C000F0BDC046380A2020004870477C0A2020024670B50A4392072AD11E4DEE0104C870
:2042E00008C9541B9443344017D0D0B2D9B2401A2106014310D190B299B2401A2104014349
:204300000AD110021902000A090A401A2102014302D1100E190E401A70BD9A42DFD010BAC3
:2043200019BA884201D9012070BD0020C04370BD02780B7801300131002A09D09A4207D151
:2043400002780B7801300131002A01D09A42EFD0D01A70BD01010101FCB40127FF07060068
:204360004E40F60FF607020243001B0E2DD03A43FF2B2DD00C024D002D0E26D03C43FF2D65
:2043800026D05B1B0020202164085208A2424041A24200D3121B013904D0002A01D05200E6
:2043A000F4D18840384201D14000013B803001D3013300E040007F3307DDFF2B08D2400AEC
:2043C000DB0518433043FCBC70470020FCBC7047FF20C0053043FCBC70477047FEB50446B7
:2043E0000025EF430168481C06D002916669204600F0AEFC002802D03D462846FEBD01209A
:20440000000306400196207D000707D56068401EFFF74AF960690821884360616560A56095
:20442000E560206800F0BEFC0546276001980028E3D006480068804702980001044908183A
:2044400001F027F9034800688047D6E7800A2020C00B2020840A2020F8B5451C00780023C8
:20446000082B32D02F78C2070CD16A780F241440E41C122C0BD102242E57F4B2002E08D4DC
:20448000EE1C0EE06D1C4A1C0F7011461AE0AE1C08E02E1DED7800957F252C40009DED01D3
:2044A0002C1912343D0112095219094DAA420ED0D243002C05D08D5C4F1C0D70641E3946A5
:2044C000F7E7354640085B1CCAE72846C5E7F8BDFF0F0000FEB502930F46194D0024E143EB
:2044E000184E00973740019043422B46BB4101D20C4623E0084602990E405342B54101D208
:2045000004461BE0134601990B433E431E43029D009E13D02B46334004D401998B1A33469F
:20452000AB4103E00199531A2B46B341044605DB51406E400E43701E864134462046FEBD96
:204540000000F07FFFFFFF7F80B5FFF7E6FD80BD0CB41B4B4A00D21A1BD2000D0A0310436F
:2045600001221202801802D3400812038918400A002902D50122D20710434900490D382207
:204580001201891A0CD4FF290DD2C90508430CBC7047DB431A40024305D0D8430CBC7047BA
:2045A00000200CBC7047C90FC907FF20C00508430CBC7047C046C046C046C046C046C046E2
:2045C0000000E0FFF0B581B001460025E843194EB27A002A27D06A46BC2901D3012110E060
:2045E000622901D302210CE02A2901D3032108E0142901D3042104E00A2901D3052100E0F3
:2046000006211170F27A8A4211D006CE1478897801226B4607462046083EFCF711FE014662
:204620003846002901D001B0F0BD0098F072284601B0F0BD380A2020F8B515460E460746B3
:20464000154800688047154C2770380A6070A670300AE070300C2071300E6071A571280A00
:20466000E071F420002521462A462B4600F0CAFD2046294600F0ACFD2078617809020818A7
:20468000A17809044018E178090644180448006880472046F8BDC046800A2020C40C202062
:2046A000840A202070B59AB00D46064615480068804701AC2046314600F08BFF304600F028
:2046C00096FF06462018401C294600F082FF284600F08DFF3018831C0B4DF720294622466E
:2046E00000F090FD0021284600F072FD287869780902081804B205480068804720461AB041
:2047000070BDC046800A2020C40C2020840A202012498220086501208004024682324A6504
:204720000F4A104B1360104A8A6381220A604A600E4903220A600A640D490A6810231343AF
:204740000B600C490A6A02430A620A6802430A6009480421016001637047C0460480424055
:20476000A080424081000D008100010090120A40A0130A4028100A40A0320A4010B51449DE
:20478000144C204600F0FCFE1349204600F032FB124801680322D303994301600169104BCA
:2047A0000B401A330361416911433C22914341614168012211404368934359184160094929
:2047C0000B6894021C430C6001681143016010BDCA65000000801040C66200000091104012
:2047E0000000FFFF2890104070B514460D4606461648006880473068401C1FD0012C08D11F
:20480000307DC00605D5B068002802D031694019451A304600F09CFA7069052149028843D6
:20482000706130682946224600F0C0FD0446084800688047601C06D0002404E004480068B4
:2048400080470020C443204670BDC046800A2020840A2020FEB5044600680021425C002AEB
:2048600017D03A2A01D0491CF8E74618134D22D008290F4600DB0827002912D06A4639465E
:2048800003781370002B06D0521C401C491EF7D107E00A4D0FE0022903D3501C491E00F02F
:2048A000ADFE68460021C15500F0E0FC002802D0711C216005462846FEBDC0467009202061
:2048C000F0B583B003460026F043002A1CD0164FBC7A002C18D01C0A02AD2C706B70DBB2C0
:2048E0005C187B685D89AC420ED8009101921D783968097E022202AB04462846FCF7A0FCAE
:2049000001462046002901D003B0F0BD396878680078497D009AD2B2019BFCF791FC00286F
:20492000F2D0F04303B0F0BD380A2020F8B50446164F174D0E462E400120009464423C4641
:20494000B4411AD31D405442AF4116D31046009C20433543054311D00020C0431C460C40E2
:204960000ED4009CA41A0C469C4106DB0098504059400143481E81410846F8BD0020F8BDE6
:20498000009C141B1C468C41F0DAF6E70000F07FFFFFFF7F70B586B00025EC4311490591EC
:2049A0001149049111490391C82818D80646C1B2C82000F08BFA01AA1570401E50700C487C
:2049C0000221FFF77DFF002809D10A480C2103AAFFF776FF002802D1074806802C46204601
:2049E00006B070BDBBAFDFDFAAF1DFDFFEF2ABC416020000C10A0000980A202010B5044620
:204A000001680020491C25D06269D10623D4100605D500210222204600F037FE62699006F9
:204A200004D4500602D52020024362616168012000290DD1042111400AD103200240012061
:204A4000030200212046FEF7FBFF014640424841E168216110BD012189020A43626110BD67
:204A6000F8B50446026801251046A843401A102821D366180838B0600836A8433718083763
:204A80000E4A0F48072A01D910180838009187420DD23878C0070AD1384600F035FD306831
:204AA000E94308403A680A40801808303060304600F068FC009A2A432260F8BD0008000026
:204AC0000000202010B5FFF731FF002801D0002010BD012010BDC04610B5FFF727FF0028C8
:204AE00001DB002010BD012010BDC04610B5FFF71DFF002801DD002010BD012010BDC0463B
:204B000010B5FFF7E7FC002801DA002010BD012010BDC04610B5FFF7DDFC002801DC00205A
:204B200010BD012010BD8446830706D0002A29D001700130013A8307F8D1042A1CD3090611
:204B4000090E0B0219430B041943082A10D30B00102A09D370B40F24161B22400C000D0031
:204B60003AC0103EFCD870BC082A01D30AC0083A042A01D302C0043A002A03D0013A8154CC
:204B8000013AFCD260467047F8B514460F460646124800688047124D2C70200A6870AF7062
:204BA000380AE8700023F05C5B1C0028FBD1F0202946324600F026FB0021284600F008FBF7
:204BC000287869780902081805B2064800688047002D00D425462846F8BDC046800A202096
:204BE000C40C2020840A202010B511480068C0B20B281BD10F48C1690F4A13887E2B10D8BA
:204C000013885C1C14800D4AD1540268D20705D00268D20702D00268D207F6D1C9B28161DD
:204C200001E00020108006480121017010BDC04620901040089110406E0A2020F008202056
:204C40006D0A202083B01EB505AC0EC401900F48006880470E4A9069401C0DD005A9029132
:204C60000C48009018320C4B01A8FBF7B5FE04460A480068804704E0084800688047002013
:204C8000C44320461EBC02BC03B00847800A202000082020835600007B560000840A202083
:204CA000F8B516460C460746104800688047FF2E01D9012006020E4D2F70380A6870AE7063
:204CC000300AE870F22000222946134600F09AFA2846214600F07CFA2878697809020818DB
:204CE00004B20448006880472046F8BD800A2020C40C2020840A2020F8B515460C46074619
:204D0000104800688047FF2D01D9012005020E4E3770380A7070B570280AF070F320314678
:204D200022462B4600F06EFA0021304600F050FA307871780902081804B204480068804784
:204D40002046F8BD800A2020C40C2020840A202070B504460025EE430068411C18D0616855
:204D6000626993060BD5002909D0A3688B4206D05A1A00F02FFB00280DD461686269216192
:204D8000A160500605D5302082430025626100E03546284670BD606901218A0202433546B8
:204DA000F4E7704770B50026F44300281AD40546092817D80C4800688047E8000B4A115835
:204DC00000290CD015180969686888470446401C05D0286841890122914341812E60044828
:204DE00000688047204670BD800A2020E8092020840A202070B511221302C218C45801259F
:204E0000AC43C4500C888D7825438C882C43C558084E2E40084D25407419C4508879CB798A
:204E20000343087A184351687E23994318400818506070BDE798FDFF18670000B0B505461A
:204E40000D48006880470D4C2570280A6070F120002521462A462B4600F0D4F920462946CE
:204E600000F0B6F9207861780902081804B20448006880472046B0BD800A2020C40C202019
:204E8000840A2020B0B504460D48006880470023E05C5B1C0028FBD10A4DF5202946224604
:204EA00000F0B0F90021284600F092F9287869780902081804B20448006880472046B0BD9F
:204EC000800A2020C40C2020840A20201CB50A0017D000230124E407A04200D204009442A7
:204EE00001D95200FBE790425B41904200D3801A914201D25208F6E71900020008001100E6
:204F00001CBD01000020FFF768FA1CBD08B443001B0E0FD0FF2B11D00721C9015B18C10F1F
:204F2000C9020B43010048074902090B1B05194308BC70470021002008BC704701004002B3
:204F4000C90DC900C91D090508BC704710B50E4902788B185B78401CDB06F9D400212D2AB5
:204F600004D02B2A02D0401E134600E00378303B092B04D80A244C431919401CF6E72D2A2A
:204F800000D14942084610BDD0620000B0B50E497D22120242430B68262006E00D1F2D6814
:204FA000E41A6419201890420DD21C460B68A34205D10B68A34202D10B68A342F6D09C42D6
:204FC000ECD9E41AEEE7B0BD18E000E00C48002101600C48014608390A680323DB43134039
:204FE0000B6001680122914301600168130299430160001F016812030A4302607047C046C1
:2050000008030B4008010B4006B49E22002802D404D106BC7047414204D400E00100013AA9
:205020004900FCD5803101D3013200E04900490AD2051143002802D50122D20711430800A0
:2050400006BC7047B0B50D4940010B68262206E00D1F2D68E41A6419A21882420DD21C463F
:205060000B68A34205D10B68A34202D10B68A342F6D09C42ECD9E41AEEE7B0BD18E000E0FE
:2050800070B50A480A4C84420CD00A4D0A4EB54208D02A686968501C12789200A258904767
:2050A0000835F4E700BF00BF70BDC04654660000486600005C6600006C660000FCB4020C6D
:2050C0000B0CFF242402FF34204021400C00444315005D4306005E430F005743320C3B0C5F
:2050E000A818C01832043B040025A1186841C9186841FCBC7047704706B54100090E7F39A1
:205100000DD41F22511A0CD9864600020122D2071043C8407246002A00D5404206BD0020DC
:2051200006BD02000120C007002A00D4401E06BD82B0F8B5069207930291019006A903912B
:2051400007480090074B02A801AAFBF745FC019900220A7004B080BC02BC02B00847C046AB
:205160003D5500006956000080B5074807494160074A5160074B59600749016011601960C1
:20518000102000F047FA80BD00080A40030000B100280A40008810400100002670B50A4C7F
:2051A0002046FFF71BF91834084D28680126864209DA2168002903D42046FFF70FF92868FF
:2051C000761C1834F3E770BD00082020780A2020B0B50B4A13680024082C04D015192D79AB
:2051E0000555641CF8E7002909D00C32002B06D010784C1C08705B1E521C2146F6E7B0BDB5
:20520000A00A202070B50B4C236020710020082804D00D5C26187571401CF8E70D34002BBC
:2052200006D0501C117821705B1E641C0246F6E700BF70BDA00A2020044609480068804754
:20524000084D6968002901D0204688472868002800D0804704480068804700F032FAC0460D
:20526000800A2020700A2020840A2020F8B504460078002500280ED000952827074E782F62
:2052800008D0F51928462146FFF722F8002802D02837F4E7009D2846F8BDC0467009202090
:2052A00010B50146084A537A0020032B0AD8DB00064CDC400C70D27C002A02D0044ADA401C
:2052C0000A7010BDC04310BD380A20200204081004081020002813D00178002910D0094AFB
:2052E0001368DB0705D01368DB0702D01368DB07F6D1431C916103D0417800291846EFD105
:205300007047C046089110401CB5019007480068804701A8FFF79EFA016A019888470446B3
:2053200003480068804720461CBDC046800A2020840A202002B49E21002805D401D102BC10
:20534000704701394000FCD5803001D3013100E04000400AC905084302BC704780B500F078
:20536000E1F80120C0030449086004490860044800F06AF880BDC04680E200E000E100E022
:20538000ED640000B0B5016801229143064B1C68002C06D0256895438D4202D20834234673
:2053A000F5E784601860B0BDCC0C2020B0B503460020C043002B0AD4092B08D8DB00044C17
:2053C000E558002D03D0ED69E0184068A847B0BDE8092020B0B503460020C043002B0AD433
:2053E000092B08D8DB00044CE558002D03D0AD69E0184068A847B0BDE8092020084880F32B
:20540000088800BF00BF00F05AF9002801D0FFF737FE0020FEF7C6FC0120FFF70DFFC04617
:205420000080202030B514004C4325001C0044436419050010002900FFF740FE0019040050
:205440000D002100280030BDB0B5064C18342146FDF7BCFF054604482146FDF7B7FF4019EF
:20546000B0BDC04600082020CC650000B0B504460020002B08D0D2B20D782570954204D025
:20548000641C491C5B1EF7D1B0BD601CB0BD704706490A68D20705D00A68D20702D00A68DB
:2054A000D207F6D1C2B28A617047C0460891104018B520239B1A04D8010000205B4299400F
:2054C00004E004009140DC402143904018BD00000548042101601F214160002181600168CF
:2054E00005220A430260704710E000E080B50449012082020348C823FDF782FC80BDC0463D
:20550000D0560000F60B0000054A1368002B06D011461A4608328342F7D180680860704714
:20552000CC0C202080B5FFF71FFEFFF7F1F8FFF74DFDFFF723F9FFF7CBFF80BDB0B514461E
:205540000D4601462868FEF7FFFF2868001928602046B0BD03228058002805D0401E4A1C6C
:2055600000230B701146F7E77047000040B584B002AE0096FEF780FD029A039B04B040BDD5
:2055800010B50122120383180C789C604978815010BD80B50B4603214258C11D1846FEF71F
:2055A000D3FF80BD00214258091D002AFBD1081F8010704728680121C943084022680A40BD
:2055C000704700000B4611461A4680B5FFF7ABFA80BD00228B5C8354521C002BFAD1704704
:2055E0000021425C491C002AFBD1481E70470021425C491C002AFBD1481E70470A460021CC
:2056000080B5FFF790FA80BD80B501460820FDF7CDFD80BD811E091F00BFFCD270470246A6
:205620000B4628463946FFE782B00094014C019410BD00BF7938000002460B4620462946F3
:20564000F2E702460B4630463946EDE706980799039A049B00E0000082B00094014C01940D
:2056600010BD00BFC13200000A68531C0B6010707047069C20463946D6E780B5FFF708FFB2
:2056800080BD80B5FDF7A2FE80BD80B5FFF7ACF880BD80B5FFF738FE80BD31462246FFE758
:2056A00082B00094014C019410BD00BFD726000028463946B8E72346F2E79FE6704701208E
:1056C000704700BFFEE7000000000000000000007F
:2056D0000000700000000024000000020003000000650054FFEF0000FA80000B1282000160
:2056F000030C30C30E8C8CE914D5400213710F8E3883F8833000F883258EF8833000F88383
:20571000FFFFFFFF0FFEA9D6240004001A8279A10000003CFFFF00000010000038836FA2FD
:20573000003E03304000000002CAE3093E8000002000000000000000400000006000000072
:20575000000C0000000C186E000006920A16C0DFFFFF0256FD8CD377FFE1C496E0C5BEAAD4
:2057700000000000FFFF0B2B00001657000003594000000000001DFA00026C1D000000003A
:205790003FFFDFEB003EB3B6000D227800002F3C00000000001942B5000039A20000B36535
:2057B000D90E9FC91DCF4C3430000000500000003BB67AE80064000000C80000000000001F
:2057D000100000001000FA921000225E000D229F0001000000320000FF46000063D4000000
:2057F0001000000004D6000004CC000004CC0000000010720000004000000000000000004D
:20581000000600020005000700000000006400000000000000000005000500640020000072
:205830000000000000000000000040000000030000000032F8980000FF650000830F00005D
:20585000FF9BFC0000000000000000000000000000000000000000000000000000000000A2
:205870000000000000000000000000000000100040000000000000060000B26A00020000A4
:205890000001FB830068000000D9FC007CF1FF830000000000650000006403E8006400280D
:2058B000000000250000000016A000000000100000001000002F0000000001F400001000A9
:2058D00000280000FFFF4581FFFFFA720000000000000000004400050005BAC6004778A233
:2058F000000000010000000000000600000000140000254D002F706D000005AE000C02D06E
:2059100000000000000000000000000000000000001B00000000000000000000000000005C
:205930000064000000080000000000000000000000000000000000000000000000000000EB
:20595000000000000000000000000000000000000000000000000000000000000000000037
:20597000000000000000000000000000000000000000000000000000000000000000000017
:20599000001B00000000000000000000000E000E00000AC70004000000000032FFFFFF9C20
:2059B00000000B2B000000020000000100000064FFE5000000000000000000000000000056
:2059D00000000001000000000001000000000000000180000001800000018000002426D315
:2059F0000000000000000000000600100096003C00000000000000000000000000000000AF
:205A10000C0A4E68CDCF770950166759C619CE820000000000000000000000000000000039
:205A3000000000000000000017D78400030000000000000000000000C7938F9D1E1B1C19ED
:205A5000000000000000000000000000000000000000000000000000020318850000400054
:205A70000000000300000003000000000000000040000000000000000000000000000000D0
:205A90000000000000000000000000000000000000000000000000000000000000000000F6
:205AB00000000000677DDF7E72902E554CF6E6880000000000000000000000000000000060
:205AD000D8DCB4B8B0D8B9ABF3F8FAB3B7BB8E9EAEF132F51BF1B4B8B08097F1A9DFDFDF38
:205AF000AADFDFDFF2AAC5CDC7A90CC92C97F1A989264666B28999A92D557DB0B08AA89680
:205B1000365676F1BAA3B4B280C0B8A89711B28398BAA3F0240844106418B2B9B49883F136
:205B3000A329557DBAB5B1A38393F0002850F5B2B6AA839328547CF1B9A3829361BAA2DA68
:205B5000DEDFDB819AB9AEF5606870F1DABAA2DFD9BAA2FAB9A38292DB31BAA2D9BAA2F8B4
:205B7000DF85A4D0C1BBAD83C2C5C7B8A2DFDFDFBAA0DFDFDFD8D8F1B8AAB38DB4980D3584
:205B90005DB2B6BAAF8C96198F9FA70E161EB49AB8AA872C547CBAA4B08AB691325676B2B3
:205BB0008494A4C808CDD8B8B4B0F19982A82D557D98A80E161EA22C547C92A4F02C50789B
:205BD000F184A898C4CDFCD80DDBA8FC2DF3D9BAA6F8DABAA6DED8BAB2B68696A6D0F3C85F
:205BF00041DAA6C8F8D8B0B4B882A892F52C548898F135D9F418D8F1A2D0F8F9A884D9C7CC
:205C1000DFF8F883C5DADF69DF83C1D8F40114F1A8824EA884F311D182F5D992289788F1B3
:205C300009F41C1CD884A8F3C0F9D1D99782F129F40DD8F3F9F9D1D982F4C203D8DEDF1A40
:205C5000D8F1A2FAF9A88498D9C7DFF8F8F883C7DADF69DFF883C3D8F40114F198A8822E60
:205C7000A884F311D182F5D992509788F109F41CD884A8F3C0F8F9D1D99782F149F40DD83A
:205C9000F3F9F9D1D982F4C403D8DEDFD8F1AD8898CCA809F9D98292A8F57CF1883ACF946B
:205CB0004A6E98DB6931DAADF2DEF9D88795A8F221D1DAA5F9F417D9F1AE8ED0C0C3AE8233
:205CD000C684C3A88595C8A588F2C0F1F4010EF18E9EA8C63E56F554F18872F40115F19864
:205CF00045856EF58E9E0488F142985A8E9E068869F4011CF1981E1108D0F504F11E970225
:205D100002983625DBF9D985A5F3C1DA85A5F3DFD88595A8F309DAA5FAD88292A8F578F11C
:205D3000881A849F26889821DAF41DF3D8879F39D1AFD9DFDFFBF9F40CF3D8FAD0F8DAF9A7
:205D5000F9D0DFD9F9D8F40BD8F3879F39D1AFD9DFDFF41DF3D8FAFCA869F9F9AFD0DADE95
:205D7000FAD9F88F9FA8F1CCF398DB45D9AFDFD0F8D8F18F9FA8CAF38809DAAF8FCBF8D83B
:205D9000F2AD978D0CD9A5DFF9BAA6F3FAF412F2D8950DD1D9BAA6F3FADAA5F2C1BAA6F393
:205DB000DFD8F1BAB2B68696A6D0CAF349DAA6CBF8D8B0B4B8D8AD84F2C0DFF18FCBC3A8EA
:205DD000B2B68696C8C1CBC3F3B0B48898A821DB718D9D71859521D9ADF2FAD88597A82880
:205DF000D9F408D8F28D29DAF405D9F285A4C2F2D8A88D9401D1D9F411F2D88721D8F40A2A
:205E1000D8F28498A8C801D1D9F411D8F3A4C8BBAFD0F2DEF8F8F8F8F8F8F8F8D8F1B8F6F4
:205E3000B5B9B08A95A3DE3CA3D9F8D85CA3D9F8D87CA3D9F8D8F8F9D1A5D9DFDAFAD8B120
:205E50008530F7D9DED8F830ADDADED8F2B48C99A32D557DA083DFDFDFB591A0F629D9FB8C
:205E7000D8A0FC29D9FAD8A0D051D9F8D8FC51D9F9D879D9FBD8A0D0FC79D9FAD8A1F9F921
:205E9000F9F9F9A0DADFDFDFD8A1F8F8F8F8F8ACDEF8ADDE8393AC2C547CF1A8DFDFDFF6A8
:205EB0009D2CDAA0DFD9FADB2DF8D8A850DAA0D0DED9D0F8F8F8DB55F8D8A878DAA0D0DF0B
:205ED000D9D0FAF8F8F8F8DB7DF8D89CA88CF530DB38D9D0DEDFA0D0DEDFD8A848DB58D998
:205EF000DFD0DEA0DFD0DED8A868DB70D9DFDFA0DFDFD8F1A888902C547C98A8D05C38D1B6
:205F1000DAF2AE8CDFF9D8B087A8C1C1B188A8C6F9F9DA36D8A8F9DA36D8A8F9DA36D8A81F
:205F3000F9DA36D8A8F9DA36D8F78D9DADF818DAF2AEDFD8F7ADFA30D9A4DEF9D8F2AEDE60
:205F5000FAF983A7D9C3C5C7F1889BA77AADF7DEDFA4F8849408A797F300AEF29819A488EC
:205F7000C6A39488F632DFF28393DB09D9F2AADFD8D8AEF8F9D1DAF3A4DEA7F1889B7AD8C9
:205F9000F38494AE19F9DAAAF1DFD8A881C0C3C5C7A39283F628ADDED9F8D8A350ADD9F847
:205FB000D8A378ADD9F8D8F8F9D1A1DADEC3C5C7D8A18194F818F2B089ACC3C5C7F1D8B8D9
:205FD000B4B09786A8319B069907AB9728889BF00C201440B0B4B8F0A88A9A285078B79BFF
:205FF000A8295179247059446938644831F1BBAB88002C547CF0B38BB8A804285078F1B049
:2060100088B49726A85998BBABB38B02264666B0B8F08A9CA82951798B2951798A24705958
:206030008B2058718A4469388B3940688A6448318B30496088F1AC002C547CF08CA80428C5
:206050005078F1889726A85998AC8C02264666F0899CA8295179247059446938644831A985
:206070008809205970AB11384069A8193148608CA83C415C207C00F187981986A86E767EFD
:20609000A999882D557DD8B1B5B9A3DFDFDFAED0DFAAD0DEF2ABF8F9D9B087C4AAF1DFDF80
:2060B000BBAFDFDFB9D8B1F1A3978E60DFB084F2C8F8F9D9DED89385F14AB183A308B58396
:2060D0009A0810B79F10D8F1B0BAAEB08AC2B2B68E9EF1FBD9F41DD8F9D90CF1D8F8F8AD35
:2060F00061D9AEFBD8F40CF1D8F8F8AD19D9AEFBDFD8F416F1D8F8AD8D61D9F4F4ACF59CB9
:206110009C8DDF2BBAB6AEFAF8F40BD8F1AED0F8AD51DAAEFAF8F1D8B9B1B6A3839C08B90A
:20613000B1839AB5AAC0FD3083B79F10B58B93F20202D1ABDADED8F1B080BAABC0C3B28438
:20615000C1C3D8B1B9F38BA391B609B4D9ABDEB0879CB9A3DDF1B38B8B8B8B8BB087A3A3FE
:20617000A3A3B28BB69BF2A3A3A3A3A3A3A3A3A3A3F1B087B59AA3F39BA3A3DCBAACDFB923
:20619000A3A3A3A3A3A3A3A3A3A3A3A3A3A3A3A3D8D8D8BBB3B7F1AAF9DAFFD9809AAA28E0
:2061B000B48098A720B79787A86688F07951F1902C870CA781976293F071716085940129AE
:2061D000517990A5F1284C6C870C95188578A38390284C6C886CD8F3A28200F210A89219D4
:2061F00080A2F2D926D8F188A84DD948D896A83980D93CD89580A839A68698D92CDA87A792
:206210002CD8A8899519A980D938D8A88939A980DA3CD8A82EA83990D90CD8A8953198D915
:206230000CD8A809D9FFD801DAFFD89539A9DA26FFD890A80D8999A810809821DA2ED88948
:2062500099A83180DA2ED8A886963180DA2ED8A8873180DA2ED8A88292F34180F1D92ED807
:20627000A882F31980F1D92ED882ACF3C0A28022F1A62EA72EA92298A829DAACDEFFD8A2B8
:20629000F22AF1A92E8292A8F23180A696F1D900AC8C9C0C30ACDED0DEFFD88C9CACD010D2
:2062B000ACDE8092A2F24C82A8F1CAF235F19688A6D900D8F1FF00001800000000300000A8
:2062D0000080808080808080808090909090908080808080808080808080808080808080DE
:2062F000801804040404040404040404040404040402020202020202020202040404040492
:206310000404434343434343414141414141414141414141414141414141414104040404AF
:206330000404232323232323212121212121212121212121212121212121212104040404CF
:206350008000000000000000000000000000000000000000000000000000000000000000AD
:2063700000000000000000000000000000000000000000000000000000000000000000000D
:206390000000000000000000000000000000000000000000000000000000000000000000ED
:2063B0000000000000000000000000000000000000000000000000000000000000000000CD
:2063D0000050726F647563742049442072656164206173203020696E64696361746573202B
:2063F0006465766963652069732065697468657220696E636F6D70617469626C65206F7268
:2064100020616E204D5055333035302E000CC92C4FBB610567ACDD3F182D4454FB21E93FB4
:206430009BF681D20B73EF3F182D4454FB21F93FE2652F227F2B7A3C075C143326A6813C60
:20645000BDCBF07A8807703C075C143326A6913C83000000000800000001001832000500E1
:20647000000020410000D242295C0F3E9A99993E3333733F295C0F3E556E737570706F7265
:2064900074656420736F6674776172652070726F64756374207265762025642E0A007069DC
:2064B000746368203D2025642C20726F6C6C203D2025642C20796177203D2025640A004986
:2064D0006E697469616C697A6174696F6E20446174612053756363656564200D00426F6178
:2064F000726420496E6974205B5B202A2A204C434B4642202A2A205D5D0D0048616C662040
:2065100073656E7369746976697479207061727420666F756E642E0075191A0C6A231B1CE7
:206530001F207274433B4138393A6B6C376F06246D6E704E6F7420466F756E64204D50556B
:2065500036303530204D6F64656C004D505536303530204944203D2025780D0A0030313221
:20657000333435363738394142434445460030313233343536373839616263646566004456
:2065900061746120676574206572726F720D00006800000476005401F7FD0001444D5020D1
:2065B0006572726F720D006D70753D25640D0A0073746172740D004CCD6C04000A00000097
:2065D000005500000F0112014001018F012202C01502030F01240440FF000004BF02017FA7
:2065F0007EFE013F780200894B00003DFF4E0000A14C0000F9BE0030394600008500F0A58A
:206610003C00700BBF3E7009202000751DB1F800F11CBF02133F1628650000A08C0030168D
:206630003F0E606424B3003526F503062784F75000331ABF03FFF000594400009355000094
:20665000555500000200000030020000D06500000008202054660000A00A2020000000002B
:00000001FF
