:020000040000FA
:100000006002202085010000890100008B010000B2
:1000100000000000000000000000000000000000E0
:100020000000000000000000000000008D01000042
:1000300000000000000000008F010000910100009E
:100040009301000093010000930100009301000060
:100050009301000093010000930100009301000050
:100060000000000093010000930100000000000068
:10007000000000009301000093010000292100000E
:100080009301000093010000930100009301000020
:100090009301000093010000000000000000000038
:1000A0009301000093010000000000000000000028
:1000B0009301000000000000930100009301000084
:1000C00000F002F800F04FF812A030C808382418E9
:1000D0002D18AC4201D100F046F80FCCA246AB4639
:1000E0000CA730CF2D1B083F3F197C427F1E544484
:1000F0002D090426F441641EAC4201D300F033F80C
:100100000126334200D0FB1A3343984754465D46DC
:10011000DFE700002C7B00003C7B000000000000BB
:100120007047000000000000002300240025002686
:10013000103A01D378C1FBD8520700D330C100D5A3
:100140000B60704710B5782902D100F09FF810BD00
:10015000732902D100F046FA10BD002010BD1FB572
:100160001FBD10B510BD00F071FA1146FFF7F7FF83
:1001700002F096FC00F089FA03B4FFF7F2FF03BC2B
:1001800002F034FC06480047FEE7FEE7FEE7FEE724
:10019000FEE7FEE703480449024A044B70470000AB
:1001A000C1000000600120206002202060012020AA
:1001B0000FB4054910B503AA029800F017FA10BC55
:1001C00008BC04B01847000060002020F8B50E46B7
:1001D0000446002020622046E1688847002829D094
:1001E000252802D06268A16820E0E1682046002747
:1001F000884705001ED028464138192802D8012713
:10020000FF0220353246204627602946FFF79AFF35
:10021000002808D0012804D0F61DF608F60008369C
:10022000D9E7361DD7E762682846A1689047206A5B
:10023000401CCFE7206AF8BD70B50C460546012A80
:1002400005D02878800600D5EA69002302E0012362
:1002500005E05B1C934202D2E05C0028F9D1A8695A
:10026000E618C01AA861286AC01828622846C04645
:10027000C04604E06A682078A968641C9047B442CC
:10028000F8D32846C046C04670BD000070B504468D
:100290000D4621461068C046C0462188090502D592
:1002A0000F4A7A4402E00E4A7A440E322346002175
:1002B000243305E006070009360F965D5E54491C9D
:1002C0000028F7D120780023000705D5702D03D032
:1002D000002901D002231132204600F018F970BD28
:1002E000AA29000010B5044603E002F0C7FB401C39
:1002F00008D020780549641C0028F6D10A2002F0B5
:10030000BDFB10BD0020C04310BD000060002020D8
:10031000002203098B4273D3030A8B4258D3030B89
:100320008B423CD3030C8B4221D312E003460B4398
:100330007FD4002243088B4274D303098B425FD3DE
:10034000030A8B4244D3030B8B4228D3030C8B420A
:100350000DD30902FF2212BA030C8B4202D31212F0
:10036000090265D0030B8B4219D300E0090AC30BC5
:100370008B4201D3CB03C01A5241830B8B4201D372
:100380008B03C01A5241430B8B4201D34B03C01A5B
:100390005241030B8B4201D30B03C01A5241C30AD3
:1003A0008B4201D3CB02C01A5241830A8B4201D344
:1003B0008B02C01A5241430A8B4201D34B02C01A2E
:1003C0005241030A8B4201D30B02C01A5241CDD2D3
:1003D000C3098B4201D3CB01C01A524183098B421E
:1003E00001D38B01C01A524143098B4201D34B0107
:1003F000C01A524103098B4201D30B01C01A52416A
:10040000C3088B4201D3CB00C01A524183088B42F0
:1004100001D38B00C01A524143088B4201D34B00D9
:10042000C01A5241411A00D201465241104670474B
:100430005DE0CA0F00D04942031000D34042534050
:100440009C46002203098B422DD3030A8B4212D310
:100450008901FC2212BA030A8B420CD38901921142
:100460008B4208D3890192118B4204D389013AD07F
:10047000921100E08909C3098B4201D3CB01C01A54
:10048000524183098B4201D38B01C01A5241430967
:100490008B4201D34B01C01A524103098B4201D355
:1004A0000B01C01A5241C3088B4201D3CB00C01AC2
:1004B000524183088B4201D38B00C01A5241D9D2DA
:1004C00043088B4201D34B00C01A5241411A00D25B
:1004D00001465241104663465B1001D34042002B57
:1004E00000D54942704763465B1000D3404201B5D6
:1004F0000449002802DC491C084000E00846C046C8
:10050000C04602BDFFFFFF7F704770477047FFB5D1
:1005100004460D4681B0243000902168880604D539
:100520001022E0699143216000E00120A84201DD32
:10053000471B00E000270498A1697A191018081ACF
:10054000A0612078C00602D42046C046C0460026DE
:1005500008E003986268A168805D9047206A401CAB
:10056000761C206204988642F3DB2078C0060AD508
:100570002046C046C04606E06268A1683020904729
:10058000206A401C206238467F1E0028F4DC07E009
:1005900000986268A168405D9047206A401C206214
:1005A00028466D1E0028F3DC2046C046C046207851
:1005B000000602D5022005B0F0BD0120FBE710B512
:1005C0004369002B02D0C046C04601E0FFF734FE6D
:1005D000012010BD1278014624310A7000224A70B1
:1005E0000122ECE711680022D243E8E7084B70B51E
:1005F0000D467B4400F013F80446284600F022F82C
:10060000002802D00020C04370BD204670BD00000D
:100610008724000001694A1C02610878704700B510
:100620008FB002910021059105490193794403910E
:10063000114604906846FFF7C9FD0FB000BD0000E9
:10064000E5FFFFFFC068802108407047754600F055
:1006500025F8AE46050069465346C008C0008546E9
:1006600018B020B5FFF796FD60BCB64600260027FF
:10067000C0C5C0C5C0C5C0C5C0C5C0C5C0C5C0C552
:10068000403D490849008D46704710B50446C046B4
:10069000C0462046FFF770FD10BD000000487047BF
:1006A00000002020811E091F00BFFCD270470000FF
:1006B000B0B51122120283580C4C1C400B894D8896
:1006C0001D438B792B430A4D1D4063198350CB7911
:1006D0008C881C43097821435D239B0019408018B6
:1006E00042689A4351184160B0BDC04680CCFFFFBC
:1006F0007F33000010B50122120383180C785C6070
:100700004978815010BD0000B0B511221202835803
:100710000124A34383508B780C881C438B8823438C
:10072000094C1C408358094D1D402B1983508B796F
:10073000CC791C43097A21437E23194080184268F2
:100740009A4351184160B0BD18670000E798FDFF5B
:1007500010B50122120383180C789C6049788150EF
:1007600010BD0000F0B587B006930292059101908C
:1007700001210806484B18610390CA05474E3260B4
:100780000492CD0735600F0737603446103C256072
:1007900035603760256035602760256035603760DB
:1007A00025603560276025603560376025603560DD
:1007B00027602560356037602560326018600198D9
:1007C000401C019080B2000A01F084FB0198C0B285
:1007D00001F080FB0298401C029080B2000A01F0F8
:1007E00079FB0298C0B201F075FB2B4803990161B7
:1007F000049A326035603760256035603760256067
:10080000356027602560356037602560356027607A
:10081000256035603760256035602760256035606C
:10082000276025603260016005981A30059080B21B
:10083000000A01F04FFB0598C0B201F04BFB06988F
:100840001A30069080B2000A01F044FB0698C0B24C
:1008500001F040FB039810490861049A326035604A
:10086000376025603560376025603560276025601A
:10087000356037602560356027602560356027600A
:1008800025603560376025603560376025603260EF
:10089000086007B0F0BDC04690320A40A0120A407E
:1008A000F0B583B01C4615460E46511E8AB2591E3D
:1008B0008BB202903146FFF755FF0194A64212D247
:1008C000089C04E0761CB0B2019988420BD20298D1
:1008D000A842F7D2029F204601F0EEFA7F1CB8B280
:1008E000A842F8D3EEE703B0F0BD0000F0B585B044
:1008F00001273D05FD4E35606424204602F09AF83C
:100900003046103804900560204602F093F8F80451
:100910003060204602F08EF83806306001460290C2
:10092000F805F34E30600390FD0735603C073460F6
:100930003746103F3D60356034603D60356034605F
:100940003D6035603C603D60356034603D603560E1
:1009500034603D60356034603D6035603C603D60D2
:10096000306004980160782002F064F80299DF4B4F
:100970001960039A326035603C603D6035603460D8
:100980003D6035603C603D6035603C603D60356099
:1009900034603D60356034603D60356034603D609A
:1009A00035603C603D6032600498016032603560C3
:1009B00034603D60356034603D60356034603D607A
:1009C000356034603D60356034603D6035603C606A
:1009D0003D60356034603D6035603C603D60326054
:1009E0003260356034603D60356034603D60356054
:1009F0003C603D6035603C603D6035603C603D6022
:100A000035603C603D60356034603D603560346029
:100A10003D6032603260356034603D603560346026
:100A20003D6035603C603D6035603C603D603560F8
:100A30003C603D6035603C603D60356034603D60E9
:100A4000356034603D6032601960326035603C6012
:100A50003D60356034603D6035603C603D603560D0
:100A60003C603D60356034603D60356034603D60C1
:100A700035603C603D60356034603D6032600160EF
:100A80003260356034603D60356034603D603560B3
:100A900034603D60356034603D60356034603D6099
:100AA00035603C603D60356034603D6035603C6081
:100AB0003D6032603260356034603D603560346086
:100AC0003D6035603C603D6035603C603D60356058
:100AD0003C603D6035603C603D60356034603D6049
:100AE000356034603D6032603260356034603D6056
:100AF000356034603D6035603C603D6035603C6031
:100B00003D6035603C603D6035603C603D60356017
:100B100034603D60356034603D6032601960326041
:100B200035603C603D60356034603D6035603C6000
:100B30003D6035603C603D60356034603D603560EF
:100B400034603D6035603C603D6035603C603D60D8
:100B5000326001603260356034603D603560346021
:100B60003D60356034603D60356034603D603560C7
:100B700034603D6035603C603D60356034603D60B0
:100B800035603C603D6032603260356034603D60AD
:100B9000356034603D6035603C603D6035603C6090
:100BA0003D6035603C603D6035603C603D60356077
:100BB00034603D60356034603D6032603260356085
:100BC00034603D60356034603D6035603C603D6060
:100BD00035603C603D6035603C603D6035603C6048
:100BE0003D60356034603D60356034603D6032604A
:100BF0003260356034603D60356034603D60356042
:100C000034603D60356034603D60356034603D6027
:100C100035603C603D60356034603D6035603C600F
:100C20003D6032603260356034603D603560346014
:100C30003D6035603C603D6035603C603D603560E6
:100C40003C603D6035603C603D60356034603D60D7
:100C5000356034603D6032603260356034603D60E4
:100C6000356034603D6035603C603D6035603C60BF
:100C70003D6035603C603D6035603C603D603560A6
:100C800034603D60356034603D60326019603260D0
:100C900035603C603D60356034603D6035603C608F
:100CA0003D6035603C603D60356034603D6035607E
:100CB0003C603D60356034603D60356034603D606F
:100CC000326001603260356034603D6035603460B0
:100CD0003D60356034603D60356034603D60356056
:100CE00034603D603560346004E0C046A0320A40A4
:100CF000A0120A403D6035603C603D6035603C605C
:100D00003D6032601960326035603C603D60356046
:100D10003C603D60356034603D60356034603D600E
:100D2000356034603D60356034603D60356034600E
:100D30003D60356034603D60326001603260356036
:100D40003C603D60356034603D6035603C603D60D6
:100D5000356034603D6035603C603D6035603460D6
:100D60003D6035603C603D6035603C603D603260B8
:100D70003260356034603D60356034603D603560C0
:100D800034603D60356034603D6035603C603D609E
:100D9000356034603D6035603C603D6035603C608E
:100DA0003D6032603260356034603D603560346093
:100DB0003D60356034603D60356034603D60356075
:100DC00034603D6035603C603D60356034603D605E
:100DD000356034603D6032601960326035603C607F
:100DE0003D6035603C603D60356034603D6035603D
:100DF00034603D60356034603D60356034603D6036
:100E0000356034603D6035603C603D60326001605B
:100E1000326035603C603D6035603C603D6035600F
:100E200034603D60356034603D60356034603D6005
:100E300035603C603D60356034603D6035603C60ED
:100E40003D6032601960326035603C603D60356005
:100E50003C603D60356034603D60356034603D60CD
:100E6000356034603D60356034603D6035603C60C5
:100E70003D60356034603D603260016032603560F5
:100E800034603D60356034603D60356034603D60A5
:100E9000356034603D6035603C603D6035603C608D
:100EA0003D60356034603D6035603C603D6032607F
:100EB0003260356034603D60356034603D6035607F
:100EC00034603D60356034603D60356034603D6065
:100ED000356034603D60356034603D60356034605D
:100EE0003D6032601960326035603C603D60356065
:100EF0003C603D60356034603D60356034603D602D
:100F0000356034603D60356034603D6035603C6024
:100F10003D6035603C603D6032600160326035604C
:100F20003C603D60356034603D60356034603D60FC
:100F3000356034603D6035603C603D6035603C60EC
:100F40003D60356034603D6035603C603D603260DE
:100F50003260356034603D6035603C603D603560D6
:100F60003C603D60356034603D6035603C603D60B4
:100F7000356034603D6035603C603D6035603460B4
:100F80003D6032601960326035603C603D603560C4
:100F90003C603D60356034603D60356034603D608C
:100FA000356034603D6035603C603D603560346084
:100FB0003D60356034603D603260016032603560B4
:100FC0003C603D60356034603D60356034603D605C
:100FD000356034603D6035603C603D6035603C604C
:100FE0003D60356034603D6035603C603D6032603E
:100FF000326035603C603D6035603C603D6035602E
:101000003C603D60356034603D6035603C603D6013
:1010100035603C603D6035603C603D60356034600B
:101020003D6032601960326035603C603D60356023
:101030003C603D60356034603D60356034603D60EB
:10104000356034603D6035603C603D6035603460E3
:101050003D6035603C603D6032600160326035600B
:1010600034603D60356034603D60356034603D60C3
:10107000356034603D6035603C603D6035603C60AB
:101080003D6035603C603D6035603C603D60326095
:101090001960326035603C603D6035603C603D60A9
:1010A00035603C603D60356034603D603560346083
:1010B0003D60356034603D60356034603D60356072
:1010C00034603D60326001603260356034603D60A4
:1010D000356034603D60356034603D60356034605B
:1010E0003D60356034603D6035603C603D6035603A
:1010F0003C603D6035603C603D6032603260356030
:1011000034603D60356034603D60356034603D6022
:10111000356034603D6035603C603D6035603C600A
:101120003D6035603C603D60356034603D603260FC
:101130003260356034603D60356034603D603560FC
:1011400034603D60356034603D6035603C603D60DA
:10115000356034603D60356034603D6035603460DA
:101160003D6032603260356034603D6035603460CF
:101170003D60356034603D60356034603D603560B1
:1011800034603D6035603C603D6035603C603D6092
:1011900035603C603D6032603260356034603D6097
:1011A000356034603D60356034603D6035603C6082
:1011B0003D60356034603D60356034603D60356071
:1011C00034603D60356034603D603260326035606F
:1011D00034603D60356034603D60356034603D6052
:1011E000356034603D60356034603D6035603C6042
:1011F0003D6035603C603D6035603C603D60326024
:101200003260356034603D60356034603D6035602B
:1012100034603D60356034603D60356034603D6011
:10122000356034603D6035603C603D603560346001
:101230003D6032603260356034603D6035603460FE
:101240003D60356034603D60356034603D603560E0
:1012500034603D6035603C603D6035603C603D60C1
:1012600035603C603D6032603260356034603D60C6
:10127000356034603D60356034603D6035603460B9
:101280003D6035603C603D60356034603D60356098
:1012900034603D6035603C603D6032603260356096
:1012A00034603D60356034603D60356034603D6081
:1012B000356034603D6035603C603D6035603C6069
:1012C0003D6035603C603D6035603C603D60326053
:1012D0003260356034603D60356034603D6035605B
:1012E0003C603D60356034603D60356034603D6039
:1012F00035603C603D60356034603D6035603C6029
:101300003D6032603260356034603D60356034602D
:101310003D6035603C603D6035603C603D603560FF
:1013200034603D6035603C603D6035603C603D60F0
:10133000356034603D6032603260356034603D60FD
:10134000356034603D60356034603D6035603460E8
:101350003D60356034603D60356034603D603560CF
:1013600034603D60356034603D60326032603560CD
:1013700034603D60356034603D60356034603D60B0
:10138000356034603D6035603C603D6035603460A0
:101390003D60356034603D60356034603D60326092
:1013A0003260356034603D60356034603D6035608A
:1013B00034603D60356034603D60356034603D6070
:1013C00035603C603D60356034603D603560346060
:1013D0003D6032603260356034603D60356034605D
:1013E0003D60356034603D6035603C603D60356037
:1013F00034603D60356034603D60356034603D6030
:10140000356034603D6032601960326035603C6048
:101410003D6035603C603D6035603C603D603560FE
:1014200034603D60356034603D60356034603D60FF
:10143000356034603D6035603C603D603260016025
:101440003260356034603D60356034603D603560E9
:1014500034603D60356034603D6035603C603D60C7
:10146000356034603D6035603C603D6035603460BF
:101470003D6032603260356034603D6035603460BC
:101480003D60356034603D60356034603D6035609E
:101490003C603D6035603C603D60356034603D607F
:1014A00035603C603D6032603260356034603D6084
:1014B000356034603D60356034603D603560346077
:1014C0003D6035603C603D60356034603D60356056
:1014D00034603D60356034603D603260326035605C
:1014E00034603D60356034603D60356034603D603F
:1014F000356034603D60356034603D6035603C602F
:101500003D6035603C603D6035603C603D60326010
:101510003260356034603D60356034603D60356018
:1015200034603D60356034603D6035603C603D60F6
:1015300035603C603D6035603C603D6035603C60DE
:101540003D6032603260356034603D6035603460EB
:101550003D60356034603D60356034603D603560CD
:1015600034603D6035603C603D6035603C603D60AE
:1015700035603C603D6032603260356034603D60B3
:10158000356034603D60356034603D6035603460A6
:101590003D60356034603D60356034603D6035608D
:1015A0003C603D60356034603D6032603260356083
:1015B00034603D60356034603D60356034603D606E
:1015C000356034603D60356034603D6035603C605E
:1015D0003D6035603C603D6035603C603D60326040
:1015E0003260356034603D60356034603D60356048
:1015F00034603D60356034603D6035603C603D6026
:10160000356034603D60356034603D6035603C601D
:101610003D6032603260356034603D60356034601A
:101620003D60356034603D60356034603D603560FC
:101630003C603D6035603C603D6035603C603D60D5
:1016400035603C603D6032603260356034603D60E2
:10165000356034603D6035603C603D6035603460CD
:101660003D60356034603D6035603C603D603560B4
:1016700034603D6035603C603D60326032603560B2
:1016800034603D60356034603D6035603C603D6095
:1016900035603C603D60356034603D6035603C6085
:1016A0003D60356034603D6035603C603D60326077
:1016B0003260356034603D60356034603D60356077
:1016C00034603D60356034603D60356034603D605D
:1016D000356034603D60356034603D603560346055
:1016E0003D6032603260356034603D60356034604A
:1016F0003D60356034603D60356034603D6035602C
:101700003C603D60356034603D60356034603D6014
:1017100035603C603D6032603260356034603D6011
:10172000356034603D60356034603D603560346004
:101730003D60356034603D6035603C603D603560E3
:1017400034603D60356034603D60326032603560E9
:1017500034603D60356034603D60356034603D60CC
:1017600035603C603D60356034603D6035603460BC
:101770003D60356034603D60356034603D603260AE
:101780001960326035603C603D6035603C603D60B2
:1017900035603C603D6035603C603D6035603C607C
:1017A0003D6035603C603D60356034603D60356073
:1017B00034603D6032600160326035603C603D60A5
:1017C000356034603D60356034603D603560346064
:1017D0003D60356034603D60356034603D6035604B
:1017E00034603D60356034603D6032601960326065
:1017F000356034603D60356034603D6035603C602C
:101800003D6035603C603D6035603C603D6035600A
:1018100034603D6035603C603D60356034603D6003
:10182000326001603260356034603D603560346044
:101830003D60356034603D60356034603D603560EA
:1018400034603D6035603C603D60356034603D60D3
:1018500035603C603D6032601960326035603460F4
:101860003D60356034603D6035603C603D603560B2
:101870003C603D60356034603D6035603C603D609B
:1018800035603C603D60356034603D6032600160D1
:101890003260356034603D6035603C603D6035608D
:1018A0003C603D6035603C603D6035603C603D6063
:1018B000356034603D60356034603D603560346073
:1018C0003D60326019603260356034603D60356083
:1018D00034603D6035603C603D60356034603D6043
:1018E000356034603D60356034603D603560346043
:1018F0003D6035603C603D6032600160196032607F
:10190000356034603D60356034603D6035603C601A
:101910003D60356034603D6035603C603D60356001
:1019200034603D60356034603D6035603C603D60F2
:101930003260016019603260356034603D6035604E
:1019400034603D6035603C603D60356034603D60D2
:1019500035603C603D60356034603D6035603C60C2
:101960003D60356034603D603260016032603560FA
:1019700034603D60356034603D60356034603D60AA
:10198000356034603D60356034603D6035603460A2
:101990003D60356034603D60356034603D6032608C
:1019A0003260356034603D60356034603D60356084
:1019B00034603D6035603C603D6035603C603D605A
:1019C000356034603D6035603C603D60356034605A
:1019D0003D6032603260356034603D603560346057
:1019E0003D60356034603D60356034603D60356039
:1019F00034603D60356034603D60356034603D602A
:101A0000356034603D6032603260356034603D6026
:101A100035603C603D6035603C603D603560346001
:101A20003D6035603C603D60356034603D603560F0
:101A300034603D6035603C603D603260196032600A
:101A4000356034603D60356034603D6035603C60D9
:101A50003D60356034603D6035603C603D603560C0
:101A600034603D6035603C603D6035603C603D60A9
:101A7000326001603260356034603D6035603460F2
:101A80003D60356034603D60356034603D60356098
:101A900034603D60356034603D60356034603D6089
:101AA000356034603D6032603260356034603D6086
:101AB000356034603D60356034603D603560346071
:101AC0003D60356034603D60356034603D60356058
:101AD00034603D6035603C603D603260326035604E
:101AE00034603D60356034603D60356034603D6039
:101AF000356034603D60356034603D603560346031
:101B00003D60356034603D60356034603D6032601A
:101B1000326035603C603D60356034603D6035600A
:101B20003C603D60356034603D60356034603D60F0
:101B3000356034603D60356034603D6035603460F0
:101B40003D60326019603260356034603D60356000
:101B500034603D6035603C603D60356034603D60C0
:101B600035603C603D6035603C603D6035603460B0
:101B70003D60356034603D60326001600448009033
:101B80000020A02250230146FEF78AFE05B0F0BDDA
:101B9000FFFF0000F0B58BB006931646119C0A19A2
:101BA000521E93B265084219521E92B207900591D7
:101BB000FEF7D8FD0A9568072209002800D0521CBC
:101BC00062436ED0A0010C3C2106890E4018C3B2BE
:101BD000052B66D80120099098402B21084260D03F
:101BE0001298089010980490203EF0B202900024C1
:101BF000079F26460192009309E00598401C059036
:101C0000079F0198009B039C641C844249D0032BCE
:101C1000039408D0012B0BD0002B0DD10C2002997E
:101C2000484323490BE03020029948431E4906E00F
:101C3000029800011D4902E0029880011D49081820
:101C40000019057800240BE000F036F9761CF0B29C
:101C50000A99FEF75DFB002921D0641C082CD0D026
:101C60000998A04028400899002913D0002809D0DD
:101C7000B8B2059989B202460B46FEF773FD069885
:101C800000F01AF97F1CB8B20799401A0A998842E5
:101C9000E3D1B2E700280498D6D00698D4E700260E
:101CA000AFE70BB0F0BDC046DC360000EC30000002
:101CB000782C0000AC480000F0B587B006461078DC
:101CC00000281AD01C4617460E9806900D980590CD
:101CD0000C9803900491059D039800900195069837
:101CE0000290B0B204993A46234600F009F87619FA
:101CF000B81CB97800290746EED107B0F0BD000046
:101D0000F0B58DB008930192079109901399480797
:101D10000C91CD08002800D06D1C0C984543401E46
:101D20000090002014990B9112990691364E099F4C
:101D30000446039503E00298401C042862D0014643
:101D4000222002914843315C019B1A789142F2D1E2
:101D50003218587851788142EDD10A92009BD819F7
:101D600082B20799581883B2B8B289B2FEF7FAFC6A
:101D7000002DE0D000210846049105910A9A0BE05D
:101D80000798401C0790099F039D1F4E0598401C13
:101D90000590C0B28542CED910188578049E09E01E
:101DA0007F1CB8B20999401A0C998842E8D0761C79
:101DB000082EE9D00120B04028400B9900290DD011
:101DC0000028EDD0B8B2079989B202460B46FEF75B
:101DD000C9FC089800F070F80A9AE1E70028069814
:101DE00000D0089800F068F8641CE0B20C99FEF787
:101DF0008FFA002901D00A9AD9E70024039D024EE8
:101E00000A9AC3E70DB0F0BDB47B0000F0B583B013
:101E10001C4615468218521E92B2CB185B1E9BB20E
:101E2000FEF7A0FC0295002D1ED008980090002718
:101E30003E46019405E0761CB0B202998842019CAE
:101E400012D2002CF7D03D19780000990C18207898
:101E500000F03BF8607800F038F8A41CA8B27F1CB2
:101E6000B9B28842F3D1E6E703B0F0BDF0B587B070
:101E70001478002C1ED00F4606460E9806900D983A
:101E80000C9D0495551C0590400803900498009003
:101E90000598019006980290B0B2E2B239461C460D
:101EA000FFF778FE234603983618681C2C78002C20
:101EB0000546EBD107B0F0BD10B50446000A00F0AE
:101EC00009F8E0B200F006F810BD80B500F002F8A5
:101ED00080BD000070B50124E105364A1160E307BA
:101EE0001360240745B2002D01D4146002E01546AA
:101EF000103D2C601546103D2B601360460601D442
:101F0000146000E02C602B601360860601D414601E
:101F100000E02C602B601360C60601D4146000E062
:101F20002C602B601360060701D4146000E02C6065
:101F30002B601360460701D4146000E02C602B6016
:101F40001360860701D4146000E02C602B601360DE
:101F5000C00701D1146000E02C602B60116070BDDF
:101F60001148822181641149C164832282674267DA
:101F7000491C01670E494A6481228A608A624A626A
:101F80004A610260C2600A600A480B49016001634D
:101F900089204004094908610120C00408608D209F
:101FA000400408647047C0460C8042408200040030
:101FB000AC804240A0120A400000809090320A405B
:101FC00010B50C4C0C492046FEF794FB0B492046FB
:101FD000FEF76EFB0A4841680A4A0A40426081687F
:101FE00012220A432D218A438260016801220A439A
:101FF000026010BD00A046409C7B00009E7B00005C
:1020000004B1464000FCFFFF0C48002101600320A2
:10201000C1430B480246083A13680B40136001683D
:10202000012291430160110203688B430360110395
:10203000001F02680A4302607047C04608030B4055
:1020400008010B400548042101601F214160002167
:102050008160016805220A430260704710E000E0D9
:1020600010B5124C12492046FEF772FB114920466A
:10207000FEF74AFB0321CA030F480368934303603A
:1020800002690E4B13401A33036142690A433C2133
:102090008A434261416801221140436893435918C1
:1020A000416001681143016010BDC04600801040CE
:1020B000A87B0000AA7B0000009110400000FFFFF9
:1020C00080B500F011F8FFF74BFFFFF79DFFFFF71A
:1020D000C7FFFFF775FFFFF7B5FF24200149002276
:1020E0000A5480BDB400202010B509480949416058
:1020F000094A5160094B5960094C61600949016006
:102100001160196021601020FEF7CCFA10BDC046A6
:1021100000080A40030000B100280A40008810406F
:1021200000A846400100002610B512480068C0B261
:102130000B281ED11048C169104A13887E2B13D872
:1021400013885C1C14800E4AD1540268D20708D050
:102150000268D20705D00268D20702D00268D2070F
:10216000F3D1C9B2816101E000201080054801214E
:10217000017010BD20901040089110405E01202099
:10218000DC0020205C012020F0B501214904F54A43
:102190001161F54B06241C631C68E40608D51C6815
:1021A000E40605D51C68E40602D51C68E406F3D4F1
:1021B0001C6A1C68E40608D51C68E40605D51C6882
:1021C000E40602D51C68E406F3D4116002E0116055
:1021D000F60737D0116105241C631D68ED0608D58C
:1021E0001D68ED0605D51D68ED0602D51D68ED06D6
:1021F000F3D41D6A1D68ED0608D51D68ED0605D5EA
:102200001D68ED0602D51D68ED06F3D4FF251D639C
:102210001E68F60608D51E68F60605D51E68F60681
:1022200002D51E68F606F3D41E6A1F68FF06CED5D7
:102230001F68FF06CBD51F68FF06C8D51F68FF06BD
:10224000F3D4C4E7116120261E631E68F60608D584
:102250001E68F60605D51E68F60602D51E68F60647
:10226000F3D41E6A1E68F60608D51E68F60605D564
:102270001E68F60602D51E68F606F3D40609F6B205
:102280001E6300031E68F60608D51E68F60605D50F
:102290001E68F60602D51E68F606F3D41E6A1E688E
:1022A000F60608D51E68F60605D51E68F60602D5A0
:1022B0001E68F606F3D4000AF02606401E6318686E
:1022C000C00608D51868C00605D51868C00602D52E
:1022D0001868C006F3D4186A1868C00608D51868CC
:1022E000C00605D51868C00602D51868C006F3D424
:1022F000002018631868C00608D51868C00605D500
:102300001868C00602D51868C006F3D4186A1868A1
:10231000C00608D51868C00605D51868C00602D5DD
:102320001868C006F3D4116002E01160C00735D010
:1023300011611C631868C00608D51868C00605D569
:102340001868C00602D51868C006F3D4186A186861
:10235000C00608D51868C00605D51868C00602D59D
:102360001868C006F3D41D631868C00608D518683D
:10237000C00605D51868C00602D51868C006F3D493
:10238000186A1E68F606D0D51E68F606CDD51E68FA
:10239000F606CAD51E68F606F3D4C6E7F0BDC046F9
:1023A000F0B582B001267404C64F3C61C64D0323CC
:1023B0002B632B68DB0608D52B68DB0605D52B685D
:1023C000DB0602D52B68DB06F3D42B6A2B68DB0611
:1023D00008D52B68DB0605D52B68DB0602D52B68F4
:1023E000DB06F3D40B0CDBB22B632B68DB0608D5C2
:1023F0002B68DB0605D52B68DB0602D52B68DB06D0
:10240000F3D42B6A2B68DB0608D52B68DB0605D5D1
:102410002B68DB0602D52B68DB06F3D40B0ADBB294
:102420002B632B68DB0608D52B68DB0605D52B68EC
:10243000DB0602D52B68DB06F3D42B6A2B68DB06A0
:1024400008D52B68DB0605D52B68DB0602D52B6883
:10245000DB06F3D4C9B229632968C90608D52968FF
:10246000C90605D52968C90602D52968C906F3D465
:10247000296A2968C90608D52968C90605D52968C1
:10248000C90602D52968C906F3D4002A27D00194C9
:10249000114631400091012A24D10021009A002ADE
:1024A000019C884F1BD0FF222A632A68D20608D5D8
:1024B0002A68D20605D52A68D20602D52A68D2062D
:1024C000F3D42A6A2B68DB0608D52B68DB0605D512
:1024D0002B68DB0602D52B68DB06F3D442543C6044
:1024E00002B0F0BDB243002103E00355891C9142C4
:1024F000D4D0FF242C632B68DB0608D52B68DB06C1
:1025000005D52B68DB0602D52B68DB06F3D42B6AD6
:102510002F68FF0608D52F68FF0605D52F68FF0630
:1025200002D52F68FF06F3D443542C630C46344382
:102530002B68DB0608D52B68DB0605D52B68DB0688
:1025400002D52B68DB06F3D42B6A2F68FF06CCD5A7
:102550002F68FF06C9D52F68FF06C6D52F68FF066E
:10256000F3D4C2E790320A4010B14640B0B5012022
:10257000400454490861544A902313631368DB06EE
:1025800008D51368DB0605D51368DB0602D513688A
:10259000DB06F3D4136A1368DB0608D51368DB0681
:1025A00005D51368DB0602D51368DB06F3D40023D8
:1025B00013631468E40608D51468E40605D51468A6
:1025C000E40602D51468E406F3D4146A1468E40639
:1025D00008D51468E40605D51468E40602D5146825
:1025E000E406F3D413631468E40608D51468E4061B
:1025F00005D51468E40602D51468E406F3D4146A19
:102600001468E40608D51468E40605D51468E406E1
:1026100002D51468E406F3D413631368DB0608D507
:102620001368DB0605D51368DB0602D51368DB06E5
:10263000F3D4136A1368DB0608D51368DB0605D5E7
:102640001368DB0602D51368DB06F3D4FF2414639A
:102650001368DB0608D51368DB0605D51368DB06AF
:1026600002D51368DB06F3D4136A1568ED0608D5A6
:102670001568ED0605D51568ED0602D51568ED0659
:10268000F3D414631468E40608D51468E40605D589
:102690001468E40602D51468E406F3D4146A1568D5
:1026A000ED0608D51568ED0605D51568ED0602D5C9
:1026B0001568ED06F3D408601802E1B2081880B27C
:1026C000B0BDC04690320A4010B14640F0B585B06A
:1026D00014460D460490080BFFF756FD01200390A9
:1026E0004004C0490860C04A062313631368DB0630
:1026F00008D51368DB0605D51368DB0602D5136819
:10270000DB06F3D40195136A1368DB0608D513685A
:10271000DB0605D51368DB0602D51368DB06F3D4A8
:1027200002940B46103B186002E01860EC0737D0AB
:102730000860052717631568ED0608D51568ED06CE
:1027400005D51568ED0602D51568ED06F3D4156AB2
:102750001568ED0608D51568ED0605D51568ED0672
:1027600002D51568ED06F3D4FF2616631568ED064D
:1027700008D51568ED0605D51568ED0602D515686E
:10278000ED06F3D4156A1468E406CED51468E406A1
:10279000CBD51468E406C8D51468E406F3D4C4E7BE
:1027A0000860022414631468E40608D51468E4067B
:1027B00005D51468E40602D51468E406F3D4146A57
:1027C000019D1468E40608D51468E40605D514686C
:1027D000E40602D51468E406F3D42C0CE4B21463C6
:1027E0001468E40608D51468E40605D51468E40600
:1027F00002D51468E406F3D4146A1468E40608D514
:102800001468E40605D51468E40602D51468E406E5
:10281000F3D42C0AE4B214631468E40608D51468EF
:10282000E40605D51468E40602D51468E406F3D47A
:10283000146A1468E40608D51468E40605D514681B
:10284000E40602D51468E406F3D4ECB21463146809
:10285000E40608D51468E40605D51468E40602D534
:102860001468E406F3D40193146A1468E40608D5E6
:102870001468E40605D51468E40602D51468E40675
:10288000F3D4029B002B0AD01D46039C25400095E3
:10289000012B42D10025009B002B00D080E0086076
:1028A000019B02E01860E40735D0086017631468E4
:1028B000E40608D51468E40605D51468E40602D5D4
:1028C0001468E406F3D4146A1468E40608D514689E
:1028D000E40605D51468E40602D51468E406F3D4CA
:1028E00016631468E40608D51468E40605D5146870
:1028F000E40602D51468E406F3D4146A1568ED06FC
:10290000D0D51568ED06CDD51568ED06CAD5156884
:10291000ED06F3D4C6E705B0F0BDA343002502E001
:10292000AD1C9D42B7D0049C645D14631468E4063A
:1029300008D51468E40605D51468E40602D51468C1
:10294000E406F3D4146A1468E40608D51468E406AF
:1029500005D51468E40602D51468E406F3D42C46C1
:1029600003990C4304990C5D14631468E40608D5BC
:102970001468E40605D51468E40602D51468E40674
:10298000F3D4146A17491468E406C9D51468E40638
:10299000C6D51468E406C3D51468E406F3D4BFE7CB
:1029A00004994C5D14631468E40608D51468E406C1
:1029B00005D51468E40602D51468E406F3D4146A55
:1029C00008491468E40600D469E71468E40600D4F2
:1029D00065E71468E40600D461E71468E406F0D4FF
:1029E0005DE7C046A0320A4010B146407047000083
:1029F00080B5FFF765FB0120C00304490860044966
:102A0000086004A0FDF76EFC80BDC04680E200E0D7
:102A100000E100E0426F61726420496E6974205BDE
:102A20005B202A2A204C434B4642202A2A205D5D07
:102A30000D000000B0B57D21090241430E48036836
:102A4000262206E0E41A051F2D686419A2188A429E
:102A500010D21C460368A34208D10368A34205D1E3
:102A60000368A34202D10368A342F3D09C42E9D990
:102A7000E41AEBE7B0BDC04618E000E007490A6879
:102A8000D20708D00A68D20705D00A68D20702D058
:102A90000A68D207F3D1C2B28A6170470891104028
:102AA0008AB007AD00242C81049508940794FFF7A1
:102AB0009FFF64263046FFF7BDFFFFF757FD014635
:102AC00054A0FDF775FB0727284621463A46FFF735
:102AD00067FC53A02946FDF76BFB54A021463A46FC
:102AE000FFF7F4FD3046FFF7A5FF284621463A469A
:102AF000FFF756FCFFF7E4FAFDF7F8FE4D480090AB
:102B00000746A022502320462146FDF7C9FE4A4829
:102B1000009014262D2178221D233046FFF776F9E8
:102B2000102000970190054602940A2043A22146F6
:102B30002346FFF79BF900970195059502943220F3
:102B400040A231462346FFF7B7F806AE74700798E7
:102B5000307000970195029436202427394632467A
:102B60002346FFF783F97470049D6878307031480C
:102B700000900598019002943E2039463246234643
:102B8000FFF774F97470A87830702A480090059D9A
:102B9000019502944620394632462346FFF766F9EE
:102BA00074700498C07830702248009001950294A7
:102BB0004E20394632462346FFF758F9747008987C
:102BC00030701C48009001950294562039463246D8
:102BD0002346FFF74BF97470049D687930701548EF
:102BE00000900598019002945E20394632462346B3
:102BF000FFF73CF97470A87930700E480090059882
:102C0000019002946620394632462346FFF72EF99A
:102C1000FEE7C0464944203D2025580D0A0000002B
:102C200062756666203D2025730D0A005961686251
:102C30006F6F6D00FFFF00006C60000048656C6CFA
:102C40006F210000D1C7B2A9D6C7C4DC00000000C4
:102C500030313233343536373839414243444546D2
:102C600040305800303132333435363738396162CC
:102C700063646566403078000000000000000000DA
:102C8000000000000000040404040400000400002C
:102C900014140A00000000000000000000000A0AEE
:102CA0001F0A0A1F0A0A000000040E1505060C146C
:102CB000150E0400000012150D152E2C2A1200000E
:102CC0000000040A0A361515291600000202010048
:102CD00000000000000000001008080404040404C0
:102CE0000808100002040408080808080404020088
:102CF00000000004150E0E1504000000000000087E
:102D0000083E08080000000000000000000000006D
:102D10000202010000000000003F0000000000006F
:102D20000000000000000000000200000020101061
:102D3000080804040202010000000E111111111113
:102D4000110E00000000040604040404040E000038
:102D500000000E1111080402011F000000000E11F6
:102D6000100C1010110E00000000080C0C0A091FB6
:102D7000081C000000001F01010F1110110E0000BF
:102D800000000C12010D1311110E000000001E10A6
:102D9000080804040404000000000E11110E1111B3
:102DA000110E000000000E11111916100906000086
:102DB000000000000400000000040000000000000B
:102DC00000040000000404000000100804020204D3
:102DD00008100000000000003F003F00000000005D
:102DE00000000204081010080402000000000E1188
:102DF000110804040004000000001C22292D2D1DD0
:102E0000221C0000000004040C0A0A1E12330000F9
:102E100000000F12120E1212120F000000001E11FD
:102E200001010101110E000000000F121212121216
:102E3000120F000000001F120A0E0A02121F0000EB
:102E400000001F120A0E0A020207000000001C12F6
:102E500001013911120C000000003312121E12126F
:102E60001233000000001F0404040404041F0000C7
:102E700000003E0808080808080809070000371283
:102E80000A060A12123700000000070202020202BC
:102E9000223F000000003B1B1B1B151515350000D1
:102EA00000003B1216161A1A1217000000000E112D
:102EB00011111111110E000000000F12120E02026A
:102EC0000207000000000E1111111117190E180051
:102ED00000000F12120E0A121237000000001E111D
:102EE00001060810110F000000001F15040404045F
:102EF000040E00000000331212121212120C000015
:102F000000003312120A0A0C040400000000151518
:102F100015150E0A0A0A000000001B0A0A04040A1A
:102F20000A1B000000001B0A0A0A0404040E000029
:102F300000001F0908040402121F00001C040404FE
:102F40000404040404041C0000020204040408082D
:102F5000081010000E0808080808080808080E00E5
:102F6000040A000000000000000000000000000053
:102F7000000000000000003F02040000000000000C
:102F80000000000000000000000C121C123C0000B9
:102F900000030202020E1212120E000000000000D6
:102FA000001C1202120C000000181010101C12124B
:102FB000123C000000000000000C121E021C000069
:102FC00000182404041E0404041E00000000000075
:102FD000003C120C021C221C00030202020E121200
:102FE000123700000004040000060404040E000070
:102FF00000080800000C080808080807000302027F
:10300000021A0A060A130000000704040404040458
:10301000041F000000000000000F1515151500002A
:1030200000000000000F1212123700000000000024
:10303000000C1212120C000000000000000F12120F
:10304000120E020700000000001C1212121C1038A1
:1030500000000000001B0602020700000000000044
:10306000001E020C101E000000000004041E0404D8
:10307000041C000000000000001B1212123C0000A3
:1030800000000000001B0A0A040400000000000009
:103090000015150E0A0A000000000000001B0A04BB
:1030A0000A1B000000000000003312120C08040389
:1030B00000000000001E0804041E00001808080894
:1030C000080C080808081800080808080808080874
:1030D000080808080604040404080404040406009C
:1030E00016090000000000000000000000000000C1
:1030F00000000000000000000000000000000008C8
:1031000008080808080800001818000000486C2487
:103110001200000000000000000000000000002479
:1031200024247F1212127F12121200000000081CC9
:103130002A2A0A0C1828282A2A1C0808000000221B
:10314000251515152A585454542200000000000C6F
:103150001212120A76252911916E0000000606044B
:1031600003000000000000000000000000402010EC
:103170001008080808080810102040000002040881
:1031800008101010101010080804020000000000C1
:1031900008086B1C1C6B0808000000000000000001
:1031A000080808087F080808080000000000000060
:1031B00000000000000000000606040300000000FC
:1031C00000000000FE000000000000000000000001
:1031D0000000000000000000060600000000804023
:1031E000402020101008080404020200000000180B
:1031F0002442424242424242241800000000000899
:103200000E08080808080808083E00000000003CF6
:103210004242422020100804427E00000000003C90
:103220004242201820404042221C000000000020A2
:103230003028242422227E20207800000000007EF6
:103240000202021A26404042221C00000000003800
:103250002402021A26424242241800000000007E86
:103260002222101008080808080800000000003C8E
:103270004242422418244242423C0000000000180E
:103280002442424264584040241C000000000000D8
:1032900000001818000000001818000000000000CE
:1032A00000000008000000000008080400000040C2
:1032B0002010080402040810204000000000000054
:1032C00000007F0000007F000000000000000002FE
:1032D0000408102040201008040200000000003CF8
:1032E0004242464020101000181800000000001C48
:1032F000225A555555552D42221C00000000000849
:1033000008181414243C224242E700000000001F69
:103310002222221E22424242221F00000000007C84
:103320004242010101010142221C00000000001F75
:103330002242424242424242221F00000000003F1D
:103340004212121E12120242423F00000000003FD1
:103350004212121E12120202020700000000003C7C
:103360002222010101712122221C0000000000E73D
:10337000424242427E42424242E700000000003E9A
:103380000808080808080808083E00000000007C3B
:1033900010101010101010101010110F00000077F6
:1033A00022120A0E0A1212222277000000000007E1
:1033B0000202020202020202427F000000000077C5
:1033C000363636362A2A2A2A2A6B0000000000E305
:1033D00046464A4A52525262624700000000001CB0
:1033E0002241414141414141221C00000000003F77
:1033F000424242423E020202020700000000001C5C
:103400002241414141414D53321C60000000003FC8
:103410004242423E1212222242C700000000007CBB
:103420004242020418204042423E00000000007F59
:103430004908080808080808081C0000000000E700
:103440004242424242424242423C0000000000E707
:103450004242222424141418080800000000006BC3
:10346000494949495555362222220000000000E70B
:10347000422424181818242442E700000000007792
:103480002222141408080808081C00000000007E0E
:103490002120101008040442423F00000078080870
:1034A0000808080808080808080878000000020250
:1034B000040408080810102020204040001E1010AE
:1034C000101010101010101010101E0000384400C2
:1034D00000000000000000000000000000000000EC
:1034E0000000000000000000000000FF00060800CF
:1034F00000000000000000000000000000000000CC
:103500000000003C4278444242FC000000000003FE
:103510000202021A26424242261A0000000000005F
:10352000000000384402020244380000000000603D
:10353000404040784442424264D80000000000000D
:103540000000003C427E0202423C0000000000F00D
:103550008808087E08080808083E000000000000EF
:103560000000007C22221C023C42423C000000037E
:103570000202023A4642424242E700000000000CCA
:103580000C00000E08080808083E0000000000308B
:1035900030000038202020202020221E00000003C0
:1035A00002020272120A1612227700000000000EB8
:1035B0000808080808080808083E00000000000085
:1035C0000000007F9292929292B7000000000000EB
:1035D0000000003B4642424242E70000000000007B
:1035E0000000003C42424242423C00000000000019
:1035F0000000001B26424242221E0207000000007B
:103600000000007844424242447840E0000000005C
:10361000000000774C040404041F000000000000B8
:103620000000007C42023C40423E000000000000DE
:103630000008083E080808080830000000000000E4
:10364000000000634242424262DC000000000000D1
:10365000000000E7422424140808000000000000D5
:10366000000000EB494955552222000000000000EF
:103670000000007624181818246E000000000000D6
:10368000000000E742242414180808070000000086
:103690000000007E22100808447E000000C02020A8
:1036A00020202010202020202020C00010101010EA
:1036B0001010101010101010101010100006080834
:1036C0000808081008080808080806000C32C2009C
:1036D00000000000000000000000000000000000EA
:1036E00000000000000000000000000000000000DA
:1036F00000000000000000000000000000000000CA
:1037000000000000000000000000000000000000B9
:103710000000000060006000600060006000600069
:103720006000400020002000200000000000000099
:103730006000600060000000000000000000000069
:103740006006600630039801880044000000000015
:103750000000000000000000000000000000000069
:103760000000000000000000000000000000000059
:10377000000000001002100210021002FE07FE07F7
:1037800008020801080108010801FE07FE070401FC
:10379000040104010401000000000000000000001A
:1037A000000040004000F00158034C03CC034C00E3
:1037B00058007000E000C001C00140034C035C03EE
:1037C0004C034801F00040004000000000000000F1
:1037D000000000000E010A019100910091005100CB
:1037E00051003A00AE03A0025004500448044804BB
:1037F0004804840284030000000000000000000070
:103800000000000038006C006C006C006C006C0064
:103810002C0098071C011A01330133016301E300F6
:10382000C308C6093C0700000000000000000000BB
:103830000C001C0010001000080004000000000034
:103840000000000000000000000000000000000078
:103850000000000000000000000000000000000068
:1038600000040002000180008000400040002000B1
:103870002000200020002000200020004000400008
:103880008000800000010002000400000000000031
:10389000020004000800100010002000200040007A
:1038A0004000400040004000400040002000200058
:1038B00010001000080004000200000000000000DA
:1038C00000000000000000004000C0004000460C66
:1038D0004E0FD001F0015E0F460C4000400040004A
:1038E00000000000000000000000000000000000D8
:1038F0000000000000000000000040004000400008
:1039000040004000FE0F40004000400040004000EA
:1039100000000000000000000000000000000000A7
:103920000000000000000000000000000000000097
:103930000000000000000000000000000000000087
:103940000C001C0010001000080004000000000023
:103950000000000000000000000000000000000067
:1039600000000000FE070000000000000000000052
:103970000000000000000000000000000000000047
:103980000000000000000000000000000000000037
:103990000000000000000000000000000000000027
:1039A0001C001C001C0000000000000000000000C3
:1039B00000040006000200030001000180008000F6
:1039C00040004000600020002000100010000800AF
:1039D00008000C00040006000200000000000000C7
:1039E000000000000000F00098010C030C03060624
:1039F00006060606060606060606060606060C0364
:103A00000C039801F000000000000000000000001E
:103A100000000000000040007C00600060006000CA
:103A20006000600060006000600060006000600096
:103A300060006000FC0300000000000000000000C7
:103A4000000000000000F8008401020306030603E2
:103A5000000300018001C000600020001000080287
:103A600004020602FE030000000000000000000047
:103A70000000000000007800C60086018601800179
:103A80008001C000700080010001000300030603F4
:103A900006038601F800000000000000000000009E
:103AA00000000000000080018001C001A001A00111
:103AB00090018801880184018201FE0F800180014C
:103AC00080018001E007000000000000000000000D
:103AD000000000000000FC030400040004000400D7
:103AE0000400F4008C010403000300030603060332
:103AF00082018401F80000000000000000000000C6
:103B0000000000000000E00118030C030C0004009A
:103B10000600E60116030E0606060606060604065D
:103B20000C021803F000000000000000000000007C
:103B3000000000000000F8070C0604020401000168
:103B400000018000800040004000400060006000F4
:103B50006000600060000000000000000000000045
:103B6000000000000000F8010C0306060606060629
:103B70000C021C03F000C8010C030606060606062C
:103B800006060C03F0010000000000000000000029
:103B9000000000000000F0000C010C030602060605
:103BA0000606060606078C067806000600030003D4
:103BB0000C018C01780000000000000000000000F3
:103BC00000000000000000000000000000000000F5
:103BD000E000E000E0000000000000000000000045
:103BE000E000E000E0000000000000000000000035
:103BF00000000000000000000000000000000000C5
:103C000060006000000000000000000000000000F4
:103C10000000600060004000200020000000000064
:103C200000000000000400020001800040002000AD
:103C30001000080004000800100020004000800070
:103C4000000100020004000000000000000000006D
:103C50000000000000000000000000000000000064
:103C6000FE07000000000000FE070000000000004A
:103C70000000000000000000000000000000000044
:103C80000000000004000800100020004000800038
:103C9000000100020004000200018000400020003A
:103CA00010000800040000000000000000000000F8
:103CB000000000000000E0031806040C040C0C0CCB
:103CC0000C0C000780014000400040000000000094
:103CD000E000E000E0000000000000000000000044
:103CE00000000000E00018030C02CC056405660526
:103CF000A605B604B604B604B604B602E4010C0484
:103D00000C021803F000000000000000000000009A
:103D1000000000000000600060005000D000900033
:103D20009000880088010801F801040304030402DC
:103D3000020202060F0F0000000000000000000059
:103D4000000000000000FE008C030C030C030C03B9
:103D50000C038C01FC000C030C020C060C060C0678
:103D60000C060C03FE010000000000000000000033
:103D7000000000000000E00318030C060C0404041B
:103D800006000600060006000600060006040C04F5
:103D90000C021803F000000000000000000000000A
:103DA0000000000000007F008C010C030C030C06D7
:103DB0000C060C060C060C060C060C060C060C0376
:103DC0000C038C017F0000000000000000000000D8
:103DD000000000000000FF030603060406040600BE
:103DE00086008600FE008600860086000600060427
:103DF00006040602FF0300000000000000000000AF
:103E0000000000000000FF0306030604060406008D
:103E100086008600FE0086008600860006000600FA
:103E2000060006001F000000000000000000000067
:103E3000000000000000F00018010C020C02040257
:103E40000600060006000600C60F060306030C0364
:103E50000C031803F0000000000000000000000048
:103E60000000000000000F0F060606060606060604
:103E700006060606FE0706060606060606060606E9
:103E8000060606060F0F00000000000000000000FC
:103E9000000000000000FC036000600060006000A3
:103EA0006000600060006000600060006000600012
:103EB00060006000FC030000000000000000000043
:103EC000000000000000F807C000C000C000C000F3
:103ED000C000C000C000C000C000C000C000C000E2
:103EE000C000C000C000C60066003C00000000002A
:103EF000000000000000CF038601C6004600260037
:103F0000160036002E006E004600C60086008601B0
:103F1000060106038F0700000000000000000000FB
:103F20000000000000001F0006000600060006005A
:103F3000060006000600060006000600060006044D
:103F400006040602FF03000000000000000000005D
:103F50000000000000000707860386038E038E031F
:103F60004E034E034A035A035A033A033203320301
:103F70003203120387070000000000000000000069
:103F80000000000000008E0F0C021C021C02340214
:103F90003402640264024402C4028402840384037F
:103FA000040304031F0200000000000000000000E2
:103FB000000000000000F00098010C030C0206064F
:103FC00006060606060606060606060606060C028F
:103FD0000C039801F0000000000000000000000049
:103FE000000000000000FF000603060606060606A5
:103FF000060606068603FE0006000600060006000A
:10400000060006001F000000000000000000000085
:10401000000000000000F00098010C030C020606EE
:1040200006060606060606060606060676064C027E
:10403000CC039801F000800700030000000000009E
:10404000000000000000FF01060306060606060643
:1040500006060603FE004600C6008600860106032B
:10406000060306060F0E000000000000000000001E
:10407000000000000000F8020C0306020602060021
:104080000E003C00F800E003800300070206020671
:1040900006060C03F0010000000000000000000014
:1040A000000000000000FE07620461086108600073
:1040B0006000600060006000600060006000600000
:1040C00060006000F8010000000000000000000037
:1040D0000000000000001E070C020C020C020C0283
:1040E0000C020C020C020C020C020C020C020C0260
:1040F0000C021801F00000000000000000000000A9
:104100000000000000000F070602040104010C017A
:104110000C01880088009800980050005000700042
:10412000300020002000000000000000000000001F
:10413000000000000000F70E62044204460446043A
:1041400064026402E402E4029C029C01980198016A
:1041500088018800880000000000000000000000C6
:104160000000000000009E070C01080118019000EB
:10417000B0006000200060006000D0009000880166
:10418000080104038E07000000000000000000008A
:104190000000000000000F0F060404020C020801DA
:1041A0001801B800B000700060006000600060009E
:1041B00060006000F8010000000000000000000046
:1041C000000000000000FC070C0206030201800151
:1041D000800040004000200020001000180008046B
:1041E0000C040402FE0300000000000000000000B8
:1041F000E0032000200020002000200020002000FC
:1042000020002000200020002000200020002000AE
:104210002000200020002000E0030000000000003B
:104220000000000004000400080008001000100056
:1042300010002000200040004000C00080008000EE
:104240000001000100020002000200040000000062
:104250007C00400040004000400040004000400022
:10426000400040004000400040004000400040004E
:1042700040004000400040007C0000000000600062
:104280009000080100000000000000000000000095
:10429000000000000000000000000000000000001E
:1042A000000000000000000000000000000000000E
:1042B00000000000000000000000000000000000FE
:1042C00000000000000000000000000000000000EE
:1042D00000000000000000000000FF0F00000000D0
:1042E0001800600000000000000000000000000056
:1042F00000000000000000000000000000000000BE
:1043000000000000000000000000000000000000AD
:10431000000000000000000000000000000000009D
:10432000F0010C030C030003E0031C030E0306035F
:1043300006038E0B7C0E0000000000000000000051
:104340000000000008000E000C000C000C000C0027
:10435000CC013C031C060C060C060C060C060C06D5
:104360000C021C03E401000000000000000000003B
:10437000000000000000000000000000000000003D
:10438000F0008C018C018601060006000600060282
:104390000C020C01F0000000000000000000000012
:1043A000000000000002C00300030003000300033C
:1043B00078038C030C0306030603060306030603B7
:1043C00004038C07780100000000000000000000DA
:1043D00000000000000000000000000000000000DD
:1043E000E001180308020C060C06FC070C000C0088
:1043F00018041802E00100000000000000000000A6
:10440000000000000000C0036006300630003000ED
:10441000FE0130003000300030003000300030004D
:1044200030003000FC01000000000000000000002F
:10443000000000000000000000000000000000007C
:10444000F007D8068C018C018C019801F8000C0053
:10445000FC00CC03060306038E03F80000000000F6
:104460000000000008000E000C000C000C000C0006
:10447000EC011C030C030C030C030C030C030C03D6
:104480000C030C039E070000000000000000000069
:10449000000000000000600060000000000040001C
:1044A0007C006000600060006000600060006000F0
:1044B00060006000FC03000000000000000000003D
:1044C000000000000000C001C00100000000000169
:1044D000F001800180018001800180018001800164
:1044E0008001800180018001CC007C000000000080
:1044F0000000000008000E000C000C000C000C0076
:104500008C038C008C004C006C005C008C008C01D7
:104510000C010C039E0700000000000000000000DA
:104520000000000040007C0060006000600060004F
:10453000600060006000600060006000600060007B
:1045400060006000FC0300000000000000000000AC
:10455000000000000000000000000000000000005B
:104560003707EE0666066606660666066606660691
:1045700066066606FF0F0000000000000000000055
:10458000000000000000000000000000000000002B
:10459000EE011C030C030C030C030C030C030C03B3
:1045A0000C030C039E070000000000000000000048
:1045B00000000000000000000000000000000000FB
:1045C000F00098010C030606060606060606060617
:1045D0000C030C03F00000000000000000000000CD
:1045E00000000000000000000000000000000000CB
:1045F000EE011C030C060C060C060C060C060C0641
:104600000C031C03EC010C000C003E000000000039
:10461000000000000000000000000000000000009A
:1046200078028C030C030603060306030603060345
:1046300004038C03780300030003C007000000009C
:10464000000000000000000000000000000000006A
:104650009F035806380618001800180018001800A4
:1046600018001800FF00000000000000000000001B
:10467000000000000000000000000000000000003A
:10468000F0031C030C020C023800F000C00304030A
:1046900004038C03FC010000000000000000000087
:1046A000000000000000000020002000300030006A
:1046B000FE013000300030003000300030003000AB
:1046C00030023002E00100000000000000000000A5
:1046D00000000000000000000000000000000802D0
:1046E0008E030C030C030C030C030C030C030C03D0
:1046F0000C039C077801000000000000000000008F
:1047000000000000000000000000000000000000A9
:104710001E070C020801080118019000B000B0004B
:1047200060006000200000000000000000000000A9
:104730000000000000000000000000000000000079
:10474000F70E6204460464026402EC029C019801C4
:10475000980198010800000000000000000000001F
:104760000000000000000000000000000000000049
:10477000BC0718011001B00060006000E00090006C
:10478000080108039E070000000000000000000070
:104790000000000000000000000000000000000019
:1047A0009E0708010801080190009000B000600019
:1047B000600060002000200024001C0000000000B9
:1047C00000000000000000000000000000000000E9
:1047D000FC018401C4004400600020003000180285
:1047E00008020C03FC0100000000000000000000B3
:1047F0000003800080008000800080008000800036
:104800008000400020004000800080008000800088
:104810008000800080008000000300004000400015
:104820004000400040004000400040004000400088
:104830004000400040004000400040004000400078
:1048400040004000400040004000400000000000E8
:104850000C001000100010001000100010001000DC
:104860001000200040002000100010001000100078
:1048700010001000100010000C00000000001C00D0
:104880002204C204800300000000000000000000B9
:104890000000000000000000000000000000000018
:1048A0000000000000000000000000000000000008
:1048B00000000000000000000000000000000000F8
:1048C00000000000000000000000000000000000E8
:1048D00000000000000000000000000000000000D8
:1048E00000000000000000000000000000000000C8
:1048F000000000000000C001C001C001C001C001F3
:10490000C001C00180008000800080008000800025
:10491000800000000000000000008001C003C00310
:104920008001000000000000000000000000000006
:104930000000E01CE01CF01E700E38071803080190
:1049400084000000000000000000000000000000E3
:104950000000000000000000000000000000000057
:104960000000000000000000000000000000000047
:104970000000000000000000201020102010201077
:104980002010FE7FFE7F1008100810081008100885
:1049900010081008FE7FFE7F0804080408040804BD
:1049A00008040000000000000000000000000000FB
:1049B0000000000000010001C0076019103118312B
:1049C0001839183938017001E001C0038007000F61
:1049D000001D003900311C311C310C310C11180D37
:1049E000E0070001000100010000000000000000DD
:1049F00000000000000000001C1036186308630C63
:104A000063046304630263026301361D9C378022E2
:104A10008063406340632063206330631022183654
:104A2000081C000000000000000000000000000062
:104A30000000000000000000F00098018C018C01D3
:104A40008C018C018C00CC007800183E1C083608C4
:104A5000320863046304C304C303834306438E26FE
:104A6000781C0000000000000000000000000000B2
:104A700000001C003C003C003000300010000C0026
:104A80000600000000000000000000000000000020
:104A90000000000000000000000000000000000016
:104AA0000000000000000000000000000000000006
:104AB00000000040002000100008000C0004000668
:104AC0000003000300038001800180018001800158
:104AD000800180018001000300030003000600063E
:104AE000000C000800100020004000000000000042
:104AF00000000200040008001000300020006000E8
:104B0000C000C000C00080018001800180018001E0
:104B1000800180018001C000C000C0006000600012
:104B20003000100008000400020000000000000037
:104B300000000000000000000000000000018003F1
:104B4000800300011C713C79783DC0070001C0075B
:104B5000783D3C791C7100018003800380010000D6
:104B60000000000000000000000000000000000045
:104B70000000000000000000000000000000000134
:104B8000000100010001000100010001FC7F0001A3
:104B9000000100010001000100010001000000000F
:104BA0000000000000000000000000000000000005
:104BB00000000000000000000000000000000000F5
:104BC00000000000000000000000000000000000E5
:104BD0000000000000000000000000001C003C007D
:104BE0003C003000300010000C0006000000000007
:104BF00000000000000000000000000000000000B5
:104C0000000000000000000000000000FE7F000027
:104C10000000000000000000000000000000000094
:104C20000000000000000000000000000000000084
:104C30000000000000000000000000000000000074
:104C40000000000000000000000000000000000064
:104C50000000000000000000000018003C003C00C4
:104C6000180000000000000000000000000000002C
:104C70000000004000600020003000100018000814
:104C8000000C000400060002000300018001800007
:104C9000C000400060002000300010001800080034
:104CA0000C000400060002000000000000000000EC
:104CB0000000000000000000C007600C3018183031
:104CC000183018200C600C600C600C600C600C60DC
:104CD0000C600C600C601820183018303018600C14
:104CE000C0070000000000000000000000000000FD
:104CF000000000000000000000018001F8018001B8
:104D0000800180018001800180018001800180019B
:104D10008001800180018001800180018001C00349
:104D2000F81F00000000000000000000000000006C
:104D30000000000000000000E007101C081804300C
:104D400004300C300C300030001800080004000261
:104D50000001800040002020102008200430FC1FAB
:104D6000FC1F000000000000000000000000000028
:104D70000000000000000000E003180E0C0C0C18EE
:104D80000C180C180018000C0006C003000E0018C8
:104D90000010003000300C300C300C100C18180CC7
:104DA000E003000000000000000000000000000020
:104DB0000000000000000000000C000E000E000FBC
:104DC000800E800E400E600E200E100E100E080E8B
:104DD000040E040EFE7F000E000E000E000E000EEC
:104DE000000EC07F00000000000000000000000076
:104DF0000000000000000000F03FF03F1000100035
:104E0000100008000800C807280C18180810003007
:104E10000030003000300C300C3004180418080C3E
:104E2000F00300000000000000000000000000008F
:104E30000000000000000000800FC0102030103083
:104E40001800180008000C008C0F6C183C301C6017
:104E50000C600C600C600C6018601820303060181A
:104E6000C00700000000000000000000000000007B
:104E70000000000000000000F83FF83F1C100C0884
:104E80000408040400040002000200010001000103
:104E9000800080008000C000C000C000C000C000D2
:104EA000C000000000000000000000000000000042
:104EB0000000000000000000E007300C18180C3063
:104EC0000C300C301C3038187008E007B007180E92
:104ED0000C1C063806300630063006300C18180C4C
:104EE000E0030000000000000000000000000000DF
:104EF0000000000000000000E00318040C080C187B
:104F00000610063006300630063006380C3C1836DF
:104F1000F03100300018001800180C0C0C060C03BF
:104F2000F001000000000000000000000000000090
:104F30000000000000000000000000000000000071
:104F40000000000000008001C003C00380010000D9
:104F5000000000000000000000008001C003C0034A
:104F600080010000000000000000000000000000C0
:104F70000000000000000000000000000000000031
:104F8000000000000000C000C000000000000000A1
:104F90000000000000000000000000000000C00051
:104FA000C0008000800040004000000000000000C1
:104FB00000000000000000200010000800040006AF
:104FC00000038001C0006000300018000C001800D1
:104FD00030006000C00080010003000600040008EB
:104FE0000010002000000000000000000000000091
:104FF00000000000000000000000000000000000B1
:10500000000000000000FE7F000000000000000023
:105010000000FE7F00000000000000000000000013
:105020000000000000000000000000000000000080
:1050300000000000000004000800100020006000D4
:10504000C000800100030006000C001800300018AA
:10505000000C000600038001C0006000200010006A
:105060000800040000000000000000000000000034
:10507000000000000000C0073018083008600C6015
:105080001C601C601C600030001C000600018000D9
:10509000800080008000000000008001C003C00389
:1050A000800100000000000000000000000000007F
:1050B0000000000000000000C00760181030182039
:1050C0000C2F8C4D864CC64CC64C664C66446644D0
:1050D000662666266615CC1C0C4008201830301851
:1050E000C0070000000000000000000000000000F9
:1050F0000000000000000001C001C001C00140012B
:10510000600320032003200330061006100610065B
:10511000F80F080C080C080C0C0C041804180618DE
:105120001F7C0000000000000000000000000000E4
:105130000000000000000000FE07181C183818309E
:105140001830183018301818180CF80718181830BC
:105150001820186018601860186018601830181847
:10516000FE0F000000000000000000000000000032
:105170000000000000000000C02760381030182038
:105180000C400C4004000600060006000600060065
:105190000600060006000C400C400C2018303018A9
:1051A000C007000000000000000000000000000038
:1051B0000000000000000000FE03180E1818183050
:1051C000183018301860186018601860186018607F
:1051D0001860186018601830183018101818180E59
:1051E000FE030000000000000000000000000000BE
:1051F0000000000000000000FE3F1830182018607A
:105200001840180018081808180CF80F180C18087F
:1052100018081800180018001840184018201830F6
:10522000FE3F000000000000000000000000000041
:105230000000000000000000FE7F1870184018C039
:1052400018801800181018101818F81F18181810BF
:10525000181018001800180018001800180018007E
:105260007E000000000000000000000000000000C0
:105270000000000000000000C013701C1010181087
:105280000C200C20040006000600060006000600A4
:1052900006FC063006300C300C3018301830300860
:1052A000C007000000000000000000000000000037
:1052B00000000000000000003F7E0C180C180C18C5
:1052C0000C180C180C180C180C180C18FC1F0C18C7
:1052D0000C180C180C180C180C180C180C180C18AE
:1052E0003F7E000000000000000000000000000001
:1052F0000000000000000000F81F80018001800114
:105300008001800180018001800180018001800195
:105310008001800180018001800180018001800185
:10532000F81F000000000000000000000000000066
:105330000000000000000000E07F000600060006FC
:10534000000600060006000600060006000600062D
:10535000000600060006000600060006000600061D
:10536000000600060E060E038E01FC000000000081
:1053700000000000000000007E7C181818081804C7
:1053800018061802180198019801D801B8033803CB
:1053900018071806180E180C181C18181830183092
:1053A0007EFC000000000000000000000000000083
:1053B00000000000000000007E0018001800180027
:1053C000180018001800180018001800180018001D
:1053D000180018001800180018401840182018303D
:1053E000FE3F000000000000000000000000000080
:1053F00000000000000000001FF81C381C381C389A
:105400001C3C3434343434343436743264326432D0
:1054100064326431C431C431C431C430C4308430E6
:105420009FFC0000000000000000000000000000E1
:1054300000000000000000001F7C1C103C10341015
:10544000341074106410E410C410C4118411841357
:10545000041304170416041E041C041C041C041862
:105460001F18000000000000000000000000000005
:105470000000000000000000C003300C18180810E5
:105480000C300C3006600660066006600660066040
:105490000660066006600C200C3008101818300CEE
:1054A000C003000000000000000000000000000039
:1054B0000000000000000000FE0F181818301860EF
:1054C000186018601860186018301818F80F180065
:1054D000180018001800180018001800180018000C
:1054E0007E0000000000000000000000000000003E
:1054F0000000000000000000C003300C18180C1061
:105500000C300C20066006600660066006600660CF
:10551000066006600660E4612C331C321816300EFB
:10552000C007004C007C00380000000000000000B4
:105530000000000000000000FE07181C183818309A
:105540001830183018301818180CF807980318037A
:10555000180718061806180E180C180C181C18181E
:105560007E78000000000000000000000000000045
:105570000000000000000000E027303818300C2048
:105580000C200C000C0018007800E003800F001EB7
:10559000003800700060046004600860183038183B
:1055A000C80F000000000000000000000000000024
:1055B0000000000000000000FC3F8C21846182415B
:1055C0008241800180018001800180018001800191
:1055D00080018001800180018001800180018001C3
:1055E000E0070000000000000000000000000000D4
:1055F00000000000000000003F7C0C100C100C109C
:105600000C100C100C100C100C100C100C100C10BA
:105610000C100C100C100C100C100C100808380496
:10562000E003000000000000000000000000000097
:1056300000000000000000003EF81820182018208C
:105640003010301030103010600860086008E00C36
:10565000C004C004C00480038003800380030001F1
:105660000001000000000000000000000000000039
:105670000000000000000000DFF386618621862123
:105680008C210C218C238C138C138C134C135812EB
:105690005816580E380E380E380E300C1004100400
:1056A00010040000000000000000000000000000E6
:1056B00000000000000000007E3E1808380830049A
:1056C000300470026002E001C001C001800180036B
:1056D0004003400720062006100C100C081808187C
:1056E0003E7C000000000000000000000000000000
:1056F00000000000000000007E7C1C10181018083C
:105700003008300C700460046002C002C002C001A6
:105710008001800180018001800180018001800181
:10572000E007000000000000000000000000000092
:105730000000000000000000F83F18180818040CD2
:10574000040E00060007000380038001C001C000B2
:10575000E000600070003000382018201C100C1889
:10576000FE1F00000000000000000000000000001C
:105770000000C03F400040004000400040004000AA
:105780004000400040004000400040004000400019
:105790004000400040004000400040004000400009
:1057A000400040004000C03F00000000000000003A
:1057B0000000000000000800180018001000300071
:1057C0002000600060004000C00080008001800177
:1057D000000100030002000600060004000C00089F
:1057E0000018001800100030002000000000000029
:1057F0000000FC030002000200020002000200029E
:105800000002000200020002000200020002000288
:105810000002000200020002000200020002000278
:10582000000200020002FC03000000000000000073
:1058300000008007C00620081010000000000000D3
:105840000000000000000000000000000000000058
:105850000000000000000000000000000000000048
:105860000000000000000000000000000000000038
:105870000000000000000000000000000000000028
:105880000000000000000000000000000000000018
:105890000000000000000000000000000000000008
:1058A00000000000000000000000FFFF00000000FA
:1058B00000007800C00000010000000000000000AF
:1058C00000000000000000000000000000000000D8
:1058D00000000000000000000000000000000000C8
:1058E00000000000000000000000000000000000B8
:1058F00000000000000000000000000000000000A8
:10590000000000000000F00318060C0C0C0C000C4A
:10591000800F700C1C0C0C0C060C060C064C0C4F6B
:10592000F838000000000000000000000000000047
:1059300000000000000010001E00180018001800F1
:10594000180018001800180FD81838303860186080
:1059500018601860186018601860182038307818BF
:10596000C807000000000000000000000000000068
:105970000000000000000000000000000000000027
:10598000000000000000C007700C181818180C1850
:105990000C000C000C000C000C2018201810300813
:1059A000C007000000000000000000000000000030
:1059B0000000000000000010001E00180018001871
:1059C000001800180018E01B301C181818180C18C4
:1059D0000C180C180C180C180C180818181C307A15
:1059E000E0090000000000000000000000000000CE
:1059F00000000000000000000000000000000000A7
:105A0000000000000000C007300C181808100C300F
:105A10000C30FC3F0C000C000C0018201810701803
:105A2000C0070000000000000000000000000000AF
:105A30000000000000000000003E80C380C0C0C025
:105A4000C000C000C000FC1FC000C000C000C000FB
:105A5000C000C000C000C000C000C000C000C00046
:105A6000F80F00000000000000000000000000002F
:105A70000000000000000000000000000000000026
:105A8000000000000000C077306C101818181818BB
:105A900018181018300CF00718001800F00FF03F1D
:105AA00008700C600C600C603838E00F00000000DB
:105AB00000000000000010001E0018001800180070
:105AC000180018001800980FD818383018301830FF
:105AD0001830183018301830183018301830183086
