:020000040000FA
:10000000600120206D0100007101000073010000FB
:1000100000000000000000000000000000000000E0
:10002000000000000000000000000000750100005A
:1000300000000000000000007701000079010000CE
:100040007B0100007B0100007B0100007B010000C0
:100050007B0100007B0100007B0100007B010000B0
:10006000000000007B0100007B0100000000000098
:10007000000000007B0100007B0100007B0100000C
:10008000490400007B0100007B0100007B010000AF
:100090007B0100007B010000000000000000000068
:1000A0007B0100007B010000000000000000000058
:1000B0007B010000000000007B0100007B010000CC
:1000C00000F002F800F042F812A030C808382418F6
:1000D0002D18AC4201D100F039F80FCCA246AB4646
:1000E0000CA730CF2D1B083F3F197C427F1E544484
:1000F0002D090426F441641EAC4201D300F026F819
:100100000126334200D0FB1A3343984754465D46DC
:10011000DFE70000840300009403000000000000FB
:100120007047000000000000002300240025002686
:10013000103A01D378C1FBD8520700D330C100D5A3
:100140000B6070471FB51FBD10B510BD00F027F83C
:100150001146FFF7F7FF00F085F900F03FF803B410
:10016000FFF7F2FF03BC00F045F800000648004727
:10017000FEE7FEE7FEE7FEE7FEE7FEE70348044989
:10018000024A044B70470000C100000060002020BC
:10019000600120206000202070477047704775463E
:1001A00000F024F8AE46050069465346C008C0007A
:1001B000854618B020B5FFF7E1FF60BCB6460026C3
:1001C0000027C0C5C0C5C0C5C0C5C0C5C0C5C0C565
:1001D000C0C5403D490849008D46704710B50446EA
:1001E000C046C0462046FFF7BAFF10BD0048704722
:1001F0000000202001491820ABBEFEE726000200C7
:100200007047811E091F00BFFCD27047B0B5364A47
:1002100080184A6842600A78222A57D8930001A4BD
:10022000E3589F46C3020000CD020000C302000055
:10023000CD020000CD020000CD020000CD02000082
:10024000CD020000CD020000CD020000CD02000072
:10025000CD020000CD020000CD020000CD02000062
:10026000CD020000B1020000CD020000B10200008A
:10027000CD020000CD020000CD020000CD02000042
:10028000CD020000CD020000CD020000CD02000032
:10029000CD020000CD020000CD020000CD02000022
:1002A000CD020000B1020000CD020000B10200004A
:1002B00003231B0704689C4301235B07E3180360C7
:1002C00004E003231B0704689C4304600B69C360BC
:1002D000CB68064C1C40C36A054D1D402B19C362F8
:1002E000097A11430160B0BD04180000777702005D
:1002F0008888FDFF10B50122120383180C789C60DA
:100300004B7883508978014A815010BD0C11000050
:100310000B480C4901600C4941660C4801681022E9
:100320000A4302600120800409490A6A02430A6202
:100330000A6802430A6007480421016001637047AC
:100340003C8042408100010081000D00A0130A4062
:1003500028100A40A0320A400C4800210160032006
:10036000C1430B480246083A13680B40136001680A
:10037000012291430160110203688B430360110362
:10038000001F02680A4302607047C04608030B4022
:1003900008010B40084809494160FF210906084A45
:1003A00013688B430321890759181160002181606C
:1003B000072101607047C04610E000E0FF7C0000AC
:1003C00020ED00E010B5084C08492046FFF792FFE9
:1003D00007492046FFF71AFF06480168012211432A
:1003E00001600548026010BD004008408004000024
:1003F00084040000285008400851084080B500F0EF
:1004000009F8FFF785FFFFF7A7FFFFF7DBFFFFF70F
:10041000C1FF80BD80B5074807494160074A516068
:10042000074B596007490160116019601020FFF700
:10043000E8FE80BD00080A40030000B100280A4021
:10044000004808400100002604480068C0B20128A6
:1004500002D10348042101607047C0462050084083
:10046000B0320A40FFF7CAFF0120000402490860C9
:1004700002490860FEE7C04680E200E000E100E0DB
:1004800008076300020000003F9C0000010000001C
:100490000000000000000000A80400000000202070
:0804A0006001000028010000CA
:04000005000000C136
:00000001FF
