:20000000008020203D190000EB110000EB11000000000000000000000000000000000000D2
:20002000000000000000000000000000EB1100000000000000000000EB110000EB110000CC
:20004000EB110000EB110000EB110000EB1100009D210000EB110000EB110000EB110000FE
:2000600000000000EB110000EB1100000000000000000000EB110000EB110000EB11000094
:20008000EB110000EB110000EB110000EB110000EB110000EB110000000000000000000078
:2000A000EB110000EB1100000000000000000000EB11000000000000EB110000EB11000054
:2000C000F0B5FFB08EB0049306920646929802900025E84305908C913468204602F0CFF89A
:2000E00021188B9503918C4200D3BBE00020879087A908738890059889902F46049D207879
:20010000002800D1AFE0252805D0641C34600699A8477F1CF3E78B97601C306087AC204657
:20012000314600F0A7F88CAA2046314600F0BFF8306801787A2925D0682919D06A2908D071
:200140006C290ED0742908D04C2922D1879980221BE087990122D20217E0879901225203EC
:2001600013E0427887996C2A64D10122120205E042788799682A60D101225202114387914B
:20018000801C05E08799012212030A438792401C0178441C346087A8017373291FD06E2992
:2001A00029D1879832490840202850D040283CD001214A03904238D04A02904242D0CA0242
:2001C000904205D00A0390422FD0090288422CD1F8178C9904C98C91176050603BE087A839
:2001E0000078400619D4009587A88CAA8BAB069900F01DF92FE007AD87A98CAA284600F0F8
:200200006DF9024628460699029B9847411C059D00D0C5198B9503991FE0009587A88CAA45
:200220008BAB069900F09FF815E08C9802C88C900F6010E0401C402201E0401C2022114373
:200240008791A5E78C9802C88C900F7003E08C9802C88C900F8003998B9D681C00D042E7B4
:20026000059F00E02F4638467FB00EB0F0BDC046603F000010B50A681378302B0FD0232B7E
:2002800007D02B2B09D02D2B05D0202B0ED1042306E0082304E0012302E0022300E01023A7
:2002A00004681C430460521C0A60E5E710BDFEB516460D460446086802782A2A10D130683B
:2002C000011D316000686060002805D54042606020680121014321602868471C2F6017E01B
:2002E0000021303A092A08D84218531C2B60435C6F467B545278491CF3E76A460023535466
:2003000012784718002A03D0684601F029FE606038782E2826D1781C286079782A2908D13B
:200320003068011D31600068A0602868401C2860FEBD00203039092908D839188A1C2A60C3
:200340004A786B461A548978401CF3E76A46002111541078002804D0684601F001FEA0602D
:20036000FEBDA160FEBDF0B587B01E460C9F13681C1D14601D68002D3BD00491069084681F
:20038000002C04D4284601F06BFF844203D3284601F066FF044606984068A042039000DC4F
:2003A000204601463068019140180296306005940398A0420EDD06980078C0070AD1059890
:2003C00001990E1A0024B44204DA20200499B847641CF8E70026049C069805998E420BDA71
:2003E0002868010A19D12D1DC0B22146B847761CF2E70020B84718E00599039A8A4214DDDC
:200400000078C00711D00198451A0024AC420CDA20200499B847641CF8E70020C0430299D3
:20042000086001F055FF5821016007B0F0BDF0B585B00C4606460A9D1068011D1160006843
:200440000490002844D00393B768002F04D4049801F015FF874203D3049801F010FF0746E7
:2004600002967268BA42114600DC3946039B18680091401818600192BA420FDD0298007850
:20048000C0070BD10098C01B039000260398864204DA20202146A847761CF7E70026BE4220
:2004A00005DA0498805D2146A847761CF7E70198B84210DD02980078C0070CD00098C61B70
:2004C0000027B74207DA20202146A8477F1CF8E700202146A84705B0F0BDC046F0B589B04F
:2004E00001920F460446FF210846FA30251878680290002607960391FE31202220460092C3
:2005000001F0B6FE7F20800006942118089104952E713D46387B0246613A172A2AD80123F3
:2005200093402C46B44D2B42254608D007A908AA2846019B00F066F900260596B3E0712520
:200540002B42254622D1022A14D1019B1868021D1A600068C2B2534253410593039AFC32A2
:20056000069B9A18089208702868022188432860002698E001464539032907D3252860D02A
:20058000412803D058280596D0D08DE0019A1068C11D0720814308460830106005C9D14343
:2005A0002F7B4900490D0BD17B3F944911400143049C2CD01920C1438F4234D36E2033E098
:2005C000002A01D4114602E00121C9075140D60F002205923A46413A062A0BD9613F062FDE
:2005E00061D8C0467F443F797F00BF440B5C5C5C3B3631007A441279520097440354545489
:20060000332E290008AB2A4600F042FA4BE0002311461A46059301F077FA1921C9438F42EB
:2006200025D3662224E04E20E0708F4201D3612100E04121A17008946070002005900226B5
:2006400031E0002006994870252008700120A1E008AB2A4600F02CFB25E008AB2A4601F060
:2006600035FB20E008AB2A4600F05EFE1BE04622E2708F4201D36E2200E04E22A2708F42BE
:2006800001D3692100E0492161703F21C900069A51180891002803D02D202070042602E032
:2006A0002B2020700326287B012701466F39092904D801228A4052490A4201D158286BD10C
:2006C000049B029C04972946069F3D1908980C460978C90707D1191D091A62689142069F22
:2006E00001DC691A4F1C411C0398430000263846324601F031FD08900599002903D0411C2A
:200700000891067000E00146A94206D8481E691A491C202201F0ACFD2E702078C00605D4DB
:200720000698391A202201F0A3FD2EE0069887422BD00698391A3026324601F099FD0798A0
:200740004142414104980140012905D12078400702D43846069905E03878069A511C1070C3
:20076000781C3E70227B412A0CD0582A05D0612A08D0782A01D0702A07D123781B0701D422
:20078000612A02D142784A704670069801F077FD0599401809B0F0BD002E09D0012E049B9D
:2007A000029C8FD10120079029680220084007E0079A296802200840002A09D0049B029CC5
:2007C00008994A1E08922D220A704742474179E70028049B029C08D1480700D472E70898E2
:2007E000411E0891009901706CE70898411E08912B210170002765E708C19000FFFF0F0076
:2008000043020000F8B514460F4605468068002804D4286810218843286001E00120A860E6
:20082000287B1026582808D0782806D0702804D06F2801D1082600E00A262846194600F041
:2008400055F8AA68002A09D102460A4306D12878000749D52B7B0020024612E02B7B642BCF
:2008600003D1642300290BD504E0692B08D1002906D5692301223A60002240428A4100E027
:200880000A4600941146324600F0B0F8A968884206DA401C21684A1E226030220A70F5E7DB
:2008A000287B582803D0782801D070280FD1297809070CD5702800D1782021684A1E226053
:2008C00008702068411E216030210170287B6F280AD12878000707D520684178302903D071
:2008E000411E216030210170F8BDC04610B5037B702B05D10868021D0A60006800226FE015
:200900000068384A024001204403A24222D0402A20D00402A24230D04402A24246D0C40223
:20092000A2422AD00403A24214D0202A12D100221C46643C142C06D8A0402B4C204204D10D
:20094000212420423ED1582B49D10868031D0B60008845E000221C46643C142C06D8A0407A
:20096000214C204204D1212420422BD1582B36D10868031D0B60006832E01A46643A142AF5
:2009800006D89040184A104206D12122104203D10020582B024623D10868C21D072082439B
:2009A0001046083008601068526819E000221C46643C142C0CD8A0400B4C20420AD1212415
:2009C000204205D00868021D0A600068C21707E0582B04D10868031D0B60007800E01046BE
:2009E000114610BD603F000000081200FEB501920D460646582B01D0174800E015480090B5
:200A0000089802903046284305D1029A1068411E116030210170019C3046284313D0304670
:200A20002946224600F01AF807460D46224601F081FB301A0099085C029B19684A1E1A6021
:200A400008703E46E8E70298006801F018FC401EFEBDC046062400001724000080B5102AD1
:200A600006D0082A09D1C0084A078018C90880BD00090A078018090980BD002904D111467F
:200A800001F02EFA002180BD002301F0C3FB80BDF0B5A5B0049308920E46074600240A9442
:200AA0007E4D22462B4601F043F8002813D100247B4D3846314622462B4601F02FF8002860
:200AC00009D1002238463146134601F013F800283C46354607D10AAA2046294601F09CF8C5
:200AE0000A98401E0A900899087B0BAE412801D06D4800E06B480990886801903020039000
:200B000030700022079220462946134600F0FCFF01210028029101D0C8074540771C204666
:200B20002946079A134600F0E5FF00280DD124AA2046294601F070F8249801210A1A20460E
:200B4000294600F079FD04460D462046294601F03DF906463946059701F08CF8069030463F
:200B600001F0ACFA01F09DFB04460D460198471C20D30598069946180022204629461346DF
:200B800000F0B8FF002848D1002220462946474B00F0E0FC04460D4601F018F90999095C72
:200BA000771C317001F08AFA01F07BFB04460D463E46E1E70BA806994618002F16D07F1EDA
:200BC000002220462946394B00F0C4FC04460D4601F0FCF80999095C3246761C517001F0A5
:200BE0006DFA01F05EFB04460D46E6E73178099C204601F019FB001B08280EDB0196741EC4
:200C0000089D079F099E2178304601F00DFB801B0E2805DD2770641EF5E7089D079F04E003
:200C20000999081840782070019E37700A98297B4129049C01D0702100E05021069E059F19
:200C4000224601F09AF8AA68501C04D1384601F016FB421EAA6038463146234601F016FA0D
:200C6000A8680028029A02D128680007C20F38463146234600F00AFF287B412801D0782099
:200C800000E0582021684A1E226008702068411E21600399017025B0F0BDC0460000F07FA5
:200CA0000000F0FF062400001724000000003040F0B5A3B003930F4604460492916800298B
:200CC00003D0002904D5062100E001210498816007910AA8302108910170002520463946EA
:200CE0002A462B4600F010FF01210028059101D0C8074740624E20463946604A334600F065
:200D000021FF002809D00022204639465E4B00F09BFB04460F466D1CEDE75A4E0022204650
:200D200039460992134600F0E5FE002811D1002220463946334600F0E7FE002809D00022EB
:200D400020463946504B00F005FC04460F466D1EE4E702950AA8451C2046394601F036F87F
:200D60000695294600F086FF07998842019004DD481C0AA90A18085C1FE0C9430E180AA997
:200D80000D18681C07902046394601F01FF801F095F902460B462046394600F05DF90022C1
:200DA000394B00F0D7FB04460F4601F00FF8079A30306870761C1546E3D3C0B23528039E6A
:200DC000049F029B099D0FD31446501E0178491CCAB201703A2A03D330210170401EF5E782
:200DE0000AA98842224640D00198C41815700220C043844202DBB868844207DD601E397B40
:200E0000891EC9B2324600F0B8FF0124069801F036FA401E0599A0421ADB0028089A01D43B
:200E2000069A125C1346303B5D1EAB41C9431943C90705D13978090702D40025059905E02C
:200E400031684B1E33600A7001250021401EE2E73868082202402A43501E82410698214666
:200E6000334600F013FE23B0F0BD501E002101700198C018441C0AA80690B8E70000C0FF01
:200E8000FFFFDF410000F03F000024408EB0664C01A8322101F0FAF901F08EF9634810217D
:200EA000016000206123624904E00830A2610B5C102857D02268D20705D02268D20702D030
:200EC0002268D207F6D10A18A36153782568ED0705D02568ED0702D02568ED07F6D1A36102
:200EE00093782568ED0705D02568ED0702D02568ED07F6D1A361D3782568ED0705D02568C4
:200F0000ED0702D02568ED07F6D1A36113792568ED0705D02568ED0702D02568ED07F6D142
:200F2000A36153792568ED0705D02568ED0702D02568ED07F6D1A36193792568ED0705D08A
:200F40002568ED0702D02568ED07F6D1A361D2792368DB07A9D02368DB07A6D02368DB0771
:200F6000F6D1A2E7344D02E03A4801F095F9314A106801210902014311602878002809D146
:200F800020BF2878002805D120BF2878002801D120BFF2E72948006886B20020287001AF2A
:200FA00038462749324601F055F83878002810D001A92268D20705D02268D20702D0226834
:200FC000D207F6D14A1CA06103D0487800281146EFD1304601F09CF800221A4B00F034FA98
:200FE000194A1A4B00F0B6FA00F0AAFC00F098FF02460B4601AE3046154901F02BF8307894
:201000000028B1D001A92268D20705D02268D20702D02268D207F6D14A1CA061A4D048784B
:2010200000281146EFD19FE70891104000E100E028240000041100400400202080625540E5
:201040003924000000FEAF406666666666660A40F12300000048E801FCB40124E4076340F0
:2010600002E0FCB40124E40708B41D03ED08D60D354356025F007F0D06D12C00344300D015
:20108000AEE001B0FCBC7047A408254307242402FF34A74205D10020190D090501B0FCBC8E
:2010A0007047002B03D50024A61BAC4125000B03DB08C20D134342024800400D07D11C009C
:2010C000144300D08CE00EBC1000F0BC704701246407234307242402FF34A04205D10020EE
:2010E000090D090501B0FCBC7047002903D50024A21A9C412300C11B08D51C002B002500A6
:201100001400320026000024611A3800362925D502B4393949420C00203C03D22F008F4045
:20112000374301E03700A740002F01D040210E4302BC20290BD500290ED04C42203420B4E0
:20114000A5402C0020BC0D41CE40361904E000292E000D4120390E4192196B411C001443FC
:201160003ED00024002B04D5012400218A1A99410B00401E52005B41FBD50121890215008C
:201180000D400CD0521800277B4101D3401C0BE00721C90115000D4001D189008A4307211A
:2011A00009028A4352005B41801C19DD07210902FF31884209D30EBC0020C90F0902FF31D1
:2011C000C900C91D0905F0BC7047190B00050143E40721431805120B104301B0FCBC704786
:2011E0000021002001B0FCBC7047FEE7F0B587B01D461646302405900470002710461946D5
:201200003A463B4600F080FC0028019402D00120C00745400D9804900C9803903F4C3046F4
:2012200029463D4A234600F08DFC002809D00022304629463B4B00F007F906460D467F1C1E
:20124000EDE70598441C0022304629460692134600F050FC002811D1002230462946304BFD
:2012600000F052FC002809D00022304629462D4B00F070F906460D467F1EE4E70398C019DC
:2012800003903046294600F0A1FD214600F0F2FC02942418C019049908600398471C012F25
:2012A0001ADB3046294600F091FD00F007FF02460B4630462946FFF7CFFE0022194B00F029
:2012C00049F906460D4600F081FD3030611C20707F1E0C46E5D100E02146481E0278352A27
:2012E0000DD3891E019C0A78521CD3B20A703A2B02D30C70491EF6E7059A914204D00699FC
:201300000170029807B0F0BD0699017004990868401C08600598F5E70000C0FFFFFFDF4127
:201320000000F03F00002440F0B5A1B0049305469068002801D506209060029003920024EB
:201340003D4F2846224606913B4600F0F1FB06990028264614D10026384F284632463B460B
:2013600000F0DCFB069900280AD1002228460592134600F0BFFB069B00282E461F4622D145
:201380002F4D00F09BFF00F0BFFB002809D00022304639462B4B00F0DDF806460F46641E27
:2013A000EFE7284D00F08AFF00F0C2FB002807D000F084FF00F048F806460F46641CF1E721
:2013C00035463B46059407A802990091019008A82A46FFF70BFF0446079D022D0DD1059D4F
:2013E0006D1C204600F04BFF2018401E0021017028460125049E039F02E0049E039F059801
:20140000397B324600F0B9FCBA6820462946334600F03CFE204600F032FF854203D138689F
:201420000007C20F00E0012220462946334600F02DFB21B0F0BDC0460000F07F0000F0FF89
:201440000000F03F00002440FCB40C005C40E40FE40710B41D032D0B56006D415F007F0DB8
:2014600073D001246405254307242402FF34A74261D00B031B0B42005B414800400D64D0BA
:2014800001246405234307242402FF34A04252D0C01B002100273624AB4200D1B24204D3CA
:2014A0007F414941921BAB4101E07F414941641E06D0002B01D1002A02D052005B41EBE70D
:2014C000202C07D2162C0AD33900A7402026361BF1400BE0203C3900A140002706E0A14091
:2014E0002026361B3D00F5402943A74001246405214202D17F004941401E00247F1C614104
:201500000124A405214202D0401CA14301E06408A14303242402FF34001916DD2419A042AC
:2015200009D8CC074908000501437808204310BC2143FCBC704702BC0020C90F0902FF21FA
:20154000C900C91D0905FCBC70470021002001B0FCBC7047FCB50C005C40E40FE40710B403
:20156000DD02540D2543D6025F007F0D60D00124E407254307242402FF34A74250D0CB02FE
:20158000440D2343C2024800400D51D00124E407234307242402FF34A04241D0C01901B49F
:2015A0001800290000F038FD0F0001B41800310000F032FD03000C001000310000F02CFD30
:2015C00006001000290000F027FD05007618002202BC01BC55415141A419554151418024D7
:2015E000A4005B195141FF18514100D564003F19514102D47F00494100E0401C032424020D
:20160000FF34001B14DD2419A04209D80305F80A4C0520434900090B194310BC2143FCBD2B
:201620000020FF21C900C91D090510BC2143FCBD0021002001B0FCBDF8B515462A4E0A0D82
:20164000771C3A40294B9A4213D00C46002A18D10122D2079443044344D00022244BFFF730
:2016600079FF0C4623498D4208DC234A234B214636E002460B46FFF7F4FCF8BD220D3A404C
:20168000363A5119B1420ADD00F022FE222101600120C00704401D4821180020F8BD012919
:2016A00004DB174A144009052143F8BD3522D24391420CDC00F00CFE222101601248854289
:2016C000E6DA0120C007044000202146F8BD0C4A144009051B225205891821430022094B1B
:2016E000FFF738FFF8BDC046FE070000FF07000000005043AF3CFFFF59F3F8C21F6EA50142
:20170000FFFF0F800000903C51C300000000F07FF0B58B4200D1824204D90B0002000021DB
:20172000002040E0002B00D1002A0CD10B00020000210020002B00D1002A01D0C943C04312
:2017400000F069FB2FE01C0015000B0002000CB4002126002F00FF19764102D2491C402941
:20176000F9D100201E001700FF19764102D2401C4028F9D10E1A21002800320000F0FEFC8C
:201780000C0005000CBC00200021A34200D1AA4201D3521BA341404149416D08E7073D437A
:2017A0006408761EF1D5059F002F01D03A607B60F0BD002A49D084468B071CD1830722D194
:2017C000102A08D370B4103A78C978C0103AFBD270BC103238D0042A2CD3082A05D30C2A13
:2017E00001D308C908C008C908C008C908C092072AD0920F22E00B780370491C401C521EED
:2018000022D08B07F7D1C30714D18307D8D0121F12D308C903801B0C4380001D121FF8D22F
:201820000AE008C903701B0A43701B0A83701B0AC370001D121FF4D2121D05D00B78037024
:20184000491C401C521EF9D160467047F8B5451C00780023082B32D02F78C2070CD16A7823
:201860000F241440E41C122C0BD102242E57F4B2002E08D4EE1C0EE06D1C4A1C0F701146AF
:201880001AE0AE1C08E02E1DED7800957F252C40009DED012C1912343D0112095219094D17
:2018A000AA420ED0D243002C05D08D5C4F1C0D70641E3946F7E7354640085B1CCAE728463F
:2018C000C5E7F8BDFF0F0000FEB502930F46194D0024E143184E00973740019043422B4653
:2018E000BB4101D20C4623E0084602990E405342B54101D204461BE0134601990B433E4328
:201900001E43029D009E13D02B46334004D401998B1A3346AB4103E00199531A2B46B34197
:20192000044605DB51406E400E43701E864134462046FEBD0000F07FFFFFFF7FD4E37047A4
:201940000CB41B4B4A00D21A1BD2000D0A03104301221202801802D3400812038918400AE5
:20196000002902D50122D20710434900490D38221201891A0CD4FF290DD2C90508430CBCA1
:201980007047DB431A40024305D0D8430CBC704700200CBC7047C90FC907FF20C0050843EE
:2019A0000CBC7047C046C046C046C046C046C0460000E0FF10B51549154C204600F03EFC91
:2019C0001449204600F028FA134801680322D203914301600169114A0A40D0320261416921
:2019E00015220A432A218A434261416801221140436893435918416009490B6894021C433E
:201A00000C6001681143016010BDC046522400000080104048240000009110400000FFFFD8
:201A200028901040F8B50446164F174D0E462E400120009464423C46B4411AD31D4054426A
:201A4000AF4116D31046009C20433543054311D00020C0431C460C400ED4009CA41A0C4658
:201A60009C4106DB0098504059400143481E81410846F8BD0020F8BD009C141B1C468C41A9
:201A8000F0DAF6E70000F07FFFFFFF7FF8B51C4617460E46054600F0F2FB0021012E03DB9E
:201AA000B04201DBA919491E002F04D02268531E23602E2313703246824206DD23685F1EB3
:201AC000276030271F70521EF6E7B04200DB3046012808DBA9420BD308782268531E236036
:201AE0001070491EF6E72068411E216030210170F8BD704710B5FFF795FF002801D0002024
:201B000010BD012010BDC04610B5FFF78BFF002801DB002010BD012010BDC04610B5FFF71F
:201B200081FF002801DD002010BD012010BDC04610B5FFF7C9FE002801DA002010BD0120AB
:201B400010BDC04610B5FFF7BFFE002801DC002010BD012010BD8446830706D0002A29D00D
:201B600001700130013A8307F8D1042A1CD30906090E0B0219430B041943082A10D30B00FE
:201B8000102A09D370B40F24161B22400C000D003AC0103EFCD870BC082A01D30AC0083AD2
:201BA000042A01D302C0043A002A03D0013A8154013AFCD26046704710B511490124A007C5
:201BC00000F04EF90F4841680F4A0A4061045118416081680D4A0A4082600D4900220A606E
:201BE00021020A46903242610A4A136A0B43136213680B43136001682143016010BDC0463C
:201C00005424000000110040FEFFECFFF8FFE0E0801100402810004070B514460F4D0B46E7
:201C20002B40002222600E4EB34215D81E46064312D01E0D07D100220A4BFFF78BFC0D4084
:201C40003522D2432B461B0D9A18074BD2182260064A0A400649511870BDC046FFFFFF7F0E
:201C6000FFFFEF7F0000504302FCFFFFFFFF0F800000E03FF0B587B00191064602AD002034
:201C8000E874123537460A243846214600F04AF84443391BCA175140891A303129700937B5
:201CA0006D1E122F0746EED8002E01D46D1C01E02D20287002A8441B224614320198294634
:201CC00000F00AFB1334204607B0F0BDF0B5FFB086B01C4615460246A868002801D506203B
:201CE000A8602368039304AB0090019305A80B46FFF77CFA0646049FAA683946234600F0A5
:201D0000C5F920680399814201D0012202E028680007C20F304639462346FFF7B7FE7FB0A8
:201D200006B0F0BD1CB5002922D04C08002900D5494242105440002800D5404200230A00E5
:201D4000904201D95200FBE790425B41904200D3801A914201D25208F6E71900002C00D5FF
:201D60004042640000D549420200080011001CBD01000020FFF7BDFE1CBD7CB515460C46A0
:201D80000646C01731464140081A009200210A226423FEF72BFE30460930122808D8DF20BA
:201DA0002040502804D02868411E296030210170002E01D42B2000E02D2029684A1E2A603F
:201DC00008702868411E296004707CBD0CB54A00520D03231B02FF33D21A13D31F239A1ABF
:201DE00012D98E46C9020123DB071943D1400B2A02D21532D04001437346002B00D54942FE
:201E000008000CBD00200CBD0B000120C007002B00D401380CBD704770B511221302C21816
:201E2000C4580125AC43C4500C888D7825438C882C43C558084E2E40084D25407419C4509D
:201E40008879CB790343087A184351687E23994318400818506070BDE798FDFF1867000095
:201E6000F0B511221302C2180C780B4D46590B4F374003262640BC19A9263606A41944518E
:201E80004C68C55807263606B54334402C19C45048781061F0BDC04608080000FCFFFF0055
:201EA00010B5094809494160094A5160094B5960094C6160094901601160196021601020A4
:201EC00000F0EAF910BDC04600080A40030000B100280A400088104000080040010000269D
:201EE0001CB50A0017D000230124E407A04200D20400944201D95200FBE790425B41904211
:201F000000D3801A914201D25208F6E719000200080011001CBD01000020FFF7EAFD1CBD93
:201F200008B443001B0E0FD0FF2B11D00721C9015B18C10FC9020B43010048074902090B92
:201F40001B05194308BC70470021002008BC704701004002C90DC900C91D090508BC70477D
:201F600010B50E4902788B185B78401CDB06F9D400212D2A04D02B2A02D0401E134600E041
:201F80000378303B092B04D80A244C431919401CF6E72D2A00D14942084610BDF022000043
:201FA0000C48002101600C48014608390A680323DB4313400B6001680122914301600168D1
:201FC000130299430160001F016812030A4302607047C04608030B4008010B4070B50A4885
:201FE0000A4C84420CD00A4D0A4EB54208D02A686968501C12789200A25890470835F4E797
:2020000000BF00BF70BDC0466C240000602400007C2400008C240000FCB4020C0B0CFF24B3
:202020002402FF34204021400C00444315005D4306005E430F005743320C3B0CA818C018D1
:2020400032043B040025A1186841C9186841FCBC7047000082B0F8B5069207930291019056
:2020600006A9039107480090074B02A801AAFEF727F8019900220A7004B080BC02BC02B0ED
:202080000847C046D1210000C7220000F8B51C4615460646571800F0F2F8711E012D0CDB6D
:2020A0003022012F02DB874200DCCA5D23685E1E26601A707F1E6D1EF0E7F8BD04B404224C
:2020C000002802D1002104BC704701D50832404212021F320100521E4900FCD30805090BCC
:2020E0001205114304BC7047084880F3088800BF00BF00F0F5F8002801D0FFF76FFF0020D3
:20210000FEF7C4FE012000F0EDF8C04600802020002801D10021704704B4042212021F3237
:202120000100521E4900FCD30805090B1205114304BC704730B514004C4325001C004443C3
:202140006419050010002900FFF766FF001904000D002100280030BDB0B504460020002B0F
:2021600008D0D2B20D782570954204D0641C491C5B1EF7D1B0BD601CB0BD000018B52023B2
:202180009B1A04D8010000205B42994004E004009140DC402143904018BD00000448006885
:2021A000C0B2092802D10348012101707047C046201000400400202080B5FFF771FE00F0D0
:2021C0001FF8FFF7EDFEFFF7F5FBFFF7F5FC80BDB0B514460D460146286800F07DF828681F
:2021E000001928602046B0BD03228058002805D0401E4A1C00230B701146F7E77047000023
:20220000024882210160024941607047548042408200040040B584B002AE0096FFF778FA1A
:20222000029A039B04B040BDC9B202788A4204D0002A01D0401CF8E70020704710B5012229
:20224000120383180C789C604978815010BD80B50B4603214258C11D184600F03DF880BD0D
:2022600000214258091D002AFBD1081F801070470B4611461A4680B5FFF76DFC80BD00211F
:20228000425C491C002AFBD1481E70470A46002180B5FFF760FC80BD811E091F00BFFCD29F
:2022A000704702460B4620462946FFE782B00094014C019410BD00BF5910000000223046DE
:2022C00039462B4670470A68531C0B6010707047004870470000202080B5FFF76AFA80BDC9
:1022E0000120704700BFFEE7000000000000000072
:2022F0000080808080808080808090909090908080808080808080808080808080808080FE
:202310008018040404040404040404040404040404020202020202020202020404040404B1
:202330000404434343434343414141414141414141414141414141414141414104040404CF
:202350000404232323232323212121212121212121212121212121212121212104040404EF
:202370008000000000000000000000000000000000000000000000000000000000000000CD
:2023900000000000000000000000000000000000000000000000000000000000000000002D
:2023B00000000000000000000000000000000000000000000000000000000000000000000D
:2023D0000000000000000000000000000000000000000000000000000000000000000000ED
:2023F00000766F6C746167652076616C75653A252E32660D0A003031323334353637383955
:202410004142434445460030313233343536373839616263646566006164632044656D6FE8
:202430002073746172740D0A006164632076616C75653A25640D0A000000180000000030A0
:10245000000008000105000000000003000000006B
:202460004D1800004F220000E921000002000000010000000001000000FFF0006C240000F9
:102480000400202074240000000020200000000030
:00000001FF
