:2000000000802020AD060000DB030000DB03000000000000000000000000000000000000B1
:20002000000000000000000000000000DB0300000000000000000000DB030000610600009D
:20004000DB030000DB030000DB030000DB030000DB030000DB030000DB030000DB030000B0
:2000600000000000DB030000DB0300000000000000000000DB030000DB030000DB0300002A
:20008000DB030000DB030000DB030000DB030000DB030000DB03000000000000000000002C
:2000A000DB030000DB0300000000000000000000DB03000000000000DB030000DB030000EA
:2000C00082B05A4F00F076FA00200090594C009D00223846294600F0D7FA012626602068EE
:2000E000002805D02068002802D020680028F6D1681C00904E488542E9D14D4D019604E0CA
:20010000093D012F3746019EE1D900223846294600F0BAFA26602068002805D02068002825
:2001200002D020680028F6D1691E0022384600F0ABFA26602068002805D02068002802D02D
:2001400020680028F6D1A91E0022384600F09CFA26602068002805D02068002802D0206826
:200160000028F6D1E91E0022384600F08DFA26602068002805D02068002802D02068002835
:20018000F6D1291F0022384600F07EFA26602068002805D02068002802D020680028F6D144
:2001A000691F0022384600F06FFA26602068002805D02068002802D020680028F6D1A91FF2
:2001C0000022384600F060FA26602068002805D02068002802D020680028F6D1E91F002207
:2001E0003E46384600F050FA019820602068002805D02068002802D020680028F6D12F46B7
:20020000083F002230463946009200F03DFA019820602068002800D172E72068002800D153
:200220006EE720680028F4D16AE7C04600808640E7030000A0002020F0B53A4A82183A4B45
:20024000C0183A4C3A4D4E790B79002E23D0202B04D00526F601002B03D003E0354E002B7D
:2002600000D18826476F2F4037434767876F2F4037438767466B26404663866B26408663E5
:2002800000264665866556688F27FF433E40566096683E4096600F688979202B07D0002B80
:2002A00015D17E1E4660C76E2F40882615E07E1E4660C66E2E401F4F3E43C666066F2E40ED
:2002C0003E4306671C4D01267607074609E00526F6017F084760C76E2F403743C766074605
:2002E00070373C682C4034433C60C46A0F4D2C40C462046B2C4004630024C4640465C46FEE
:200300008F25ED432C40C46714682C401460194302680A4B1340BD220A40D118891C016080
:20032000F0BDC04684180000041800008888FDFF24493E0001040000FFFFFFCF4000FFCFBC
:20034000002A49D084468B071CD1830722D1102A08D370B4103A78C978C0103AFBD270BC55
:20036000103238D0042A2CD3082A05D30C2A01D308C908C008C908C008C908C092072AD094
:20038000920F22E00B780370491C401C521E22D08B07F7D1C30714D18307D8D0121F12D350
:2003A00008C903801B0C4380001D121FF8D20AE008C903701B0A43701B0A83701B0AC37071
:2003C000001D121FF4D2121D05D00B780370491C401C521EF9D160467047FEE7F8B5451CC4
:2003E00000780023082B32D02F78C2070CD16A780F241440E41C122C0BD102242E57F4B20C
:20040000002E08D4EE1C0EE06D1C4A1C0F7011461AE0AE1C08E02E1DED7800957F252C4014
:20042000009DED012C1912343D0112095219094DAA420ED0D243002C05D08D5C4F1C0D70DB
:20044000641E3946F7E7354640085B1CCAE72846C5E7F8BDFF0F0000B0B582B01049114CA8
:20046000204600F0D7F810492046FFF7E5FE00250095204629462A462B4600F0D9F8204628
:2004800029462A4600F0B8F87D20C10020462A4600F0FAF8054801218160016002B0B0BDF7
:2004A000C006000000808640B8060000009186400C48002101600C48014608390A680323D1
:2004C000DB4313400B6001680122914301600168130299430160001F016812030A43026078
:2004E0007047C04608030B4008010B4070B50A480A4C84420CD00A4D0A4EB54208D02A6816
:200500006968501C12789200A25890470835F4E700BF00BF70BDC046D4060000C806000040
:20052000E4060000F406000080B5074807494160074A5160074B59600749016011601960BA
:20054000102000F0A9F880BD00080A40030000B100280A400088864001000026084809490E
:20056000416009490A68FF231B069A4303239B07D2180A6000218160072101607047C04692
:2005800010E000E0FF7C000020ED00E0084880F3088800BF00BF00F08BF8002801D0FFF7F0
:2005A000A5FF0020FFF78CFD012000F083F8C0460080202080B5FFF7B7FF00F00DF8FFF7DA
:2005C00077FFFFF749FFFFF7C9FF02489C210022425480BD000020200448872101600449CB
:2005E00004220A60034941667047C0463C804240D0320A4081000C0010B592008018044A67
:2006000083580724A404A34321405918815010BD3018000010B50122120383180C789C6076
:200620004B7883508978014A815010BD0C11000010B5029CA400001911431943014A815031
:2006400010BDC0465018000003228058002805D0401E4A1C00230B701146F7E77047000017
:2006600003480168002902D00168491E01607047A000202080B50B4603214258C11D184683
:2006800000F010F880BD000092008018014A81507047C04610180000811E091F00BFFCD2A6
:1806A0007047000080B5FFF74BFE80BD6EE770470120704700BFFEE752
:1006B800E803000000000100080700000000000037
:2006C800DD030000750600004906000002000000A00000000001000000FFF000D4060000FC
:1006E80000002020DC060000A00020200000000000
:00000001FF
