:020000040000FA
:10000000600220207D0100008101000083010000CA
:1000100000000000000000000000000000000000E0
:10002000000000000000000000000000850100004A
:1000300000000000000000008701000051130000D4
:100040008B0100008B0100008B0100008B01000080
:10005000AD0D00008B0100008B0100008B01000042
:10006000000000008B0100008B0100000000000078
:10007000000000008B0100008B0100008B010000DC
:100080008B0100008B0100008B0100008B01000040
:100090008B0100008B010000000000000000000048
:1000A0008B0100008B010000000000000000000038
:1000B0008B010000000000008B0100008B0100009C
:1000C00000F002F800F04AF812A030C808382418EE
:1000D0002D18AC4201D100F041F80FCCA246AB463E
:1000E0000CA730CF2D1B083F3F197C427F1E544484
:1000F0002D090426F441641EAC4201D300F02EF811
:100100000126334200D0FB1A3343984754465D46DC
:10011000DFE7000054160000641600000000000035
:100120007047000000000000002300240025002686
:10013000103A01D378C1FBD8520700D330C100D5A3
:100140000B60704710B5642902D100F071F810BD42
:10015000002010BD1FB51FBD10B510BD00F0FAFD89
:100160001146FFF7F7FF01F00FF900F012FE03B49C
:10017000FFF7F2FF03BC01F0F3F800000648004768
:10018000FEE7FEE7FEE7FEE7FEE7FEE70348044979
:10019000024A044B70470000C100000060012020AB
:1001A00060022020600120200FB4054910B503AA89
:1001B000029800F08BFD10BC08BC04B0184700008A
:1001C00060002020F8B50E4604460020206220463C
:1001D000E1688847002829D0252802D06268A168F4
:1001E00020E0E16820460027884705001ED0284609
:1001F0004138192802D80127FF022035324620460F
:1002000027602946FFF79EFF002808D0012804D068
:10021000F61DF608F6000836D9E7361DD7E76268FE
:100220002846A1689047206A401CCFE7206AF8BDA5
:10023000F7B5002575291068009914A611D0C0469D
:10024000C046002802DA404211A608E00099096879
:100250008A0701D50FA602E0490704D50EA601259D
:1002600001E0C046C046009F0024243704E000F0AF
:1002700041FD30313955641C0028F8D12B463246F7
:100280002146009800F0CAFCFEBD000000000000FE
:100290002D0000002B0000002000000010B50446D7
:1002A00003E001F05FF8401C08D020780549641C89
:1002B0000028F6D10A2001F055F810BD0020C043F7
:1002C00010BD000060002020002203098B4273D380
:1002D000030A8B4258D3030B8B423CD3030C8B4253
:1002E00021D312E003460B437FD4002243088B4204
:1002F00074D303098B425FD3030A8B4244D3030BAD
:100300008B4228D3030C8B420DD30902FF2212BA71
:10031000030C8B4202D31212090265D0030B8B42ED
:1003200019D300E0090AC30B8B4201D3CB03C01AD7
:100330005241830B8B4201D38B03C01A5241430BB2
:100340008B4201D34B03C01A5241030B8B4201D3A2
:100350000B03C01A5241C30A8B4201D3CB02C01A0D
:100360005241830A8B4201D38B02C01A5241430A85
:100370008B4201D34B02C01A5241030A8B4201D374
:100380000B02C01A5241CDD2C3098B4201D3CB011B
:10039000C01A524183098B4201D38B01C01A5241CA
:1003A00043098B4201D34B01C01A524103098B42CE
:1003B00001D30B01C01A5241C3088B4201D3CB00B9
:1003C000C01A524183088B4201D38B00C01A52419C
:1003D00043088B4201D34B00C01A5241411A00D24C
:1003E00001465241104670475DE0CA0F00D04942B5
:1003F000031000D3404253409C46002203098B4225
:100400002DD3030A8B4212D38901FC2212BA030AAC
:100410008B420CD3890192118B4208D3890192112E
:100420008B4204D389013AD0921100E08909C309B3
:100430008B4201D3CB01C01A524183098B4201D3B5
:100440008B01C01A524143098B4201D34B01C01AA0
:10045000524103098B4201D30B01C01A5241C30818
:100460008B4201D3CB00C01A524183088B4201D387
:100470008B00C01A5241D9D243088B4201D34B00A2
:10048000C01A5241411A00D20146524110466346F9
:100490005B1001D34042002B00D5494270476346B0
:1004A0005B1000D3404201B50449002802DC491C1E
:1004B000084000E00846C046C04602BDFFFFFF7F7F
:1004C0007047704770470000F0B5F94D0C091E09E0
:1004D0002C402E402F468BB0A7437DD0B543FCD097
:1004E000002E7AD0002CFCD00D465D40ED0F254348
:1004F000AC1BFF25AD0464190894C502440DC90264
:100500002143500DDC0204430120C0070143044392
:10051000D2020191200C110C00958C460104234657
:100520008B430A9161460904E24D8A430991010A0D
:100530007D4449198039097805464D4301266D18D7
:10054000F605751B6943C90C640B891C4C43641880
:10055000B5012C1B250C2E04B4434C434D43210CF8
:10056000691889090591009DE90701D00121C90792
:1005700004912C4601996708CD072F434C08059D2F
:10058000E10B4D432D0C29466646754302950D46F9
:1005900045432E46029D7D1BB44100950D465D43AB
:1005A00001942C0C2F040D465543AE462D0C3D43B3
:1005B000029503947546049C2D04641B049406D292
:1005C000029C039D641C002675410395029401ACB6
:1005D00070CC009F7D1B01E03EE162E1B441090463
:1005E0000095079101940599A4086143090C0C46F4
:1005F0004443650BE7040C4666467443A646640B09
:100600003C43039502947446049DE4042C1B04941B
:1006100006D2029C039D641C00267541039502943A
:1006200001AC70CC009F7D1BB44101940C465C432F
:100630000095650FE7000C465443A646640F3C4303
:10064000039502947446049DE4002C1B049406D286
:10065000029C039D641C002675410395029401AC25
:1006600070CC009F7D1BB441AE09AF06049DC9004C
:10067000AD092F43049DA406AD060495079D3443A0
:1006800069180791059DE10B4D432D0C29466646DF
:10069000754302950D4645432E46029D7D1BB44190
:1006A00000950D465D4301942C0C2F040D465543D7
:1006B000AE462D0C3D43029503947546049C2D04D3
:1006C000641B049406D2029C039D641C00267541A1
:1006D0000395029401AC70CC009F7D1BB441019442
:1006E0008C050694079C890A611800950791019C66
:1006F0000599A4086143090C0D464543680BEF04B6
:100700000D46644665436C0B3C43049FED047D1B22
:10071000AC4602D20025641C6841009E019D371B37
:1007200085410846584301950C46460FC500544381
:10073000600F28436546E4002C1B02D20025401CB4
:100740006E41019D3F1AB5412846BD0980062843E8
:100750008446A009BF064E020699A40676180743F0
:10076000079D002068410A99079019430020099BC2
:1007700000906046FF1913434041E20F64003A4382
:10078000A4460446D71A8C41A04203D90120009008
:1007900020463A46C70F941840416246D20F224382
:1007A000644664000494009CBE466400D71AA446C4
:1007B000044602978C417746002F01D1A04204D90C
:1007C0006046401C8446029A2046C40FA6469418F0
:1007D0004041049A0546D20F224364466400D31A6E
:1007E0008D417146002901D1A84202D928461A46F6
:1007F000641C10430122002800D01643610200202F
:10080000079B891904465C410223002C02DB49182E
:1008100013466441089DCE0A2D145D194B056705EA
:10082000E10A2C050D1908993E43C9076940002BC0
:1008300008D0934006D30022761C5141002B01D1F1
:10084000760876001C4A002D43DB154241D0AA43AE
:100850003FD030460BB0F0BD06180D464D41174C49
:100860007642AC411AD395181C465C41134A6D423E
:10087000A24113D3012252054C00D4420AD15C009C
:10088000D4420BD04B4002D592021143E2E749001B
:100890004908DFE75940C90FC90718E00020084997
:1008A000D8E7054801420DD10342F7D0F2E7000036
:1008B0000000FF077A1100000000F07F0000E0FF59
:1008C0000000F87F114859400143C0124140002008
:1008D000C0E70123089A9B069A4205DC03225207CF
:1008E0008918C90FC907B5E7052252078918074AB1
:1008F0001143D2125140ADE770B515461C46024671
:100900000B4628462146FFF7DFFD70BDFFFFFF7F46
:1009100030B50346CA02400D1043164D164C0A1559
:1009200002D02043002A06DBAA1A002A12DDD0409A
:10093000FF2A0BDC30BD5205520D01D140004008AA
:10094000AA1A07D4D0404042FF2A01DD002030BD62
:100950000028FCDD4A00002B01D0012000E000202F
:10096000101801225205D042F0D8C817C043604089
:1009700030BD00001E040000000000801F22030C98
:1009800002D10F22000402D0030E03D004E00020A5
:10099000014670470002083A030F01D10001121FFF
:1009A000830F01D18000921E002801DB4000521EFF
:1009B000120551184205C012411810467047C10F68
:1009C000C90700D04042012292071143D6E7012116
:1009D0008907D3E7F0B58B4C0F09254689B0BD4395
:1009E0007BD01D092646AE43FAD00E465E40274016
:1009F000F60F3E43254071D024012142FBD0FF2455
:100A0000AD19A4042D1B039501252D05DB02DB0A7E
:100A1000C9022B43C90A29431E010901040F130F00
:100A2000050121431701880B820391432D098C4650
:100A3000A90B1E438A039543B30B9A0396433F09C0
:100A4000BA0B9403A74302962E467E430497B646FC
:100A50004E19D7190C460196544305977E43371B10
:100A60007646BF1B3601B646BE0B36190096764653
:100A7000BC043719009C01D3641C00946400002F4F
:100A800001D001263443029E049F754366467E438F
:100A90000496760034196E0034190094029C019E6D
:100AA0001C196643751BAE46069465464519059CA0
:100AB00005956C43594375460891691A0191049E46
:100AC00001465143A41B0491611A009C0791E10661
:100AD00005D061090122114302E072E06EE0610974
:100AE000089D00272C0A2D066918049D7C412A0ABE
:100AF0002D066918019D6241AC0DAD026D1854417F
:100B0000079A910D920255196141029A6446584321
:100B10005443069B059A5A43121A131B9A0E9B01C3
:100B20005B187A41010B0005C3185141220A2006C7
:100B300044195A419A4200D2491C01204002814284
:100B400003D315230226F64302E014230326F643BB
:100B50002020C51AA9401746AF40DA400A43204674
:100B60000399D8400914731819055118039A38438A
:100B7000D2075140AC4009D00122944006D3002254
:100B8000401C5141002C01D1400840001E4A9342B4
:100B900012D3012203989206904207DB05204007FA
:100BA00009181A480143C012414004E003204007DD
:100BB0000818C10FC907002009B0F0BD0020F107D7
:100BC000FAE705180C464C4111486D42A04115D377
:100BD00094181A465A410E48644290410ED301209F
:100BE0004A004005824209D35A00824206D3594046
:100BF000C90F084AC90700201143DDE70020064954
:100C0000DAE700000000FF07FE070000FFFFFF7F9C
:100C10000000E0FF0000F07F0000F87FFFB5044611
:100C20000D4681B0243000902168880604D510223A
:100C3000E0699143216000E00120A84201DD471BEB
:100C400000E000270498A1697A191018081AA06119
:100C50002078C00602D42046C046C046002608E0E0
:100C600003986268A168805D9047206A401C761CEA
:100C7000206204988642F3DB2078C0060AD520461D
:100C8000C046C04606E06268A16830209047206AEE
:100C9000401C206238467F1E0028F4DC07E00098E4
:100CA0006268A168405D9047206A401C2062284627
:100CB0006D1E0028F3DC2046C046C04620780006A2
:100CC00002D5022005B0F0BD0120FBE7084B70B54E
:100CD0000D467B4400F027F80446284600F036F81D
:100CE000002802D00020C04370BD204670BD000027
:100CF0008F06000001468008081A02091018020A2F
:100D00001018020C1018C008820012185200891A1C
:100D100001E0401C0A390A29FBD2704701694A1CCC
:100D200002610878704700B58FB0029100210591EB
:100D30000549019379440391114604906846FFF7F1
:100D400041FA0FB000BD0000E5FFFFFFC068802141
:100D500008407047754600F025F8AE460500694624
:100D60005346C008C000854618B020B5FFF70EFAFC
:100D700060BCB64600260027C0C5C0C5C0C5C0C5FA
:100D8000C0C5C0C5C0C5C0C5403D490849008D4665
:100D9000704710B50446C046C0462046FFF7E7F945
:100DA00010BD000000487047000020200448006883
:100DB000C0B2092802D10348012101707047C04622
:100DC00020100040B8002020B0B50A78032313405B
:100DD0000B4A84580B4D2540EB18A92424061B19F7
:100DE0008350072212064B68134011242402055930
:100DF0009543EA180251001949780161B0BDC04617
:100E000008080000FCFFFF00811E091F00BFFCD284
:100E100070470000F0B5764A8218394BC31808793C
:100E20004E79384D744C002E23D0202804D005264E
:100E3000F601002803D003E0334E002800D18826B5
:100E4000576F2F4037435767976F2F403743976748
:100E5000566B26405663966B264096630026566571
:100E600096658F26F6435F6837405F609F6837401E
:100E70009F608E790968202807D0002815D1491E67
:100E80005160D76E2F40882115E0491E5160D16E08
:100E900029401D4F3943D166116F294039431167ED
:100EA00001214907194D174609E049085160D76EDD
:100EB0002F400521C9010F43D766174670373C689C
:100EC0002C400C433C60D16A4B4C2140D162116BE9
:100ED000214011630021D16411658F21C943D46F72
:100EE0000C40D4671C680C401C600643BD20304099
:100EF0001168074B0B40C018801C1060F0BDC04645
:100F00008418000024493E0001040000FFFFFFCFC9
:100F10004000FFCFB0B5364A80184A6842600A7870
:100F2000222A57D8930001A4E3589F46CB0F000014
:100F3000D50F0000CB0F0000D50F0000D50F00002B
:100F4000D50F0000D50F0000D50F0000D50F000011
:100F5000D50F0000D50F0000D50F0000D50F000001
:100F6000D50F0000D50F0000D50F0000B90F00000D
:100F7000D50F0000B90F0000D50F0000D50F0000FD
:100F8000D50F0000D50F0000D50F0000D50F0000D1
:100F9000D50F0000D50F0000D50F0000D50F0000C1
:100FA000D50F0000D50F0000D50F0000B90F0000CD
:100FB000D50F0000B90F000003231B0704689C43F2
:100FC00001235B07E318036004E003231B070468A5
:100FD0009C4304600B69C360CB68064C1C40C36A29
:100FE000054D1D402B19C362097A11430160B0BD44
:100FF00004180000777702008888FDFF10B50723EA
:101000009B04194092008018024A84589C4361183E
:10101000815010BD3018000010B5029CA4000019CA
:1010200011431943014A815010BDC04650180000B9
:1010300092008018014A81507047C0461018000085
:1010400010B50122120383180C789C604B788350F2
:101050008978014A815010BD0C110000B0B51122F1
:10106000120283580124A34383508B780C881C43BD
:101070008B882343094C1C408358094D1D402B1974
:1010800083508B79CC791C43097A21437E23194004
:10109000801842689A4351184160B0BD186700003B
:1010A000E798FDFF10B50122120383180C789C60AD
:1010B0004978815010BD000010B50124A0070F49E8
:1010C000FFF782FE0E4841680E4A0A40610451183B
:1010D000416081680C4A0A4082600C4900220A6023
:1010E0000B49416121020B4A136A0B4313621368D7
:1010F0000B43136001682143016010BD30170000ED
:1011000000110040FEFFECFFF8FFE0E0801100401E
:10111000409C0000281000400D49872008600D48C1
:10112000042202608220886101208004024682320B
:10113000CA61094A4A6609490A68102313430B60C9
:1011400007490A6A02430A620A6802430A60704752
:101150003C804240D0320A4081000D00A0130A407A
:1011600028100A40B0B582B0104C11492046FFF754
:1011700067FF10492046FFF74DFE002500952046E9
:1011800029462A462B46FFF747FF204629462A468E
:10119000FFF734FF7D20C10020462A46FFF748FFB5
:1011A000054801218160016002B0B0BD0080864029
:1011B000381700003C170000009186400C480021C1
:1011C00001600320C1430B480246083A13680B40F4
:1011D00013600168012291430160110203688B438F
:1011E00003601103001F02680A4302607047C04693
:1011F00008030B4008010B40084809494160FF21E2
:101200000906084A13688B4303218907591811609E
:1012100000218160072101607047C04610E000E0B6
:10122000FF7C000020ED00E010B5084C0849204686
:10123000FFF706FF07492046FFF76CFE06480168E6
:101240000122114301600548026010BD00400840C2
:101250004417000048170000285008400851084073
:1012600010B5144C14492046FFF71CFF13492046C3
:10127000FFF7F4FE0321CA03114803689343036098
:101280000269104B13401A33036142690A433C213F
:101290008A434261416801221140436893435918CF
:1012A00041609102084B1C680C431C6001681143AB
:1012B000016010BD008010405C1700005E17000048
:1012C000009110400000FFFF2890104080B500F012
:1012D00015F8FFF721FFFFF771FFFFF743FFFFF757
:1012E000A3FFFFF7BDFFFFF7E7FEFFF785FF9C2099
:1012F000014900220A5480BDBC00202070B50C4872
:101300000C4941600C4A51600C4B59600C4C6160B7
:101310000C4D69600C4E71600C49016011601960E0
:101320002160296031601020FFF76EFD70BDC0465E
:1013300000080A40030000B100280A4000888640E7
:1013400000480840008810400008004001000026C6
:1013500058480168002902D00168491E01607047A1
:101360007047000007490A68D20708D00A68D20708
:1013700005D00A68D20702D00A68D207F3D1C2B2F8
:101380008A6170470891104082B0FFF79FFF0120EB
:101390000090C003304908603049086010200860A0
:1013A0002FA0FEF77BFF334B424E00980002304ADD
:1013B000116801431160187800280DD120BF1878FA
:1013C000002809D120BF1878002805D120BF18783F
:1013D000002801D120BFEEE72748006800241C70D8
:1013E00087B226A03946FEF7DFFE3846FFF7EFFA50
:1013F0002246264BFFF768F8254A264BFFF7EAFA04
:101400002246254BFFF7E6FAFFF782FA07466421EA
:1014100000F052F801900A243846214600F04CF8BA
:1014200005462146FEF750FF0A466C433B1B1BA0B6
:101430000199FEF7B9FE0F4B7D20C0003060306887
:101440000028B2D030680028AFD030680028ACD077
:1014500030680028F3D1A8E780E200E000E100E076
:101460006164632044656D6F2073746172740D0054
:1014700004110040B8002020806255406164632060
:1014800076616C75653A25640D0A000000FEAF4078
:101490006666666666660A4000005940766F6C7440
:1014A0006167652076616C75653A25642E25642533
:1014B000640D0A00B400202043088B421AD3002296
:1014C00003098B4279D3030A8B425ED3030B8B4211
:1014D00042D3030C8B4227D30902FF2212BA030C1A
:1014E0008B4202D31212090203D0030B8B4233D377
:1014F0001AE0D3E0411A8041401C704703460B4379
:1015000071D443088B42F5D3002203098B4254D394
:10151000030A8B4239D3030B8B421DD3030C8B423E
:1015200002D394466EE0090AC30B8B4201D3CB036E
:10153000C01A5241830B8B4201D38B03C01A524114
:10154000430B8B4201D34B03C01A5241030B8B4216
:1015500001D30B03C01A5241C30A8B4201D3CB0201
:10156000C01A5241830A8B4201D38B02C01A5241E6
:10157000430A8B4201D34B02C01A5241030A8B42E9
:1015800001D30B02C01A5241CDD2C3098B4201D301
:10159000CB01C01A524183098B4201D38B01C01A7F
:1015A000524143098B4201D34B01C01A52410309F6
:1015B0008B4201D30B01C01A5241C3088B4201D3A5
:1015C000CB00C01A524183088B4201D38B00C01A52
:1015D000524143088B4201D34B00C01A5241411A79
:1015E000524110007047CA0F00D04942031000D387
:1015F0004042534000229C4603098B422DD3030AEC
:101600008B4212D38901FC2212BA030A8B420CD3FB
:10161000890192118B4208D3890192118B4204D324
:10162000890137D0921100E08909C3098B4201D3A7
:10163000CB01C01A524183098B4201D38B01C01ADE
:10164000524143098B4201D34B01C01A5241030955
:101650008B4201D30B01C01A5241C3088B4201D304
:10166000CB00C01A524183088B4201D38B00C01AB1
:101670005241D9D243088B4201D34B00C01A524188
:10168000411A00D201465241104663465B1000D316
:101690004042704763465B1000D3404201B50021D1
:1016A000004201D0C9430846C046C04602BD808002
:1016B0007F7E7D7C7B7A79787776767574737271AC
:1016C00071706F6E6E6D6C6C6B6A6A696868676664
:1016D00066656464636362616160605F5F5E5E5DF6
:1016E0005D5C5C5B5B5A5A5959585857575656556A
:1016F00055555454535352525251515050504F4FCC
:101700004F4E4E4D4D4D4C4C4C4B4B4B4A4A4A491B
:10171000494948484847474747464646454545445E
:101720004444444343434342424242414141000016
:10173000010500000000000308070000E8030000A6
:101740000000010008076300020000003F9C000049
:101750000100000000000000000000000400000084
:101760001800000000300000781700000000202062
:081770006002000028010000E6
:04000005000000C136
:00000001FF
