:2000000000802020ED960000678C0000678C000000000000000000000000000000000000B7
:20002000000000000000000000000000678C00000000000000000000678C0000678C0000E7
:20004000678C0000678C0000678C0000678C0000678C0000678C0000678C0000678C000008
:2000600000000000678C0000678C00000000000000000000678C0000678C0000258D000002
:20008000678C0000678C0000678C0000678C0000678C0000678C00000000000000000000AE
:2000A000678C0000678C00000000000000000000678C000000000000678C0000678C000081
:2000C000FFFFFFFFFFFFFFFFFFFFFFFFFFFFFFFFFFFFFFFFFFFFFFFFFFFFFFFFFFFFFFFF40
:2000E000FFFFFFFFFFFFFFFFFFFFFFFFFFFFFFFFFFFFFFFFFFFFFFFFFFFFFFFFFFFFFFFF20
:20010000FFFFFFFFFFFFFFFFFFFFFFFFFFFFFFFFFFFFFFFFFFFFFFFFFFFFFFFFFFFFFFFFFF
:20012000FFFFFFFFFFFFFFFFFFFFFFFFFFFFFFFFFFFFFFFFFFFFFFFFFFFFFFFFFFFFFFFFDF
:200520005F3C773CFFFFFFFFFFFFFFFFFFFFFFFFFFFFFFFFFFFFFFFFFFFFFFFFFFFFFFFF89
:20054000FFFFFFFFFFFFFFFFFFFFFFFFFFFFFFFFFFFFFFFFFFFFFFFFFFFFFFFFFFFFFFFFBB
:20056000FFFFFFFFFFFFFFFFFFFFFFFFFFFFFFFFFFFFFFFFFFFFFFFFFFFFFFFFFFFFFFFF9B
:20058000FFFFFFFFFFFFFFFFFFFFFFFFFFFFFFFFFFFFFFFFFFFFFFFFFFFFFFFFFFFFFFFF7B
:2005A000FFFFFFFFFFFFFFFFFFFFFFFFFFFFFFFFFFFFFFFFFFFFFFFFFFFFFFFFFFFFFFFF5B
:2005C000FFFFFFFFFFFFFFFFFFFFFFFFFFFFFFFFFFFFFFFFFFFFFFFFFFFFFFFFFFFFFFFF3B
:2005E000FFFFFFFFFFFFFFFFFFFFFFFFFFFFFFFFFFFFFFFFFFFFFFFFFFFFFFFFFFFFFFFF1B
:20060000FFFFFFFFFFFFFFFFFFFFFFFFFFFFFFFF8EFBAF1CFFFFFFFFFFFFFFFFFFFFFFFFA2
:20062000FFFFFFFFFFFFFFFFFFFFFFFFFFFFFFFFFFFFFFFFFFFFFFFFFFFFFFFFFFFFFFFFDA
:20064000FFFFFFFFFFFFFFFFFFFFFFFFFFFFFFFFFFFFFFFFFFFFFFFFFFFFFFFFFFFFFFFFBA
:20066000FFFFFFFFFFFFFFFFFFFFFFFFFFFFFFFFFFFFFFFFFFFFFFFFFFFFFFFFFFFFFFFF9A
:20068000FFFFFFFFFFFFFFFFFFFFFFFFFFFFFFFFFFFFFFFFFFFFFFFFFFFFFFFFFFFFFFFF7A
:2006A000FFFFFFFFFFFFFFFFFFFFFFFFFFFFFFFFFFFFFFFFFFFFFFFFFFFFFFFFFFFFFFFF5A
:2006C000FFFFFFFFFFFFFFFFFFFFFFFFFFFFFFFFFFFFFFFFFFFFFFFFFFFFFFFFFFFFFFFF3A
:2006E000FFFFFFFFFFFFFFFFFFFFFFFFFFFFFFFFFFFFFFFFFFFFFFFFFFFFFFFFFFFFFFFF1A
:20070000D69AE71CFFFFFFFFFFFFFFFFFFFFFFFFFFFFFFFFFFFFFFFFFFFFFFFFFFFFFFFF82
:20072000FFFFFFFFFFFFFFFFFFFFFFFFFFFFFFFFFFFFFFFFFFFFFFFFFFFFFFFFFFFFFFFFD9
:20074000FFFFFFFFFFFFFFFFFFFFFFFFFFFFFFFFFFFFFFFFFFFFFFFFFFFFFFFFFFFFFFFFB9
:20076000FFFFFFFFFFFFFFFFFFFFFFFFFFFFFFFFFFFFFFFFFFFFFFFFFFFFFFFFFFFFFFFF99
:20078000FFFFFFFFFFFFFFFFFFFFFFFFFFFFFFFFFFFFFFFFFFFFFFFFFFFFFFFFFFFFFFFF79
:2007A000FFFFFFFFFFFFFFFFFFFFFFFFFFFFFFFFFFFFFFFFFFFFFFFFFFFFFFFFFFFFFFFF59
:2007C000FFFFFFFFFFFFFFFFFFFFFFFFFFFFFFFFFFFFFFFFFFFFFFFFFFFFFFFFFFFFFFFF39
:2007E000FFFFFFFFFFFFFFFFF79EF79EF79EF79EAEBACF1CF79EF79EF79EF79EFFDFFFFF2A
:20080000FFFFFFFFFFFFFFFFFFFFFFFFFFFFFFFFFFFFFFFFFFFFFFFFFFFFFFFFFFFFFFFFF8
:20082000FFFFFFFFFFFFFFFFFFFFFFFFFFFFFFFFFFFFFFFFFFFFFFFFFFFFFFFFFFFFFFFFD8
:20084000FFFFFFFFFFFFFFFFFFFFFFFFFFFFFFFFFFFFFFFFFFFFFFFFFFFFFFFFFFFFFFFFB8
:20086000FFFFFFFFFFFFFFFFFFFFFFFFFFFFFFFFFFFFFFFFFFFFFFFFFFFFFFFFFFFFFFFF98
:20088000FFFFFFFFFFFFFFFFFFFFFFFFFFFFFFFFFFFFFFFFFFFFFFFFFFFFFFFFFFFFFFFF78
:2008A000FFFFFFFFFFFFFFFFFFFFFFFFFFFFFFFFFFFFFFFFFFFFFFFFFFFFFFFFFFFFFFFF58
:2008C000FFFFFFFFFFFFFFFFFFFFFFFFFFFFFFFFFFFFF7FFBE183F5D07FF07FF07FF07FFAA
:2008E00007FF07FF07FF07FF07FF07FF07FF571CCE9AFFFFFFFFFFFFFFFFFFFFFFFFFFFF01
:20090000FFFFFFFFFFFFFFFFFFFFFFFFFFFFFFFFFFFFFFFFFFFFFFFFFFFFFFFFFFFFFFFFF7
:20092000FFFFFFFFFFFFFFFFFFFFFFFFFFFFFFFFFFFFFFFFFFFFFFFFFFFFFFFFFFFFFFFFD7
:20094000FFFFFFFFFFFFFFFFFFFFFFFFFFFFFFFFFFFFFFFFFFFFFFFFFFFFFFFFFFFFFFFFB7
:20096000FFFFFFFFFFFFFFFFFFFFFFFFFFFFFFFFFFFFFFFFFFFFFFFFFFFFFFFFFFFFFFFF97
:20098000FFFFFFFFFFFFFFFFFFFFFFFFFFFFFFFFFFFFFFFFFFFFFFFFFFFFFFFFFFFFFFFF77
:2009A000FFFFFFFFFFFFFFFFFFFFFFFFFFFFFFFFFFFFE73CDEDBFFFFFFFFFFFFFFFFCE594E
:2009C00027FF07FF07FF07FF07FF07FF07FF07FF07FF07FF07FF07FF07FF07FF07FF07FF97
:2009E00007FF1FBEBE79F79EFFFFFFFFFFFFFFFFCE59FFFFFFFFFFFFFFFFFFFFFFFFFFFF37
:200A0000FFFFFFFFFFFFFFFFFFFFFFFFFFFFFFFFFFFFFFFFFFFFFFFFFFFFFFFFFFFFFFFFF6
:200A2000FFFFFFFFFFFFFFFFFFFFFFFFFFFFFFFFFFFFFFFFFFFFFFFFFFFFFFFFFFFFFFFFD6
:200A4000FFFFFFFFFFFFFFFFFFFFFFFFFFFFFFFFFFFFFFFFFFFFFFFFFFFFFFFFFFFFFFFFB6
:200A6000FFFFFFFFFFFFFFFFFFFFFFFFFFFFFFFFFFFFFFFFFFFFFFFFFFFFFFFFFFFFFFFF96
:200A8000FFFFFFFFFFFFFFFFFFFFFFFFFFFFFFFFFFFFFFFFFFFFFFFFFFFFFFFFFFFFFFFF76
:200AA000FFFF66FB3F5DFFFFFFFFDEFB1FBE07FF07FF07FF07FF07FF07FF07FF07FF07FF53
:200AC00007FF07FF07FF07FF07FF07FF07FF07FF07FF07FF07FF07FF47BEE71CFFFFC618EA
:200AE00007FFFFFFFFFFFFFFFFFFFFFFFFFFFFFFFFFFFFFFFFFFFFFFFFFFFFFFFFFFFFFF0E
:200B0000FFFFFFFFFFFFFFFFFFFFFFFFFFFFFFFFFFFFFFFFFFFFFFFFFFFFEF7DEF5DFFFF39
:200B2000FFFFFFFFFFFFFFFFFFFFFFFFFFFFFFFFFFFFFFFFD71C7FFFFFFFFFFFFFFFFFFF60
:200B4000FFFF8FDFB6FBFFFFFFFFFFFFFFFFFFFFFFFFF79E7FFFDEFBFFFFFFFFFFFFFFFFA0
:200B6000FFFFFFFFFFFFFFFFFFFFFFFFDEFBCF3CFFFFF79EDEFBDEFBDEFBDEFBDEFBDEFBF4
:200B8000DEFBDEFBDEFBDEFBDEFBE73CFFFFFFFFFFFFB77DD69AFFDF671C07FF07FF07FFE4
:200BA00007FF07FF07FF07FF07FF07FF07FF07FF07FF07FF07FF07FF07FF07FF07FF07FFD5
:200BC00007FF07FF07FF07FF07FF27BEE73CE71CCF1CFFFFFFFFDEFBFFFFFFFFFFFFFFFF34
:200BE000FFFFFFFFFFFFFFFFFFFFFFFFFFFFFFFFE71CF7BEFFFFFFFFFFFFFFFFFFFFFFFF59
:200C0000FFFFFFFFFFFFFFFFFFFF07FF279EEF7DFFFFFFFFFFFFFFFFFFFFFFFFFFFFFFFFB7
:200C2000FFFFCF1C07FF07FFF7BEFFFFFFFFFFFFE75D07FF07FFAEFBFFFFFFFFFFFFFFFF1F
:200C4000FFFFEF5D07FFBE18FFFFFFFFFFFFFFFFFFFFFFFFFFFFFFFFFFFFF7BE07FF07FFBF
:200C6000FFFF6EDB07FF07FF07FF07FF07FF07FF07FF07FF07FF07FF07FF07FF86BAFFFFA7
:200C8000FFFFE71CCE796EDB07FF07FF07FF07FF07FF07FF07FF07FF07FF07FF07FF07FF7B
:200CA00007FF07FF07FF07FF07FF07FF07FF07FF07FF07FF07FF07FF07FF07FF17DFEF5D9E
:200CC000F79EFFFFE71C07FF86BAFFFFFFFFFFFFFFFFFFFFFFFFFFFFFFFFFFFFFFFFE75D08
:200CE00017DFB7FFFFFFFFFFFFFFFFFFFFFFFFFFFFFFFFFFFFFFFFFFFFFF97DF07FF17DFEC
:200D0000D7FFFFFFFFFFFFFFFFFFFFFFFFFFFFFFCF1C07FF07FFEFFFFFFFFFFFFFFFE77DC8
:200D200007FF1FBE0FDF07FFF7BEFFFFFFFFFFFFFFFFEF5D07FFBE18FFFFFFFFFFFFFFFF0F
:200D4000FFFFFFFFFFFFFFFFFFFFF7BE07FF07FFFFFFEF5D2FFF2FFF2FFF2FFF2FFF2FFF7E
:200D60002FFF2FFF2FFF2FFF2FFF1FBE07FFA659FFFFE71C6EDB07FF1FBEA6BACE59CE59D0
:200D8000CE59CE59CE59CE59CE599EBA07FF07FF07FF07FF07FF07FF2FFFCE59CE59CE5971
:200DA000CE59CE59CE59CE59CE591FFF07FF07FFC7BEFFFFE71C07FF07FF8E9AFFFFFFFF90
:200DC000FFFFFFFFFFFFFFFFFFFFFFFFDF5D07FF07FFB7FFFFFFFFFFFFFFFFFFFFFFFFFF2D
:200DE000FFFFFFFFFFFFFFFFFFFFFFFF869A07FF07FF9679E73CFFFFFFFFFFFFFFFF475D05
:200E000007FF07FFC638FFFFFFFFFFFFE73C07FF07FFD7FFD6BA07FF377DFFFFFFFFFFFF85
:200E2000FFFFEF5D07FFBE18FFFFFFFFFFFFFFFFFFFFFFFFFFFFFFFFFFFFF7BE07FF07FFDD
:200E4000FFFFFFFFFFFFFFFFFFFFFFFFFFFFFFFFFFFFFFFFFFFFFFFFFFFFC7FF07FFA659E1
:200E6000FFFF66FB07FF1FBEFFDFFFFFFFFFFFFF9E79C618FFFFFFFFFFFFFFFFAE3807FF7F
:200E800007FF07FF07FF37FFFFFFFFFFFFFFFFFF8E9AC638FFFFFFFFFFFFEF5D07FF07FF9A
:200EA0009E79FFFFE71C07FF07FF07FF8E9AFFFFFFFFFFFFFFFFFFFFFFFFE73C07FF07FFBD
:200EC00007FFB7FFFFFFFFFFFFFFFFFFFFFFFFFFFFFFFFFFFFFFFFFFFFFFFFFFFFFFEF7D04
:200EE0000FFF07FF07FF27BE27BE27BE07FF07FF4F3CF7BEFFFFFFFFFFFFFFFF7EFB07FF66
:200F0000A659FFFFFFFF6EFB07FF379EFFDFFFFFFFFFEF5D07FF07FF07FF07FF07FF07FF48
:200F200007FF07FF07FF07FF07FF07FF07FF07FFFFFF86FB07FF07FF07FF07FF07FF07FFDE
:200F400007FF07FF07FF07FF07FF07FF07FFD7BEDEFB07FF07FF1FBEFFDFFFFFFFFFEF5DEA
:200F600007FF07FFDFFFFFFFFFFFFFFFE7FF07FF07FF07FF07FFCE79FFFFFFFFFFFFE71C4B
:200F800007FF17DFFFDFFFFFFFFFFFFF9E5907FF07FFAFDFE71C07FF17FF1FFF07FF7EFB30
:200FA000FFFFFFFFFFFFFFFFDEFB17DF07FFA6591FBEB7FFFFFFFFFFFFFFFFFFFFFFFFFFDE
:200FC000FFFFFFFFFFFFFFFFFFFFFFFFFFFFFFFFEF5DB7DF7EBA07FF07FF07FF7EBAD79E48
:200FE000F7BEFFFFFFFFFFFFFFFF871C07FF2FDFFFFFFFFFFFFFF7BE5F1C07FFC6DBFFFFBE
:20100000FFFFEF5D07FF07FF7EBA7EBA7EBA7EBA7EBA7EBA7EBA7EBA7EBA7EBA07FF07FF3E
:20102000FFFF6EDB07FF7EBA7EBA7EBA7EBA7EBA7EBA7EBA7EBA7EBA7EBA66FB07FFC6DB2B
:20104000D6BA07FF07FF1FBEFFDFFFFFFFFFE73C07FF07FFD7FFFFFFFFFFFFFFE7FF07FF52
:201060008E9A67BE07FFCE79FFFFFFFFFFFFE71C07FF17DFFFDFFFFFFFFFFFFF9E5907FF08
:2010800007FF9FFFE71C07FF17FFFFFF8F1C07FF771CFFFFFFFFDEFB1FBE07FF9EDBFFDF3C
:2010A0001FBEB7FFFFFFFFFFFFFFFFFFFFFFFFFFFFFFFFFFFFFFFFFFFFFFFFFFFFFFFFFFB9
:2010C000FFFFFFFFFFFF9FFF07FFC618FFFFFFFFFFFFFFFFFFFFFFFFEF5D07FF27BEE73C46
:2010E000FFFFFFFFFFFFFFFFF7BE07FF07FFBF1CFFFFEF5D07FFBE18FFFFFFFFFFFFFFFF3E
:20110000FFFFFFFFFFFFFFFFFFFFF7BE07FF07FFFFFF6EDB07FFFFFFFFFFFFFFFFFFFFFFD5
:20112000FFFFFFFFFFFFFFFFFFFFDFDF07FFA659FFFF2F7D07FF0FDFDF1CFFFFFFFFFFFF63
:2011400077DF671CFFDFFFFFFFFFFFFF5F1C07FFA73CDEFB07FF7EFBFFFFFFFFFFFFF79E93
:201160005F1CC638FFFFFFFFFFFFF7BE07FF07FF07FFE73CE71C07FF17FFFFFFFFFF3FFFB9
:2011800007FF76FBE71C17DF07FF971CFFFFFFDF1FBEB7FFFFFFFFFFFFFFFFFFFFFFFFFFC3
:2011A000FFFFFFFFFFFFFFFFFFFFFFFFFFFFFFFFFFFFFFFFFFFF9FFF07FFC618FFFFFFFFC7
:2011C000FFFFFFFFFFFFEF7D27BE07FFE73CFFFFFFFFFFFFFFFFFFFFFFFFC6BA07FF07FF1B
:2011E000F7BEEF5D07FFBE18FFFFFFFFFFFFFFFFFFFFFFFFFFFFFFFFFFFFF7BE07FF07FF63
:20120000FFFF7F3C07FF869A869A869A869A869A869A869A869A869A869A66FB07FFB6DBD7
:20122000FFFFFFFFA6DB07FF07FF869A869A869A869A869A869A869A869A5F1C07FF377DF0
:20124000F7BEFFFF37FF07FF869A869A869A869A869A869A869A869A869A07FF0FFFD6BADB
:20126000FFFFFFFFE71C07FF17FFFFFFFFFFFFFF279E07FF07FF07FF9EFBFFFFFFFFFFDF0F
:201280001FBEB7FFFFFFFFFFFFFFFFFFFFFFFFFFFFFFFFFFFFFFFFFFFFFFFFFFFFFFFFFFD7
:2012A000FFFFFFFFFFFFA7FF07FFCE59FFFFFFFFFFFFFFFFFFFFC63807FF9FDFFFFFFFFFED
:2012C000FFFFFFFFFFFFFFFFFFFFFFFFCE7907FF97DFEF5D07FFBE18FFFFFFFFFFFFFFFF37
:2012E000FFFFFFFFFFFFFFFFFFFFF7BE1FBE17DFFFFFEF5D1FBE07FF07FF07FF07FF07FF2B
:2013000007FF07FF07FF07FF07FF07FF2FFFF7BEFFFFFFFFFFFFB6791FBE07FF07FF07FFAE
:2013200007FF07FF07FF07FF07FF0FFF2F9EFFDFFFFFFFFFEF5DA69A1FBE07FF07FF07FF5F
:2013400007FF07FF07FF07FF07FF1FBED69AFFFFFFFFFFFFE73C07FFC638FFFFFFFFFFFF07
:20136000EF7D1FFF07FFA69AFFFFFFFFFFFFFFFF1FDFB7FFFFFFFFFFFFFFFFFFFFFFFFFFFD
:20138000FFFFFFFFFFFFFFFFFFFFFFFFFFFFFFFFFFFFFFFFFFFFFFFFF7FFFFFFFFFFFFFF75
:2013A000FFFFFFFFFFFFFFFFF7FFFFFFFFFFFFFFFFFFFFFFFFFFFFFFFFFFFFFFFFFFFFFF55
:2013C000FFFFFFFFF7FFFFFFFFFFFFFFFFFFFFFFFFFFFFFFFFFFFFFFFFFFFFFFFFFFFFFF35
:2013E000FFFFFFFFFFFFF7FFF7FFF7FFF7FFF7FFF7FFF7FFF7FFF7FFF7FFFFFFFFFFFFFF5D
:20140000FFFFFFFFFFFFFFFFFFFFF7FFF7FFF7FFF7FFF7FFF7FFF7FFF7FFFFFFFFFFFFFF2C
:20142000FFFFFFFFFFFFFFFFFFFFF7FFF7FFF7FFF7FFF7FFF7FFF7FFF7FFFFFFFFFFFFFF0C
:20144000FFFFFFFFFFFFF7FFFFFFFFFFFFFFFFFFFFFFFFFFF7FFFFFFFFFFFFFFFFFFFFFFBC
:20146000F7FFFFFFFFFFFFFFFFFFFFFFFFFFFFFFFFFFFFFFFFFFFFFFFFFFFFFFFFFFFFFF94
:20148000FFFFFFFFFFFFFFFFFFFFFFFFFFFFFFFFFFFFFFFFFFFFFFFFFFFFFFFFFFFFFFFF6C
:2014A000FFFFFFFFFFFFFFFFFFFFFFFFFFFFFFFFFFFFFFFFFFFFFFFFFFFFFFFFFFFFFFFF4C
:2014C000FFFFFFFFFFFFFFFFFFFFFFFFFFFFFFFFFFFFFFFFFFFFFFFFFFFFFFFFFFFFFFFF2C
:2014E000FFFFFFFFFFFFFFFFFFFFFFFFFFFFFFFFFFFFFFFFFFFFFFFFFFFFFFFFFFFFFFFF0C
:201BE000FFFFFFFFFFFFFFFFFFFFFFFFFFFFFFFF00000000000000000000000000000000F5
:201C00000000000000000000000000000000000000000000000000000000000000000000C4
:201C20000000000000000000000000000000000000000000000000000000C001C001C00161
:201C4000C001C001C001C0018000800080008000800080008000000000000000000080017F
:201C6000C003C003800100000000000000000000000000000000E01CE01CF01E700E38079A
:201C800018030801840000000000000000000000000000000000000000000000000000009C
:201CA0000000000000000000000000000000000000000000000000000000000020102010C4
:201CC000201020102010FE7FFE7F1008100810081008100810081008FE7FFE7F08040804C0
:201CE00008040804080400000000000000000000000000000000000000010001C00760197E
:201D0000103118311839183938017001E001C0038007000F001D003900311C311C310C3155
:201D20000C11180DE007000100010001000000000000000000000000000000001C103618FD
:201D40006308630C63046304630263026301361D9C37802280634063406320632063306323
:201D600010221836081C00000000000000000000000000000000000000000000F000980136
:201D80008C018C018C018C018C00CC007800183E1C083608320863046304C304C30383432C
:201DA00006438E26781C000000000000000000000000000000001C003C003C00300030009E
:201DC00010000C0006000000000000000000000000000000000000000000000000000000E1
:201DE000000000000000000000000000000000000000000000000040002000100008000C5F
:201E000000040006000300030003800180018001800180018001800180010003000300039E
:201E200000060006000C0008001000200040000000000000000002000400080010003000C4
:201E400020006000C000C000C00080018001800180018001800180018001C000C000C0007A
:201E6000600060003000100008000400020000000000000000000000000000000000000054
:201E800000018003800300011C713C79783DC0070001C007783D3C791C71000180038003B6
:201EA0008001000000000000000000000000000000000000000000000000000000000000A1
:201EC00000000001000100010001000100010001FC7F000100010001000100010001000179
:201EE0000000000000000000000000000000000000000000000000000000000000000000E2
:201F00000000000000000000000000000000000000000000000000000000000000000000C1
:201F20001C003C003C003000300010000C000600000000000000000000000000000000008B
:201F400000000000000000000000000000000000FE7F000000000000000000000000000004
:201F6000000000000000000000000000000000000000000000000000000000000000000061
:201F8000000000000000000000000000000000000000000000000000000000000000180029
:201FA0003C003C001800000000000000000000000000000000000040006000200030001091
:201FC00000180008000C0004000600020003000180018000C0004000600020003000100004
:201FE000180008000C0004000600020000000000000000000000000000000000C007600C76
:2020000030181830183018200C600C600C600C600C600C600C600C600C601820183018301C
:202020003018600CC0070000000000000000000000000000000000000000000000018001A3
:20204000F801800180018001800180018001800180018001800180018001800180018001F8
:202060008001C003F81F00000000000000000000000000000000000000000000E007101CF2
:202080000818043004300C300C300030001800080004000200018000400020201020082091
:2020A0000430FC1FFC1F00000000000000000000000000000000000000000000E003180EAD
:2020C0000C0C0C180C180C180018000C0006C003000E00180010003000300C300C300C1065
:2020E0000C18180CE00300000000000000000000000000000000000000000000000C000E9B
:20210000000E000F800E800E400E600E200E100E100E080E040E040EFE7F000E000E000E7F
:20212000000E000E000EC07F0000000000000000000000000000000000000000F03FF03FD8
:2021400010001000100008000800C807280C1818081000300030003000300C300C300418A0
:202160000418080CF00300000000000000000000000000000000000000000000800FC010DD
:20218000203010301800180008000C008C0F6C183C301C600C600C600C600C601860182004
:2021A00030306018C00700000000000000000000000000000000000000000000F83FF83F12
:2021C0001C100C0804080404000400020002000100010001800080008000C000C000C000E0
:2021E000C000C000C00000000000000000000000000000000000000000000000E007300C7C
:2022000018180C300C300C301C3038187008E007B007180E0C1C06380630063006300630C4
:202220000C18180CE00300000000000000000000000000000000000000000000E003180474
:202240000C080C180610063006300630063006380C3C1836F03100300018001800180C0CD3
:202260000C060C03F00100000000000000000000000000000000000000000000000000004C
:20228000000000000000000000008001C003C0038001000000000000000000000000800135
:2022A000C003C0038001000000000000000000000000000000000000000000000000000017
:2022C00000000000000000000000C000C0000000000000000000000000000000000000007E
:2022E0000000C000C0008000800040004000000000000000000000000000002000100008A6
:202300000004000600038001C0006000300018000C00180030006000C000800100030006C9
:20232000000400080010002000000000000000000000000000000000000000000000000061
:2023400000000000000000000000FE7F00000000000000000000FE7F000000000000000083
:20236000000000000000000000000000000000000000000000000000000004000800100041
:2023800020006000C000800100030006000C001800300018000C000600038001C000600051
:2023A0002000100008000400000000000000000000000000000000000000C007301808309A
:2023C00008600C601C601C601C600030001C000600018000800080008000000000008001E1
:2023E000C003C003800100000000000000000000000000000000000000000000C007601897
:20240000103018200C2F8C4D864CC64CC64C664C66446644662666266615CC1C0C40082045
:2024200018303018C00700000000000000000000000000000000000000000001C001C001C2
:20244000C001400160032003200320033006100610061006F80F080C080C080C0C0C0418BF
:20246000041806181F7C00000000000000000000000000000000000000000000FE07181C4E
:20248000183818301830183018301818180CF8071818183018201860186018601860186071
:2024A00018301818FE0F00000000000000000000000000000000000000000000C027603818
:2024C000103018200C400C400400060006000600060006000600060006000C400C400C20F4
:2024E00018303018C00700000000000000000000000000000000000000000000FE03180E5E
:202500001818183018301830186018601860186018601860186018601860183018301810C3
:202520001818180EFE0300000000000000000000000000000000000000000000FE3F1830BF
:20254000182018601840180018081808180CF80F180C180818081800180018001840184094
:2025600018201830FE3F00000000000000000000000000000000000000000000FE7F187099
:20258000184018C018801800181018101818F81F18181810181018001800180018001800CC
:2025A000180018007E0000000000000000000000000000000000000000000000C013701C0E
:2025C000101018100C200C2004000600060006000600060006FC063006300C300C3018300B
:2025E00018303008C007000000000000000000000000000000000000000000003F7E0C18B3
:202600000C180C180C180C180C180C180C180C18FC1F0C180C180C180C180C180C180C1883
:202620000C180C183F7E00000000000000000000000000000000000000000000F81F8001FD
:2026400080018001800180018001800180018001800180018001800180018001800180016A
:2026600080018001F81F00000000000000000000000000000000000000000000E07F0006DC
:202680000006000600060006000600060006000600060006000600060006000600060006DA
:2026A00000060006000600060E060E038E01FC000000000000000000000000007E7C181828
:2026C0001808180418061802180198019801D801B803380318071806180E180C181C181881
:2026E000183018307EFC000000000000000000000000000000000000000000007E0018003A
:202700001800180018001800180018001800180018001800180018001800180018401840B9
:2027200018201830FE3F000000000000000000000000000000000000000000001FF81C3871
:202740001C381C381C3C343434343434343674326432643264326431C431C431C431C43007
:20276000C43084309FFC000000000000000000000000000000000000000000001F7C1C104F
:202780003C103410341074106410E410C410C41184118413041304170416041E041C041CF6
:2027A000041C04181F1800000000000000000000000000000000000000000000C003300CA7
:2027C000181808100C300C300660066006600660066006600660066006600C200C30081023
:2027E0001818300CC00300000000000000000000000000000000000000000000FE0F18186D
:2028000018301860186018601860186018301818F80F1800180018001800180018001800F1
:20282000180018007E0000000000000000000000000000000000000000000000C003300CEB
:2028400018180C100C300C20066006600660066006600660066006600660E4612C331C323C
:202860001816300EC007004C007C003800000000000000000000000000000000FE07181CEC
:20288000183818301830183018301818180CF80798031803180718061806180E180C180CF6
:2028A000181C18187E7800000000000000000000000000000000000000000000E02730384F
:2028C00018300C200C200C000C0018007800E003800F001E003800700060046004600860E8
:2028E00018303818C80F00000000000000000000000000000000000000000000FC3F8C2181
:202900008461824182418001800180018001800180018001800180018001800180018001BF
:2029200080018001E007000000000000000000000000000000000000000000003F7C0C10D7
:202940000C100C100C100C100C100C100C100C100C100C100C100C100C100C100C100C10B7
:2029600008083804E003000000000000000000000000000000000000000000003EF81820BA
:20298000182018203010301030103010600860086008E00CC004C004C004800380038003CE
:2029A00080030001000100000000000000000000000000000000000000000000DFF38661D9
:2029C000862186218C210C218C238C138C138C134C1358125816580E380E380E380E300C98
:2029E000100410041004000000000000000000000000000000000000000000007E3E1808BF
:202A000038083004300470026002E001C001C001800180034003400720062006100C100CC5
:202A2000081808183E7C000000000000000000000000000000000000000000007E7C1C1076
:202A4000181018083008300C700460046002C002C002C00180018001800180018001800135
:202A600080018001E00700000000000000000000000000000000000000000000F83F181806
:202A80000818040C040E00060007000380038001C001C000E00060007000300038201820EF
:202AA0001C100C18FE1F00000000000000000000000000000000C03F4000400040004000AA
:202AC0004000400040004000400040004000400040004000400040004000400040004000F6
:202AE00040004000400040004000C03F00000000000000000000000000000800180018005F
:202B0000100030002000600060004000C000800080018001000100030002000600060004FD
:202B2000000C0008001800180010003000200000000000000000FC030002000200020002EA
:202B4000000200020002000200020002000200020002000200020002000200020002000255
:202B600000020002000200020002FC03000000000000000000008007C006200810100000B7
:202B8000000000000000000000000000000000000000000000000000000000000000000035
:202BA000000000000000000000000000000000000000000000000000000000000000000015
:202BC0000000000000000000000000000000000000000000000000000000000000000000F5
:202BE0000000000000000000000000000000FFFF0000000000007800C0000001000000009E
:202C00000000000000000000000000000000000000000000000000000000000000000000B4
:202C2000000000000000000000000000000000000000000000000000000000000000000094
:202C400000000000000000000000F00318060C0C0C0C000C800F700C1C0C0C0C060C060CB8
:202C6000064C0C4FF838000000000000000000000000000000000000000010001E00180031
:202C800018001800180018001800180FD8183830386018601860186018601860186018209D
:202CA00038307818C80700000000000000000000000000000000000000000000000000004D
:202CC00000000000000000000000C007700C181818180C180C000C000C000C000C20182099
:202CE00018103008C00700000000000000000000000000000000000000000010001E001867
:202D000000180018001800180018E01B301C181818180C180C180C180C180C180C1808189C
:202D2000181C307AE0090000000000000000000000000000000000000000000000000000CC
:202D400000000000000000000000C007300C181808100C300C30FC3F0C000C000C00182019
:202D600018107018C00700000000000000000000000000000000000000000000003E80C35B
:202D800080C0C0C0C000C000C000FC1FC000C000C000C000C000C000C000C000C000C00098
:202DA000C000C000F80F00000000000000000000000000000000000000000000000000008C
:202DC00000000000000000000000C077306C10181818181818181018300CF00718001800DD
:202DE000F00FF03F08700C600C600C603838E00F0000000000000000000010001E00180044
:202E000018001800180018001800980FD818383018301830183018301830183018301830FB
:202E2000183018307EFC000000000000000000000000000000000000000000008003800382
:202E400080030000000000000001F8018001800180018001800180018001800180018001EB
:202E600080018001F81F0000000000000000000000000000000000000000000000380038C9
:202E800000380000000000000010801F00180018001800180018001800180018001800185B
:202EA00000180018001800180018180C1806F0030000000000000000000010001E0018001F
:202EC00018001800180018001800183E180C1806180318019801D801380318071806180CA0
:202EE000181C18187E7C00000000000000000000000000000000000000000001F8018001F9
:202F00008001800180018001800180018001800180018001800180018001800180018001A1
:202F200080018001F81F000000000000000000000000000000000000000000000000000078
:202F400000000000000000000800EE1C9C338C318C318C318C318C318C318C318C318C31EB
:202F60008C318C31DE7B00000000000000000000000000000000000000000000000000007E
:202F8000000000000000000010001E0FD8183830183018301830183018301830183018305C
:202FA000183018307EFC000000000000000000000000000000000000000000000000000007
:202FC00000000000000000000000C007701C103018300C600C600C600C600C600C60183046
:202FE00018303018C00700000000000000000000000000000000000000000000000000007A
:20300000000000000000000010009E0F5818383018201860186018601860186018601830CB
:2030200038307818980718001800180018007E00000000000000000000000000000000001B
:2030400000000000000000000000C023303C183818300C300C300C300C300C300C300830E9
:203060001838303CE033003000300030003000FC00000000000000000000000000000000C5
:20308000000000000000000060007E3C60666061E000E0006000600060006000600060008F
:2030A00060006000FE0700000000000000000000000000000000000000000000000000004B
:2030C00000000000000000000000E02730381830182018007000E003800F001C0430043083
:2030E0000C301C18EC0F000000000000000000000000000000000000000000000000000065
:20310000800080008000C000E000FC1FC000C000C000C000C000C000C000C000C000C020D4
:20312000C0208011000F00000000000000000000000000000000000000000000000000000F
:20314000000000000000000010201E3C183018301830183018301830183018301830183015
:20316000183830F4E0130000000000000000000000000000000000000000000000000000E8
:20318000000000000000000000007E3C18181808380830043004700260026002E001C001A5
:2031A000C001C000800000000000000000000000000000000000000000000000000000000E
:2031C00000000000000000000000DFF78E630C238C238C239813981358165816700E700E6D
:2031E000700E20042004000000000000000000000000000000000000000000000000000009
:2032000000000000000000000000FC3E70087004E004C002C0018003800340076006200C42
:20322000100C18183E7E000000000000000000000000000000000000000000000000000086
:20324000000000000000000000007E7C1818180830083008300460046004C002C002C00272
:203260008001800180018000800080004C003C0000000000000000000000000000000000C3
:2032800000000000000000000000FC1F0C0C040E0406000380038001C000E0007020302058
:2032A00038301C18FC1F000000000000000000000000000000000030000800040004000413
:2032C000000400040004000400040004000400028001000200040004000400040004000435
:2032E00000040004000400040004000800300000000100010001000100010001000100017A
:2033000000010001000100010001000100010001000100010001000100010001000100019D
:20332000000100010001000100010001000100010000000000000C00100020002000200009
:203340002000200020002000200020002000400080014000200020002000200020002000CC
:203360002000200020002000200010000C00000000003800C400864002610022001C00002E
:2033800000000000000000000000000000000000000000000000000000000000000000002D
:2033A00000000000000000000000000000000000000000000000000000000000000000000D
:2033C0000000000000000000000000000000000000000000000000000000000000000000ED
:2033E00000000000000000006000600060006000600060006000400020002000200000008D
:20340000000000006000600060000000000000000000000060066006300398018800440028
:2034200000000000000000000000000000000000000000000000000000000000000000008C
:2034400000000000000000001002100210021002FE07FE0708020801080108010801FE07E7
:20346000FE07040104010401040100000000000000000000000040004000F00158034C0318
:20348000CC034C0058007000E000C001C00140034C035C034C034801F000400040000000EE
:2034A00000000000000000000E010A01910091009100510051003A00AE03A0025004500468
:2034C00048044804480484028403000000000000000000000000000038006C006C006C007F
:2034E0006C006C002C0098071C011A01330133016301E300C308C6093C0700000000000065
:20350000000000000C001C0010001000080004000000000000000000000000000000000057
:20352000000000000000000000000000000000000000000000040002000180008000400044
:203540004000200020002000200020002000200040004000800080000001000200040000C4
:2035600000000000020004000800100010002000200040004000400040004000400040001D
:20358000200020001000100008000400020000000000000000000000000000004000C000BD
:2035A0004000460C4E0FD001F0015E0F460C400040004000000000000000000000000000DB
:2035C000000000000000000000000000000040004000400040004000FE0F400040004000DE
:2035E00040004000000000000000000000000000000000000000000000000000000000004B
:2036000000000000000000000000000000000000000000000C001C00100010000800040056
:20362000000000000000000000000000000000000000000000000000FE0700000000000085
:2036400000000000000000000000000000000000000000000000000000000000000000006A
:2036600000000000000000000000000000000000000000001C001C001C00000000000000F6
:203680000000000000040006000200030001000180008000400040006000200020001000E9
:2036A0001000080008000C00040006000200000000000000000000000000F00098010C033A
:2036C0000C03060606060606060606060606060606060C030C039801F000000000000000D4
:2036E0000000000000000000000040007C00600060006000600060006000600060006000AE
:203700006000600060006000FC0300000000000000000000000000000000F80084010203A8
:2037200006030603000300018001C000600020001000080204020602FE0300000000000089
:20374000000000000000000000007800C6008601860180018001C000700080010001000366
:203760000003060306038601F8000000000000000000000000000000000080018001C001F2
:20378000A001A00190018801880184018201FE0F8001800180018001E00700000000000044
:2037A00000000000000000000000FC0304000400040004000400F4008C0104030003000368
:2037C0000603060382018401F80000000000000000000000000000000000E00118030C03CC
:2037E0000C0004000600E60116030E0606060606060604060C021803F00000000000000058
:2038000000000000000000000000F8070C06040204010001000180008000400040004000CA
:203820006000600060006000600000000000000000000000000000000000F8010C03060694
:20384000060606060C021C03F000C8010C0306060606060606060C03F0010000000000002B
:2038600000000000000000000000F0000C010C03060206060606060606078C0678060006ED
:20388000000300030C018C0178000000000000000000000000000000000000000000000010
:2038A00000000000E000E000E00000000000000000000000E000E000E000000000000000C8
:2038C000000000000000000000000000000000000000000060006000000000000000000028
:2038E000000000000000600060004000200020000000000000000000000400020001800001
:2039000040002000100008000400080010002000400080000001000200040000000000002C
:203920000000000000000000000000000000000000000000FE07000000000000FE0700007D
:2039400000000000000000000000000000000000000000000000000004000800100020002B
:20396000400080000001000200040002000180004000200010000800040000000000000081
:2039800000000000000000000000E0031806040C040C0C0C0C0C000780014000400040008E
:2039A00000000000E000E000E0000000000000000000000000000000E00018030C02CC058D
:2039C00064056605A605B604B604B604B604B602E4010C040C021803F000000000000000BA
:2039E00000000000000000000000600060005000D00090009000880088010801F8010403AD
:203A000004030402020202060F0F00000000000000000000000000000000FE008C030C03D3
:203A20000C030C030C038C01FC000C030C020C060C060C060C060C03FE010000000000005D
:203A400000000000000000000000E00318030C060C0404040600060006000600060006001A
:203A600006040C040C021803F000000000000000000000000000000000007F008C010C03F8
:203A80000C030C060C060C060C060C060C060C060C060C030C038C017F000000000000005D
:203AA00000000000000000000000FF03060306040604060086008600FE0086008600860045
:203AC0000600060406040602FF0300000000000000000000000000000000FF0306030604AD
:203AE0000604060086008600FE0086008600860006000600060006001F00000000000000E3
:203B000000000000000000000000F00018010C020C0204020600060006000600C60F060384
:203B200006030C030C031803F000000000000000000000000000000000000F0F060606061D
:203B40000606060606060606FE0706060606060606060606060606060F0F000000000000BE
:203B600000000000000000000000FC03600060006000600060006000600060006000600086
:203B80006000600060006000FC0300000000000000000000000000000000F807C000C00027
:203BA000C000C000C000C000C000C000C000C000C000C000C000C000C000C60066003C00DD
:203BC00000000000000000000000CF038601C60046002600160036002E006E004600C60066
:203BE00086008601060106038F07000000000000000000000000000000001F0006000600E7
:203C0000060006000600060006000600060006000600060406040602FF0300000000000050
:203C2000000000000000000000000707860386038E038E034E034E034A035A035A033A035C
:203C400032033203320312038707000000000000000000000000000000008E0F0C021C0259
:203C60001C0234023402640264024402C402840284038403040304031F020000000000001F
:203C800000000000000000000000F00098010C030C0206060606060606060606060606062A
:203CA00006060C020C039801F00000000000000000000000000000000000FF00060306063E
:203CC00006060606060606068603FE000600060006000600060006001F00000000000000EA
:203CE00000000000000000000000F00098010C030C020606060606060606060606060606CA
:203D000076064C02CC039801F00080070003000000000000000000000000FF0106030606E2
:203D20000606060606060603FE004600C600860086010603060306060F0E00000000000004
:203D400000000000000000000000F8020C030602060206000E003C00F800E0038003000795
:203D60000206020606060C03F00100000000000000000000000000000000FE076204610853
:203D8000610860006000600060006000600060006000600060006000F801000000000000A1
:203DA000000000000000000000001E070C020C020C020C020C020C020C020C020C020C0252
:203DC0000C020C020C021801F000000000000000000000000000000000000F07060204018D
:203DE00004010C010C018800880098009800500050007000300020002000000000000000E4
:203E000000000000000000000000F70E620442044604460464026402E402E4029C029C018A
:203E200098019801880188008800000000000000000000000000000000009E070C010801FC
:203E400018019000B0006000200060006000D00090008801080104038E070000000000003B
:203E6000000000000000000000000F0F060404020C0208011801B800B0007000600060004C
:203E80006000600060006000F80100000000000000000000000000000000FC070C0206038F
:203EA00002018001800040004000200020001000180008040C040402FE03000000000000F3
:203EC00000000000E00320002000200020002000200020002000200020002000200020005F
:203EE000200020002000200020002000E00300000000000000000000040004000800080007
:203F00001000100010002000200040004000C00080008000000100010002000200020004E5
:203F2000000000007C004000400040004000400040004000400040004000400040004000C5
:203F40004000400040004000400040007C000000000060009000080100000000000000006C
:203F6000000000000000000000000000000000000000000000000000000000000000000041
:203F8000000000000000000000000000000000000000000000000000000000000000000021
:203FA0000000000000000000000000000000FF0F000000001800600000000000000000007B
:203FC0000000000000000000000000000000000000000000000000000000000000000000E1
:203FE0000000000000000000000000000000000000000000F0010C030C030003E0031C03AD
:204000000E03060306038E0B7C0E000000000000000000000000000008000E000C000C002C
:204020000C000C00CC013C031C060C060C060C060C060C060C021C03E401000000000000CE
:204040000000000000000000000000000000000000000000F0008C018C01860106000600C3
:20406000060006020C020C01F00000000000000000000000000000000002C003000300035C
:204080000003000378038C030C030603060306030603060304038C077801000000000000C1
:2040A0000000000000000000000000000000000000000000E001180308020C060C06FC07D3
:2040C0000C000C0018041802E00100000000000000000000000000000000C0036006300652
:2040E00030003000FE01300030003000300030003000300030003000FC01000000000000B4
:204100000000000000000000000000000000000000000000F007D8068C018C018C0198018A
:20412000F8000C00FC00CC03060306038E03F800000000000000000008000E000C000C00E7
:204140000C000C00EC011C030C030C030C030C030C030C030C030C039E070000000000001E
:2041600000000000000000000000600060000000000040007C0060006000600060006000E3
:204180006000600060006000FC0300000000000000000000000000000000C001C00100001E
:2041A00000000001F00180018001800180018001800180018001800180018001CC007C003A
:2041C000000000000000000008000E000C000C000C000C008C038C008C004C006C005C00DE
:2041E0008C008C010C010C039E07000000000000000000000000000040007C006000600069
:20420000600060006000600060006000600060006000600060006000FC030000000000001F
:2042200000000000000000000000000000000000000000003707EE0666066606660666069C
:204240006606660666066606FF0F00000000000000000000000000000000000000000000A0
:2042600000000000EE011C030C030C030C030C030C030C030C030C039E0700000000000013
:204280000000000000000000000000000000000000000000F00098010C0306060606060662
:2042A000060606060C030C03F00000000000000000000000000000000000000000000000D8
:2042C00000000000EE011C030C060C060C060C060C060C060C031C03EC010C000C003E00F3
:2042E000000000000000000000000000000000000000000078028C030C030603060306038B
:204300000603060304038C03780300030003C00700000000000000000000000000000000AD
:20432000000000009F03580638061800180018001800180018001800FF0000000000000098
:204340000000000000000000000000000000000000000000F0031C030C020C023800F00007
:20436000C003040304038C03FC0100000000000000000000000000000000000020002000A0
:2043800030003000FE01300030003000300030003000300030023002E00100000000000029
:2043A00000000000000000000000000000000000000008028E030C030C030C030C030C0317
:2043C0000C030C030C039C0778010000000000000000000000000000000000000000000094
:2043E000000000001E070C020801080118019000B000B0006000600020000000000000008F
:204400000000000000000000000000000000000000000000F70E6204460464026402EC022D
:204420009C019801980198010800000000000000000000000000000000000000000000000C
:2044400000000000BC0718011001B00060006000E0009000080108039E07000000000000D6
:2044600000000000000000000000000000000000000000009E07080108010801900090005C
:20448000B0006000600060002000200024001C0000000000000000000000000000000000CC
:2044A00000000000FC018401C4004400600020003000180208020C03FC0100000000000092
:2044C000000000000003800080008000800080008000800080004000200040008000800039
:2044E0008000800080008000800080000003000040004000400040004000400040004000B9
:2045000040004000400040004000400040004000400040004000400040004000400040009B
:20452000000000000C0010001000100010001000100010001000200040002000100010004F
:204540001000100010001000100010000C00000000001C002204C204800300000000000064
:2045600000000000000000000000000000000000000000000000000000000000000000003B
:204580000000000000000000000000000000000000000008080808080808000018180000B3
:2045A00000486C241200000000000000000000000000002424247F1212127F12121200003B
:2045C0000000081C2A2A0A0C1828282A2A1C080800000022251515152A585454542200003F
:2045E0000000000C1212120A76252911916E00000006060403000000000000000000000088
:204600000040201010080808080808101020400000020408081010101010100808040200DE
:204620000000000008086B1C1C6B08080000000000000000080808087F080808080000008D
:20464000000000000000000000000000060604030000000000000000FE0000000000000049
:204660000000000000000000000000000606000000008040402020101008080404020200B2
:2046800000000018244242424242424224180000000000080E08080808080808083E000040
:2046A0000000003C4242422020100804427E00000000003C4242201820404042221C0000C4
:2046C000000000203028242422227E20207800000000007E0202021A26404042221C0000DC
:2046E000000000382402021A26424242241800000000007E22221010080808080808000006
:204700000000003C4242422418244242423C0000000000182442424264584040241C0000B7
:204720000000000000001818000000001818000000000000000000080000000000080804FD
:20474000000000402010080402040810204000000000000000007F0000007F000000000061
:20476000000000020408102040201008040200000000003C424246402010100018180000C7
:204780000000001C225A555555552D42221C00000000000808181414243C224242E7000043
:2047A0000000001F2222221E22424242221F00000000007C4242010101010142221C0000A8
:2047C0000000001F2242424242424242221F00000000003F4212121E12120242423F0000DD
:2047E0000000003F4212121E12120202020700000000003C2222010101712122221C000050
:20480000000000E7424242427E42424242E700000000003E0808080808080808083E000078
:204820000000007C10101010101010101010110F0000007722120A0E0A1212222277000090
:20484000000000070202020202020202427F000000000077363636362A2A2A2A2A6B0000F4
:20486000000000E346464A4A52525262624700000000001C2241414141414141221C0000F1
:204880000000003F424242423E020202020700000000001C2241414141414D53321C6000B3
:2048A0000000003F4242423E1212222242C700000000007C4242020418204042423E000004
:2048C0000000007F4908080808080808081C0000000000E74242424242424242423C00003F
:2048E000000000E74242222424141418080800000000006B494949495555362222220000BE
:20490000000000E7422424181818242442E70000000000772222141408080808081C000046
:204920000000007E2120101008040442423F00000078080808080808080808080808780075
:2049400000000202040408080810102020204040001E1010101010101010101010101E0037
:2049600000384400000000000000000000000000000000000000000000000000000000FFBC
:2049800000060800000000000000000000000000000000000000003C4278444242FC00004F
:2049A000000000030202021A26424242261A000000000000000000384402020244380000AA
:2049C00000000060404040784442424264D80000000000000000003C427E0202423C00007B
:2049E000000000F08808087E08080808083E0000000000000000007C22221C023C42423C71
:204A0000000000030202023A4642424242E700000000000C0C00000E08080808083E000092
:204A20000000003030000038202020202020221E0000000302020272120A16122277000086
:204A40000000000E0808080808080808083E0000000000000000007F9292929292B70000B2
:204A6000000000000000003B4642424242E70000000000000000003C42424242423C000004
:204A8000000000000000001B26424242221E0207000000000000007844424242447840E068
:204AA00000000000000000774C040404041F0000000000000000007C42023C40423E000048
:204AC000000000000008083E080808080830000000000000000000634242424262DC000087
:204AE00000000000000000E7422424140808000000000000000000EB4949555522220000B6
:204B0000000000000000007624181818246E000000000000000000E742242414180808076D
:204B2000000000000000007E22100808447E000000C0202020202010202020202020C00003
:204B40001010101010101010101010101010101000060808080808100808080808080600E1
:204B60000C32C200000000000000000000000000000000000000000000000000000004042D
:204B8000040404000004000014140A00000000000000000000000A0A1F0A0A1F0A0A000059
:204BA00000040E1505060C14150E0400000012150D152E2C2A1200000000040A0A36151525
:204BC00029160000020201000000000000000000100808040404040408081000020404082B
:204BE000080808080404020000000004150E0E150400000000000008083E080800000000DF
:204C000000000000000000000202010000000000003F000000000000000000000000000050
:204C20000002000000201010080804040202010000000E1111111111110E00000000040689
:204C400004040404040E000000000E1111080402011F000000000E11100C1010110E00005A
:204C60000000080C0C0A091F081C000000001F01010F1110110E000000000C12010D1311FE
:204C8000110E000000001E10080804040404000000000E11110E1111110E000000000E1109
:204CA000111916100906000000000000040000000004000000000000000400000004040081
:204CC000000010080402020408100000000000003F003F00000000000000020408101008E4
:204CE0000402000000000E11110804040004000000001C22292D2D1D221C00000000040446
:204D00000C0A0A1E1233000000000F12120E1212120F000000001E1101010101110E000038
:204D200000000F1212121212120F000000001F120A0E0A02121F000000001F120A0E0A020E
:204D40000207000000001C1201013911120C000000003312121E12121233000000001F04B1
:204D600004040404041F000000003E080808080808080907000037120A060A1212370000BC
:204D80000000070202020202223F000000003B1B1B1B15151535000000003B1216161A1AF4
:204DA0001217000000000E1111111111110E000000000F12120E02020207000000000E11DB
:204DC00011111117190E180000000F12120E0A121237000000001E1101060810110F000036
:204DE00000001F1504040404040E00000000331212121212120C000000003312120A0A0C3B
:204E0000040400000000151515150E0A0A0A000000001B0A0A04040A0A1B000000001B0A7F
:204E20000A0A0404040E000000001F0908040402121F00001C0404040404040404041C007D
:204E40000002020404040808081010000E0808080808080808080E00040A00000000000098
:204E60000000000000000000000000000000003F02040000000000000000000000000000ED
:204E8000000C121C123C000000030202020E1212120E000000000000001C1202120C0000E1
:204EA00000181010101C1212123C000000000000000C121E021C000000182404041E040458
:204EC000041E000000000000003C120C021C221C00030202020E121212370000000404006E
:204EE00000060404040E000000080800000C08080808080700030202021A0A060A130000F7
:204F00000007040404040404041F000000000000000F15151515000000000000000F1212B9
:204F20001237000000000000000C1212120C000000000000000F1212120E0207000000007E
:204F4000001C1212121C103800000000001B06020207000000000000001E020C101E000015
:204F600000000004041E0404041C000000000000001B1212123C000000000000001B0A0A27
:204F800004040000000000000015150E0A0A000000000000001B0A040A1B0000000000006F
:204FA000003312120C08040300000000001E0804041E000018080808080C080808081800B7
:204FC00008080808080808080808080806040404040804040404060016090000000000001E
:204FE0000000000062756666203D2025730D0A000080808080808080808090909090908012
:205000008080808080808080808080808080808080180404040404040404040404040404C0
:205020000402020202020202020202040404040404044343434343434141414141414141A2
:20504000414141414141414141414141040404040404232323232323212121212121212152
:20506000212121212121212121212121040404048000000000000000000000000000000014
:20508000000000000000000000000000000000000000000000000000000000000000000010
:2050A0000000000000000000000000000000000000000000000000000000000000000000F0
:2050C0000000000000000000000000000000000000000000000000000000000000000000D0
:2050E0000000000000000000000000000000000000D1C70000FE3F20022002200220022231
:2051000022242224122812280A200220022002FF7F0000B2A9040A0412F47F0402E43F3F47
:2051200022E43F2422E43F24220410F47F4410841084140408D6C704007C3E12221022FFA8
:20514000222822443E0200F80F08080808F80F08080808F80F0808C4DC080224224212FFB7
:205160000E800200427E42427C42007E224212420E7E0242425242227C426F6172642049D2
:205180006E6974205B5B202A2A204C434B4642202A2A205D5D0D00303132333435363738C9
:2051A0003941424344454600303132333435363738396162636465660000040000000000BB
:2051C00007100000000018000000003000004944203D2025580D0A00D1C7B2A9D6C7C4DCA2
:2051E00000596168626F6F6D0048656C6C6F2100080004000A0000000000000000000000B5
:20520000F0B585B001273D05FD4E35606424204603F0EAFF3046103804900560204603F090
:20522000E3FFF8043060204603F0DEFF3806306001460290F805F34E30600390FD07356029
:205240003C0734603746103F3D60356034603D60356034603D6035603C603D60356034608B
:205260003D60356034603D60356034603D6035603C603D60306004980160782003F0B4FF6C
:205280000299DF4B1960039A326035603C603D60356034603D6035603C603D6035603C600E
:2052A0003D60356034603D60356034603D60356034603D6035603C603D60326004980160A2
:2052C0003260356034603D60356034603D60356034603D60356034603D60356034603D605E
:2052E00035603C603D60356034603D6035603C603D6032603260356034603D603560346039
:205300003D6035603C603D6035603C603D6035603C603D6035603C603D60356034603D60F2
:20532000356034603D6032603260356034603D60356034603D6035603C603D6035603C60F8
:205340003D6035603C603D6035603C603D60356034603D60356034603D60326019603260EB
:2053600035603C603D60356034603D6035603C603D6035603C603D60356034603D603560A2
:2053800034603D6035603C603D60356034603D60326001603260356034603D6035603460D4
:2053A0003D60356034603D60356034603D60356034603D6035603C603D60356034603D606A
:2053C00035603C603D6032603260356034603D60356034603D6035603C603D6035603C6050
:2053E0003D6035603C603D6035603C603D60356034603D60356034603D603260326035602F
:2054000034603D60356034603D6035603C603D6035603C603D6035603C603D6035603C60FA
:205420003D60356034603D60356034603D6032601960326035603C603D60356034603D6012
:2054400035603C603D6035603C603D60356034603D60356034603D6035603C603D603560C1
:205460003C603D60326001603260356034603D60356034603D60356034603D6035603460F3
:205480003D60356034603D6035603C603D60356034603D6035603C603D603260326035608E
:2054A00034603D60356034603D6035603C603D6035603C603D6035603C603D6035603C605A
:2054C0003D60356034603D60356034603D6032603260356034603D60356034603D6035605E
:2054E0003C603D6035603C603D6035603C603D6035603C603D60356034603D60356034601A
:205500003D6032603260356034603D60356034603D60356034603D60356034603D6035601D
:2055200034603D6035603C603D60356034603D6035603C603D6032603260356034603D60EE
:20554000356034603D6035603C603D6035603C603D6035603C603D6035603C603D603560B8
:2055600034603D60356034603D6032603260356034603D60356034603D6035603C603D60B6
:2055800035603C603D6035603C603D6035603C603D60356034603D60356034603D60326083
:2055A0001960326035603C603D60356034603D6035603C603D6035603C603D603560346087
:2055C0003D6035603C603D60356034603D60356034603D60326001603260356034603D6089
:2055E000356034603D60356034603D60356034603D60356034603D603560346004E0C04680
:20560000A0320A40A0120A403D6035603C603D6035603C603D6032601960326035603C606B
:205620003D6035603C603D60356034603D60356034603D60356034603D60356034603D60E7
:20564000356034603D60356034603D6032600160326035603C603D60356034603D60356010
:205660003C603D60356034603D6035603C603D60356034603D6035603C603D6035603C6098
:205680003D6032603260356034603D60356034603D60356034603D60356034603D6035609C
:2056A0003C603D60356034603D6035603C603D6035603C603D6032603260356034603D6065
:2056C000356034603D60356034603D60356034603D60356034603D6035603C603D6035604F
:2056E00034603D60356034603D6032601960326035603C603D6035603C603D603560346051
:205700003D60356034603D60356034603D60356034603D60356034603D6035603C603D6006
:2057200032600160326035603C603D6035603C603D60356034603D60356034603D60356027
:2057400034603D6035603C603D60356034603D6035603C603D6032601960326035603C60E8
:205760003D6035603C603D60356034603D60356034603D60356034603D60356034603D60A6
:2057800035603C603D60356034603D60326001603260356034603D60356034603D603560CF
:2057A00034603D60356034603D6035603C603D6035603C603D60356034603D6035603C605F
:2057C0003D6032603260356034603D60356034603D60356034603D60356034603D6035605B
:2057E00034603D60356034603D60356034603D60356034603D6032601960326035603C6058
:205800003D6035603C603D60356034603D60356034603D60356034603D60356034603D6005
:2058200035603C603D6035603C603D6032600160326035603C603D60356034603D6035601E
:2058400034603D60356034603D6035603C603D6035603C603D60356034603D6035603C60BE
:205860003D6032603260356034603D6035603C603D6035603C603D60356034603D603560AA
:205880003C603D60356034603D6035603C603D60356034603D6032601960326035603C60A7
:2058A0003D6035603C603D60356034603D60356034603D60356034603D6035603C603D605D
:2058C000356034603D60356034603D6032600160326035603C603D60356034603D6035608E
:2058E00034603D60356034603D6035603C603D6035603C603D60356034603D6035603C601E
:205900003D603260326035603C603D6035603C603D6035603C603D60356034603D60356001
:205920003C603D6035603C603D6035603C603D60356034603D6032601960326035603C60FE
:205940003D6035603C603D60356034603D60356034603D60356034603D6035603C603D60BC
:20596000356034603D6035603C603D60326001603260356034603D60356034603D603560ED
:2059800034603D60356034603D6035603C603D6035603C603D6035603C603D6035603C6075
:2059A0003D6032601960326035603C603D6035603C603D6035603C603D60356034603D607D
:2059C000356034603D60356034603D60356034603D60356034603D60326001603260356095
:2059E00034603D60356034603D60356034603D60356034603D60356034603D6035603C602D
:205A00003D6035603C603D6035603C603D6032603260356034603D60356034603D60356008
:205A200034603D60356034603D6035603C603D6035603C603D6035603C603D6035603460DC
:205A40003D6032603260356034603D60356034603D60356034603D60356034603D603560D8
:205A60003C603D60356034603D60356034603D60356034603D6032603260356034603D60B1
:205A8000356034603D60356034603D60356034603D60356034603D6035603C603D6035608B
:205AA0003C603D6035603C603D6032603260356034603D60356034603D60356034603D6069
:205AC00035603C603D60356034603D60356034603D60356034603D60356034603D6032604E
:205AE0003260356034603D60356034603D60356034603D60356034603D60356034603D6036
:205B000035603C603D6035603C603D6035603C603D6032603260356034603D603560346008
:205B20003D60356034603D60356034603D60356034603D60356034603D6035603C603D60E2
:205B4000356034603D6032603260356034603D60356034603D60356034603D6035603460E0
:205B60003D60356034603D6035603C603D6035603C603D6035603C603D603260326035609F
:205B800034603D60356034603D60356034603D60356034603D6035603C603D60356034608B
:205BA0003D60356034603D6035603C603D6032603260356034603D60356034603D6035606F
:205BC00034603D60356034603D6035603C603D6035603C603D6035603C603D6035603C6033
:205BE0003D6032603260356034603D60356034603D6035603C603D60356034603D6035602F
:205C000034603D6035603C603D60356034603D6035603C603D6032603260356034603D6007
:205C2000356034603D6035603C603D6035603C603D60356034603D6035603C603D603560D9
:205C40003C603D60356034603D6032603260356034603D60356034603D60356034603D60CF
:205C6000356034603D60356034603D60356034603D60356034603D60356034603D603260B4
:205C80003260356034603D60356034603D60356034603D60356034603D6035603C603D608C
:205CA000356034603D60356034603D60356034603D6032603260356034603D60356034607F
:205CC0003D60356034603D60356034603D60356034603D6035603C603D60356034603D6041
:205CE000356034603D6032603260356034603D60356034603D60356034603D6035603C6037
:205D00003D60356034603D60356034603D60356034603D60356034603D6032601960326031
:205D200035603C603D6035603C603D6035603C603D60356034603D60356034603D603560D8
:205D400034603D60356034603D6035603C603D60326001603260356034603D60356034600A
:205D60003D60356034603D60356034603D6035603C603D60356034603D6035603C603D6098
:205D8000356034603D6032603260356034603D60356034603D60356034603D60356034609E
:205DA0003D6035603C603D6035603C603D60356034603D6035603C603D603260326035605D
:205DC00034603D60356034603D60356034603D60356034603D6035603C603D603560346049
:205DE0003D60356034603D60356034603D6032603260356034603D60356034603D60356035
:205E000034603D60356034603D60356034603D6035603C603D6035603C603D6035603C60F8
:205E20003D6032603260356034603D60356034603D60356034603D60356034603D603560F4
:205E40003C603D6035603C603D6035603C603D6035603C603D6032603260356034603D60B5
:205E6000356034603D60356034603D60356034603D60356034603D6035603C603D603560A7
:205E80003C603D6035603C603D6032603260356034603D60356034603D60356034603D6085
:205EA000356034603D60356034603D60356034603D6035603C603D60356034603D6032606A
:205EC0003260356034603D60356034603D60356034603D60356034603D60356034603D6052
:205EE00035603C603D6035603C603D6035603C603D6032603260356034603D603560346025
:205F00003D60356034603D60356034603D6035603C603D60356034603D60356034603D60FE
:205F200035603C603D6032603260356034603D60356034603D60356034603D6035603460F4
:205F40003D6035603C603D6035603C603D6035603C603D6035603C603D60326032603560B3
:205F600034603D60356034603D6035603C603D60356034603D60356034603D6035603C609F
:205F80003D60356034603D6035603C603D6032603260356034603D60356034603D6035608B
:205FA0003C603D6035603C603D60356034603D6035603C603D60356034603D6035603C604F
:205FC0003D6032603260356034603D60356034603D60356034603D60356034603D60356053
:205FE00034603D60356034603D60356034603D60356034603D6032603260356034603D6034
:20600000356034603D60356034603D60356034603D6035603C603D60356034603D60356005
:2060200034603D6035603C603D6032603260356034603D60356034603D60356034603D60EB
:20604000356034603D60356034603D6035603C603D60356034603D60356034603D603260C8
:206060003260356034603D60356034603D60356034603D6035603C603D60356034603D60A8
:20608000356034603D60356034603D60356034603D6032601960326035603C603D603560AE
:2060A0003C603D6035603C603D6035603C603D6035603C603D6035603C603D603560346046
:2060C0003D60356034603D6032600160326035603C603D60356034603D60356034603D607E
:2060E000356034603D60356034603D60356034603D60356034603D60356034603D60326030
:2061000019603260356034603D60356034603D6035603C603D6035603C603D6035603C601B
:206120003D60356034603D6035603C603D60356034603D60326001603260356034603D601D
:20614000356034603D60356034603D60356034603D60356034603D6035603C603D603560C4
:2061600034603D6035603C603D60326019603260356034603D60356034603D6035603C60C6
:206180003D6035603C603D60356034603D6035603C603D6035603C603D60356034603D606C
:2061A000326001603260356034603D6035603C603D6035603C603D6035603C603D60356095
:2061C0003C603D60356034603D60356034603D60356034603D60326019603260356034606E
:2061E0003D60356034603D6035603C603D60356034603D60356034603D60356034603D601C
:20620000356034603D6035603C603D603260016019603260356034603D60356034603D6060
:2062200035603C603D60356034603D6035603C603D60356034603D60356034603D603560DB
:206240003C603D603260016019603260356034603D60356034603D6035603C603D60356018
:2062600034603D6035603C603D60356034603D6035603C603D60356034603D6032600160D2
:206280003260356034603D60356034603D60356034603D60356034603D60356034603D608E
:2062A000356034603D60356034603D60356034603D6032603260356034603D603560346079
:2062C0003D60356034603D6035603C603D6035603C603D60356034603D6035603C603D602B
:2062E000356034603D6032603260356034603D60356034603D60356034603D603560346039
:206300003D60356034603D60356034603D60356034603D60356034603D603260326035600F
:2063200034603D6035603C603D6035603C603D60356034603D6035603C603D6035603460D3
:206340003D60356034603D6035603C603D60326019603260356034603D60356034603D60E3
:2063600035603C603D60356034603D6035603C603D60356034603D6035603C603D60356092
:206380003C603D60326001603260356034603D60356034603D60356034603D6035603460C4
:2063A0003D60356034603D60356034603D60356034603D60356034603D603260326035606F
:2063C00034603D60356034603D60356034603D60356034603D60356034603D60356034604B
:2063E0003D60356034603D6035603C603D6032603260356034603D60356034603D60356027
:2064000034603D60356034603D60356034603D60356034603D60356034603D60356034600A
:206420003D603260326035603C603D60356034603D6035603C603D60356034603D603560DE
:2064400034603D60356034603D60356034603D60356034603D6032601960326035603460F3
:206460003D60356034603D6035603C603D60356034603D6035603C603D6035603C603D6089
:20648000356034603D60356034603D6032600160044800900020A0225023014600F0C0FF56
:2064A00005B0F0BDFFFF0000F0B5FFB08EB0049306920646929802900025E84305908C91B1
:2064C0003468204603F0DAF821188B9503918C4200D3B5E00020879087A90873889005983B
:2064E00089902F46049D2078002800D1A9E0252805D0641C34600699A8477F1CF3E78B97F8
:20650000601C306087AC2046314600F0A1F88CAA2046314600F0B9F831680A781346683B0B
:206520000120C341092B2BD87B441B795B009F4404130A272727162727194B78879A682BE4
:2065400019D1430204E04B78879A6C2B10D103021A438792891C12E0879AC30204E0879ACF
:20656000430301E0879A030313438793491C06E0491C402301E0491C20231A4387920A78C9
:206580004C1C346087A90A73732A1ED06E2A28D187992E4A1140202947D040293BD0420334
:2065A000914238D0420291423AD0C202914205D0020391422FD0000281422CD1F8178C99A6
:2065C00004C98C911760506033E087A80078400619D4009587A88CAA8BAB069900F015F9F0
:2065E00027E007AD87A98CAA284600F065F9024628460699029B9847411C059D00D0C51940
:206600008B95039917E0009587A88CAA8BAB069900F097F80DE08C9802C88C900F6008E02B
:206620008C9802C88C900F7003E08C9802C88C900F8003998B9D681C00D048E7059F00E08A
:206640002F4638467FB00EB0F0BDC046603F000010B50A681378302B0FD0232B07D02B2B91
:2066600009D02D2B05D0202B0ED1042306E0082304E0012302E0022300E0102304681C43C5
:206680000460521C0A60E5E710BDFEB516460D460446086802782A2A10D13068011D316013
:2066A00000686060002805D54042606020680121014321602868471C2F6017E00021303AFB
:2066C000092A08D84218531C2B60435C6F467B545278491CF3E76A460023535412784718C4
:2066E000002A03D0684602F05FFD606038782E2826D1781C286079782A2908D13068011DF5
:2067000031600068A0602868401C2860FEBD00203039092908D839188A1C2A604A786B46C2
:206720001A548978401CF3E76A46002111541078002804D0684602F037FDA060FEBDA1606A
:20674000FEBDF0B587B01E460C9F13681C1D14601D68002D3BD0049106908468002C04D493
:20676000284602F06EFF844203D3284602F069FF044606984068A042039000DC204601465A
:206780003068019140180296306005940398A0420EDD06980078C0070AD1059801990E1A37
:2067A0000024B44204DA20200499B847641CF8E70026049C069805998E420BDA2868010A54
:2067C00019D12D1DC0B22146B847761CF2E70020B84718E00599039A8A4214DD0078C007F4
:2067E00011D00198451A0024AC420CDA20200499B847641CF8E70020C0430299086002F075
:206800005DFF5821016007B0F0BDF0B585B00C4606460A9D1068011D116000680490002894
:2068200044D00393B768002F04D4049802F026FF874203D3049802F021FF074602967268C9
:20684000BA42114600DC3946039B18680091401818600192BA420FDD02980078C0070BD1DB
:206860000098C01B039000260398864204DA20202146A847761CF7E70026BE4205DA049804
:20688000805D2146A847761CF7E70198B84210DD02980078C0070CD00098C61B0027B74287
:2068A00007DA20202146A8477F1CF8E700202146A84705B0F0BDC046F0B589B005920E4640
:2068C00004467F20800027184868039000250795FF210491FE3120222046019202F0C0FE3D
:2068E0003046089702977D70367B31466339152906903DD801228A40604B1A42069822D0CC
:2069000007A908AA059B00F0BDF806980025067B012731466F390929059504D801228A40B0
:2069200057490A423FD1582E3DD0016802230B40079A002A27D008994A1E08922D220A70C1
:206940005F425F412FE0002912D1059B1A68111D19601268D1B24D424D410499FC316118B5
:20696000089102990A70026802218A430260CEE7252E02D0582EC3D0CAE7002060702520D4
:206980002070012078E0002B07D149070BD5089A511E08910199117005E0089A511E089167
:2069A0002B2111700027039903976518089B0178C907264608D10299491CC91A426891429F
:2069C000264601DC691A4E1C591C04984300002730463A4602F0B6FD08900599002903D039
:2069E000411C0891077000E00146A94206D8481E691A491C202202F033FE2F7006980078D2
:206A0000C00606D4311B2022204602F029FE059D2EE0A642059D2BD0311B302720463A460B
:206A200002F01EFE069B07984142414103980140012905D11878400702D43046214604E0B9
:206A40003078611C2070701C37701A7B412A0CD0582A05D0612A08D0782A01D0702A07D1D3
:206A60001B781B0701D4612A02D142784A704770204602F003FE401909B0F0BD4230240055
:206A800043020000F8B514460F4605468068002804D4286810218843286001E00120A86004
:206AA000287B1026582808D0782806D0702804D06F2801D1082600E00A262846194600F05F
:206AC00055F8AA68002A09D102460A4306D12878000749D52B7B0020024612E02B7B642BED
:206AE00003D1642300290BD504E0692B08D1002906D5692301223A60002240428A4100E045
:206B00000A4600941146324600F0B0F8A968884206DA401C21684A1E226030220A70F5E7F8
:206B2000287B582803D0782801D070280FD1297809070CD5702800D1782021684A1E226070
:206B400008702068411E216030210170287B6F280AD12878000707D520684178302903D08E
:206B6000411E216030210170F8BDC04610B5037B702B05D10868021D0A60006800226FE032
:206B80000068384A024001204403A24222D0402A20D00402A24230D04402A24246D0C40241
:206BA000A2422AD00403A24214D0202A12D100221C46643C142C06D8A0402B4C204204D12B
:206BC000212420423ED1582B49D10868031D0B60008845E000221C46643C142C06D8A04098
:206BE000214C204204D1212420422BD1582B36D10868031D0B60006832E01A46643A142A13
:206C000006D89040184A104206D12122104203D10020582B024623D10868C21D07208243B8
:206C20001046083008601068526819E000221C46643C142C0CD8A0400B4C20420AD1212432
:206C4000204205D00868021D0A600068C21707E0582B04D10868031D0B60007800E01046DB
:206C6000114610BD603F000000081200FEB501920D460646582B01D0174800E015480090D2
:206C8000089802903046284305D1029A1068411E116030210170019C3046284313D030468E
:206CA0002946224600F01AF807460D46224602F025FC301A0099085C029B19684A1E1A6099
:206CC00008703E46E8E70298006802F0D7FC401EFEBDC04697510000A851000080B5102AB3
:206CE00006D0082A09D1C0084A078018C90880BD00090A078018090980BD002904D111469D
:206D000002F032FA002180BD002302F075FC80BDF0B58DB00893174607910990139C600812
:206D200025090B90400700D06D1C654309980B9941184E1E07990A19521E93B2B2B201F06B
:206D40006DF9002D29D00C3CE0B2A10180080818C4B2052C21D801200C90A0402B210842B0
:206D60001BD0203F681E032102F0FEF9491C002003290590019000D00191009114980A9026
:206D800012980690F8B20390032D049407D2099F059E0098032800D0FEE00DB0F0BD019816
:206DA000281A02900026099F05960AE00798401C0790099F0598C01C059002998842049C5F
:206DC000E7D0032C0CD0012C06D0002C0DD10C2003994843CC490BE003980001C94907E0FC
:206DE000302003994843C64902E003988001C749081805994018057800240BE001F094F9DF
:206E0000761CF0B20B9902F0AFF9002926D0641C082C24D00C98A04028400A99002913D09E
:206E2000002809D0B8B2079989B202460B4601F0F5F8089801F078F97F1CB8B20999401A92
:206E40000B998842E3D104E000280698D6D00898D4E70798401C0790099F00E00026059888
:206E6000401C049900290CD0012906D003290DD13021039A5143A24A0BE003990901A14A20
:206E800007E00C21039A51439F4A02E0039989019E4A51180818057800240BE001F044F991
:206EA000761CF0B20B9902F05FF9002926D0641C082C24D00C98A04028400A99002913D04E
:206EC000002809D0B8B2079989B202460B4601F0A5F8089801F028F97F1CB8B20999401A92
:206EE0000B998842E3D104E000280698D6D00898D4E70798401C0790099F00E000260598E8
:206F0000801C049900290CD0012906D003290DD13021039A51437A4A0BE003990901794A8F
:206F200007E00C21039A5143774A02E003998901764A51180818057800240CE001F0F4F890
:206F4000761CF0B20B9902F00FF9002922D0641C082C00D12EE70C98A04028400A990029F2
:206F600013D0002809D0B8B2079989B202460B4601F054F8089801F0D7F87F1CB8B209990B
:206F8000401A0B998842E2D110E700280698D5D00898D3E700260DE7002002900EE0079861
:206FA000401C0790099F0598801C05900299891C019802918142049C00D1EEE6002C0CD0EC
:206FC000012C06D0032C0DD13020039948434C490BE0039800014B4907E00C200399484340
:206FE000494902E0039880014849081805994018057800240BE001F097F8761CF0B20B9976
:2070000002F0B2F8002926D0641C082C24D00C98A04028400A99002913D0002809D0B8B207
:20702000079989B202460B4600F0F8FF089801F07BF87F1CB8B20999401A0B998842E3D1CE
:2070400004E000280698D6D00898D4E70798401C0790099F00E0002602980C990843019921
:207060008842049900D198E60598401C00290CD0012906D003290DD13021039A5143204A66
:207080000BE0039909011F4A07E00C21039A51431D4A02E0039989011C4A511808180578D6
:2070A00000240CE001F040F8761CF0B20B9902F05BF8002922D0641C082C00D173E70C98DC
:2070C000A04028400A99002913D0002809D0B8B2079989B202460B4600F0A0FF089801F0BA
:2070E00023F87F1CB8B20999401A0B998842E2D155E700280698D5D00898D3E7002652E7F3
:20710000B033000080450000704B0000F01B0000F0B587B004920690BF4FC04C012003902B
:2071200046040591080B00F0C1FC22462660062038633868C00605D53868C00602D53868E3
:20714000C006F6D4386A3868C00605D53868C00602D53868C006F6D41346103B1E6002E04C
:207160001E60C0072BD0166005243C633868C00605D53868C00602D53868C006F6D4386A42
:207180003868C00605D53868C00602D53868C006F6D4FF253D633868C00605D53868C006D8
:2071A00002D53868C006F6D4386A3968C906D7D53968C906D4D53968C906F6D4D0E716608A
:2071C000022038633868C00605D53868C00602D53868C006F6D4386A0499059A3868C00601
:2071E00005D53868C00602D53868C006F6D4100CC0B238633868C00605D53868C00602D5A2
:207200003868C006F6D4386A3868C00605D53868C00602D53868C006F6D4100AC0B23863C8
:207220003868C00605D53868C00602D53868C006F6D4386A3868C00605D53868C00602D582
:207240003868C006F6D4D0B238633868C00605D53868C00602D53868C006F6D40293386AFD
:207260003868C00605D53868C00602D53868C006F6D4002910D0481E032101F075FF481C05
:2072800000210328059100D0059001900498032835D2019803287FD1604A1660029B02E095
:2072A0001E60C00729D016603C633868C00605D53868C00602D53868C006F6D4386A38688C
:2072C000C00605D53868C00602D53868C006F6D43D633868C00605D53868C00602D53868E4
:2072E000C006F6D4386A3968C906D9D53968C906D6D53968C906F6D4D2E707B0F0BD05992E
:20730000401A04900698421C801C002103E0C91C049B9942BDD0069B5B5C3B633B68DB067D
:2073200005D53B68DB0602D53B68DB06F6D43B6A3B68DB0605D53B68DB0602D53B68DB06E8
:20734000F6D4535C3B633B68DB0605D53B68DB0602D53B68DB06F6D43B6A3B68DB0605D50C
:207360003B68DB0602D53B68DB06F6D4435C3B633B68DB0605D53B68DB0602D53B68DB06EA
:20738000F6D43B6A3B68DB06C1D53B68DB06BED53B68DB06F6D4BAE70698401C04900022AE
:2073A00005E0891C921C0598824200D174E7069B5B5C3B633B68DB0605D53B68DB0602D559
:2073C0003B68DB06F6D43B6A3B68DB0605D53B68DB0602D53B68DB06F6D413460398034379
:2073E0000598834200D157E70498435C3B633B68DB0605D53B68DB0602D53B68DB06F6D43C
