:20000000008020204F0400005B0400005B040000000000000000000000000000000000000F
:200020000000000000000000000000005B04000000000000000000005B0400005B040000A3
:200040005B0400005B0400005B0400005B0400005B0400005B0400005B0400005B040000A8
:20006000000000005B0400005B04000000000000000000005B0400005B0400005B040000A5
:200080005B0400005B0400005B0400005B0400005B0400005B040000000000000000000026
:2000A0005B0400005B04000000000000000000005B040000000000005B0400005B04000065
:2000C000034C7D208501C60000F0B4F902E0C04690320A400420206100212A4600BF00BFA3
:2000E00000BF00BF00BF00BF00BF00BF00BF00BF00BF00BF00BF00BF00BF00BF00BF00BF10
:2001000000BF00BF00BF00BF00BF00BF00BF00BF00BF00BF00BF00BF00BF00BF00BF00BFEF
:2001200000BF00BF00BF00BF00BF00BF00BF00BF00BF00BF00BF00BF00BF00BF00BF00BFCF
:2001400000BF00BF00BF00BF00BF00BF00BF00BF00BF00BF00BF00BF00BF00BF00BF00BFAF
:2001600000BF00BF00BF00BF00BF00BF00BF00BF00BF00BF00BF00BF00BF00BF503A00D0B3
:20018000ACE72A4600BF00BF00BF00BF00BF00BF00BF00BF00BF00BF00BF00BF00BF00BFEA
:2001A00000BF00BF00BF00BF00BF00BF00BF00BF00BF00BF00BF00BF00BF00BF00BF00BF4F
:2001C00000BF00BF00BF00BF00BF00BF00BF00BF00BF00BF00BF00BF00BF00BF00BF00BF2F
:2001E00000BF00BF00BF00BF00BF00BF00BF00BF00BF00BF00BF00BF00BF00BF00BF00BF0F
:2002000000BF00BF00BF00BF00BF00BF00BF00BF00BF00BF00BF00BF00BF00BF00BF00BFEE
:2002200000BF00BF503A00D0ACE7891CB14200D053E720600020294600BF00BF00BF00BFA6
:2002400000BF00BF00BF00BF00BF00BF00BF00BF00BF00BF00BF00BF00BF00BF00BF00BFAE
:2002600000BF00BF00BF00BF00BF00BF00BF00BF00BF00BF00BF00BF00BF00BF00BF00BF8E
:2002800000BF00BF00BF00BF00BF00BF00BF00BF00BF00BF00BF00BF00BF00BF00BF00BF6E
:2002A00000BF00BF00BF00BF00BF00BF00BF00BF00BF00BF00BF00BF00BF00BF00BF00BF4E
:2002C00000BF00BF00BF00BF00BF00BF00BF00BF00BF00BF00BF00BF503900D0ACE72946CF
:2002E00000BF00BF00BF00BF00BF00BF00BF00BF00BF00BF00BF00BF00BF00BF00BF00BF0E
:2003000000BF00BF00BF00BF00BF00BF00BF00BF00BF00BF00BF00BF00BF00BF00BF00BFED
:2003200000BF00BF00BF00BF00BF00BF00BF00BF00BF00BF00BF00BF00BF00BF00BF00BFCD
:2003400000BF00BF00BF00BF00BF00BF00BF00BF00BF00BF00BF00BF00BF00BF00BF00BFAD
:2003600000BF00BF00BF00BF00BF00BF00BF00BF00BF00BF00BF00BF00BF00BF00BF00BF8D
:20038000503900D0ACE7801CB04200D053E7A1E60C48002101600C48014608390A68032308
:2003A000DB4313400B6001680122914301600168130299430160001F016812030A43026099
:2003C0007047C04608030B4008010B4080B5064806494160064A51600649016011601020F1
:2003E00000F030F880BDC04600080A40030000B100280A4001000026064880F3088800BFF3
:2004000000BF00F026F80020FFF75AFE012000F022F8C0460080202003480449016004486B
:2004200004210160016370473C80424081000100A0320A4080B5FFF7C9FFFFF7EDFFFFF774
:20044000A7FF80BD811E091F00BFFCD27047D3E770470120704700BFFEE7FEE700000000DC
:00000001FF
