:2000000000802020DF010000EB010000EB0100000000000000000000000000000000000068
:20002000000000000000000000000000EB0100000000000000000000EB010000EB010000FC
:20004000EB01000071010000EB010000EB010000EB010000EB010000EB010000EB010000BA
:2000600000000000EB010000EB0100000000000000000000EB010000EB010000EB010000E4
:20008000EB010000EB010000EB010000EB010000EB010000EB0100000000000000000000D8
:2000A000EB010000EB0100000000000000000000EB01000000000000EB010000EB010000A4
:2000C0000B480C4941660C4901600C48016810220A4302600A48016A012292041143016250
:2000E000016811430160074804210160016370473C80424081000D0081000100A0130A40A7
:2001000028100A40A0320A400C48002101600C48014608390A680323DB4313400B600168B2
:200120000122914301600168130299430160001F016812030A4302607047C04608030B404D
:2001400008010B4080B5064806494160064A5160064901601160102000F03CF880BDC0461F
:2001600000080A40030000B100280A400100002605480068012806D104480068400302D55D
:2001800003480421016070473011404080130A40B0320A40064880F3088800BF00BF00F04E
:2001A00020F8002000F00EF8012000F01CF8C0460080202080B5FFF7C5FFFFF781FFFFF7CB
:2001C000A3FF80BDFFF7F6FF014802210160FEE700E100E0811E091F00BFFCD27047D9E717
:1001E00070470120704700BFFEE7FEE700000000F7
:00000001FF
